:020000040800F2
:10000000A01702207D020008B9410008413900080C
:10001000B5410008290C00086F59000800000000D5
:10002000000000000000000000000000C501000802
:10003000312300080000000019020008714E00087A
:10004000A1020008A1020008A1020008A102000804
:10005000A1020008A1020008A1020008A1020008F4
:10006000A1020008A1020008A1020008A1020008E4
:10007000A1020008A1020008A1020008A1020008D4
:10008000A1020008A1020008A1020008A1020008C4
:100090002D0C0008A1020008A10200084129000857
:1000A000A1020008A1020008A1020008A1020008A4
:1000B000A1020008E94E0008A1020008A102000800
:1000C000A1020008A1020008A1020008A102000884
:1000D000A1020008D5550008A1020008A1020008ED
:1000E000A1020008A1020008A1020008A102000864
:1000F000A1020008A1020008A1020008A102000854
:10010000A1020008A1020008A1020008A102000843
:10011000A1020008A1020008F54F0008A102000892
:10012000A1020008A1020008A1020008A102000823
:10013000A1020008A1020008A1020008A102000813
:100140006D0D0008A1020008A1020008A10200082C
:10015000C51F0008A1020008A1020008A1020008B2
:10016000A1020008A1020008A1020008A1020008E3
:10017000A1020008A1020008A1020008000000007E
:10018000A1020008A10200081D55000879550008C9
:10019000A1020008A1020008A1020008A1020008B3
:1001A0000000000000000000A1020008DFF810D0ED
:1001B00000F086F90048004705780008AFF300809A
:1001C000A01702202A4B19680868B0E8F04F80F3A6
:1001D0000988BFF36F8F4FF0000080F311887047DC
:1001E0000000000006480068006880F3088862B6D6
:1001F00061B6BFF34F8FBFF36F8F00DF00BF00BF4B
:1002000008ED00E0DFF80C00016841F470010160C6
:10021000704700BF88ED00E0EFF30980BFF36F8FF8
:10022000134B1A681EF0100F08BF20ED108A20E94A
:10023000F04F106008B44FF0500080F31188BFF306
:100240004F8FBFF36F8F09F0A1F84FF0000080F3DC
:10025000118808BC19680868B0E8F04F1EF0100F4C
:1002600008BFB0EC108A80F30988BFF36F8F704726
:1002700024000020EFF30580704700000948016862
:1002800041F4700101600848804708480047FEE7D4
:10029000FEE7FEE7FEE7FEE7FEE7FEE7FEE7FEE736
:1002A000FEE7000088ED00E0814E0008AD01000887
:1002B0009FED1A1AF5EE000A40EE010ABDEEE00AC3
:1002C000F5EEC00A10EE100AF1EE10FA38BF401E2B
:1002D00000EE100A1349F7EE001AB8EEC00A30EE2D
:1002E000C00ADFED0F0A20EE200AFCEEC00A10EE75
:1002F000900AC0F3080000EE900A01EB8000F8EECF
:10030000600A90ED011A70EE600A90ED000A71EE3D
:10031000E01A21EE800A00EE810A704783F9223E3E
:100320000000004420A50008DFED190AB5EEC00A60
:1003300060EE200ABDEEE01A11EE100AF1EE10FA9E
:1003400038BF401E00EE100A1349F7EE001AB8EE4F
:10035000C00A30EEC00ADFED0F0A60EE200ABCEEE4
:10036000E00A10EE100AC0F3080000EE100A01EBDC
:100370008000B8EE400A90ED011A70EEC00A90EDD0
:10038000000A71EEE01A21EE800A00EE810A704741
:1003900083F9223E0000004420A5000840EA010342
:1003A0009B0703D009E008C9121F08C0042AFAD22B
:1003B00003E011F8013B00F8013B521EF9D27047EF
:1003C000D2B201E000F8012B491EFBD27047002297
:1003D000F6E710B513460A4604461946FFF7F0FF44
:1003E000204610BD421C10F8011B0029FBD1801AC9
:1003F000704700F0004230F000400AD0C10D01F516
:100400006071C0F3160042EA0151C208400711436F
:10041000704700200146704701F0004330B421F0DE
:10042000004150EA010206D00A0DA2F56072C1F344
:100430001301002A02DC30BC00207047440F44EA5C
:10044000C104C100E01830BC00EBC250AFF3008023
:100450000029A8BF7047401C490008BF20F00100D8
:10046000704710B4B0FA80FC00FA0CF050EA0104B6
:1004700004BF10BC704749B1CCF1200421FA04F448
:1004800011FA0CF118BF012121430843A3EB0C0121
:10049000CB1D4FEA00614FEA102042BF002010BC84
:1004A000704700EBC35010440029A4BF10BC704734
:1004B000401C490008BF20F0010010BC704700003C
:1004C000064C074D06E0E06840F0010394E80700A1
:1004D00098471034AC42F6D3FFF76CFE24AD000809
:1004E00044AD000870B58C1810F8015B15F00703D7
:1004F00001D110F8013B2A1106D110F8012B03E0BD
:1005000010F8016B01F8016B5B1EF9D12B0705D4C4
:100510000023521E0DD401F8013BFAE710F8013B0D
:10052000CB1A921C03E013F8015B01F8015B521E29
:10053000F9D5A142D8D3002070BDCA4302607047EC
:1005400021B1826842F00102826003E0826822F0F9
:1005500001028260704700000021084A1168084AC1
:100560001140D0E900231A4383681A43C3681A4331
:100570001143044AC2F804137047000004230140E9
:10058000E030FCFF002001400146C86C80B270479B
:100590000246002013680B400BB1012000E0002050
:1005A0007047000030B50246002000235068104C10
:1005B00020400D790C6844EA05242043506090687F
:1005C0000C4C2040D1E903542C438D682C434D79C9
:1005D00044EA450420439060D06A20F470000C7D0A
:1005E000641EE4B2234340EA0350D06230BD0000F1
:1005F000FFFEFFFCFDF7FFC0F0B504460D460020EE
:100600000021092D11DDE068A5F10A0606EB460779
:10061000072606FA07F18843A5F10A0606EB460607
:1006200003FA06F10843E0600CE0206905EB45079A
:10063000072606FA07F1884305EB450603FA06F19B
:1006400008432061072A0FDA606B561E06EB860707
:100650001F2606FA07F18843561E06EB860605FAA2
:1006600006F10843606322E00D2A0FDA206BD61FE3
:1006700006EB86071F2606FA07F18843D61F06EB0E
:10068000860605FA06F10843206310E0E06AA2F14D
:100690000D0606EB86071F2606FA07F18843A2F12E
:1006A0000D0606EB860605FA06F10843E062F0BD8A
:1006B000816841F0804181607047000038B108498D
:1006C000096841F40001074AC2F8041306E004492E
:1006D000096821F40001034AC2F8041370470000BE
:1006E000042301400020014010B52DED028BB0EE37
:1006F000408AB0EE480A05F075FABDEC028B10BDD9
:1007000010B52DED028BB0EE408AF0EE608AF0EE6F
:10071000680AB0EE480A05F0FBFABDEC028B10BD8A
:1007200010B52DED028BB0EE408AB0EE480AFFF70F
:10073000BFFDBDEC028B10BDF0EE400AF5EEC00A25
:10074000F1EE10FA02DDB0EE600A7047B1EE600A19
:10075000FBE7000018B19FED020A80ED000A704728
:100760000000000018B19FED020A80ED000A7047FA
:10077000DF8FB44170B52DED0C8B84B006460C466E
:1007800015469FED990AF0EE408A9FED970AB0EE6C
:10079000409A9FED950AF0EE40BA9FED930AF0EE75
:1007A000409A9FED910AB0EE40AA0EB104B11DB976
:1007B00004B0BDEC0C8B70BD8C48FFF7CBFF8C48B0
:1007C000FFF7D0FF8A48D0ED000A9FED8A1A60EE4D
:1007D000810AB0EE600A00F039F9F0EE408A28EEA6
:1007E000A80AF0EE408A8248D0ED000AB0EE001A66
:1007F00060EE810A9FED7F1A60EE810AB0EE600A1A
:1008000000F024F9B0EE409A29EE090AB0EE409AC1
:10081000DFED790AB7EE000A00EEA80ADFED770AED
:1008200000EEC90ADFED760A20EE200A754880ED59
:10083000000A6E4890ED000ADFED730A80EE201A80
:10084000B7EE000A31EE000A20EE000A6D48D0ED46
:10085000000A80EE801A6D4880ED001A94ED000ABF
:10086000B5EEC00AF1EE10FA0DD194ED010AB5EE25
:10087000C00AF1EE10FA06D194ED020AB5EEC00AF4
:10088000F1EE10FA46D09FED580AB0EE408A0020F3
:10089000019002900390D4ED000A60EEA00A94ED5E
:1008A000011AD4ED011A41EE210A94ED021AD4ED99
:1008B000021A41EE210AB0EE600A00F0A9F8B0EE8B
:1008C000408A94ED000A20EE080A8DED010A94EDAD
:1008D000010A20EE080A8DED020A94ED020A20EECC
:1008E000080A8DED030ADDED010AF1EE600AB0EEB3
:1008F000600AFFF7F9FEF0EE409A9DED031AF0EE64
:10090000410A9DED021AB0EE410AFFF7F9FEB0EE82
:1009100040AA07E09FED340AF0EE409A9FED320ABC
:10092000B0EE40AA95ED000AB5EEC00AF1EE10FA5D
:100930000DD195ED010AB5EEC00AF1EE10FA06D11F
:1009400095ED020AB5EEC00AF1EE10FA3CD0B0EE19
:10095000690A00F07BF8B0EE408AB0EE690AFFF752
:10096000DFFEB0EE40DAB0EE4A0A00F06FF8F0EECB
:1009700040AAB0EE4A0AFFF7D3FEB0EE40BA28EE26
:100980002A0AD5ED010A20EE200AD5ED000A0DEE67
:10099000200A68EE0B0A95ED021A00EE810AB0EE0D
:1009A00040CA95ED010A20EE0B0AD5ED020A0AEEC7
:1009B000E00AF0EE40CAF0EE6C0AB0EE4C0AFFF727
:1009C0009FFEF0EE40BA03E09FED070AF0EE40BA5A
:1009D000B0EE4A1AF0EE690AB0EE6B0A304605F046
:1009E000E3FC00BFE4E60000000000002C0800204B
:1009F0003008002035FA8E3CC1BFAD3B9DF8C536AE
:100A00002F7C1C4134080020506CC24A380800205A
:100A1000F0EE400AF6EE001A60EEA11AB0EE611A8E
:100A2000B0EE600A10EE100A0749A1EB600000EE7C
:100A3000100A21EE002AF7EE081A42EE401A61EE83
:100A4000801AB0EE610A7047DF59375F10B52DED9F
:100A5000028BB0EE408AB0EE480AFFF765FCBDECB1
:100A6000028B10BD2DE9F0412DED028B9AB00546A9
:100A7000B0EE408A0E461746984600201790189010
:100A800019901490159016904DB146B13FB1B8F140
:100A9000000F04D0B5EEC08AF1EE10FA05D10020A7
:100AA0001AB0BDEC028BBDE8F08196ED000A8DED29
:100AB000170A96ED010A8DED180A96ED020A8DEDE2
:100AC000190A97ED000A8DED140A97ED010A8DEDD4
:100AD000150A97ED020A8DED160A17AA14A92846E1
:100AE00005F0A2FA402104A8FFF771FC0020009055
:100AF000019002900390002417A904A808F07AF846
:100B000000BF30E004A800EB041090ED000AD5ED22
:100B1000000A20EE200A04A800EB0410D0ED010A20
:100B200095ED011A00EE810A04A800EB0410D0ED47
:100B3000020A95ED021A00EE810A04A800EB0410E7
:100B4000D0ED030A95ED031A00EE810A20EE080AA3
:100B5000F0EE000A80EE201A684600EB840080ED7B
:100B6000001A601CC4B2042CCCDB002410E005EB9E
:100B7000840090ED000A684600EB8400D0ED000A86
:100B800030EE200A05EB840080ED000A601CC4B240
:100B9000042CECDB284607F075FE012080E738B511
:100BA0004FF4407003F046FB4FF47A7006F02AF8D9
:100BB00006F0D2FD07F0AEFF06F0EAFF06F05EF9A0
:100BC0005A2147F2305005F0A5FC06F09DFD04F0D7
:100BD00089FF04F007FF03F089FA07F03FFF5A216D
:100BE0004EF6602004F018FA002005231A46012171
:100BF000009000F033F8002005231A4601210090F0
:100C000000F0CCF8002408E0204606F0F5FF40F2A2
:100C1000C52006F055F8601CC4B2042CF4DB07F0C4
:100C200073FE05F0FDFD38BD00BFFEE710B50221E3
:100C3000084800F06DFA58B10221064800F090F91A
:100C4000054A0021034800F086FB034800F08EFCB3
:100C500010BD000000640040500D02202DE9F0415D
:100C60008AB004460D4616461F46DDF84080012135
:100C7000082003F033FC0121480603F03FFC01216A
:100C8000480603F04BFC00214FF0007003F046FCD7
:100C90000320089002208DF8240000208DF8260003
:100CA00003208DF8250001208DF8270008A92D4884
:100CB00001F024FF092200212A4801F067FF0922E0
:100CC0000121284801F062FF00208DF81A00012060
:100CD0008DF81B0000208DF81C008DF81D008DF88C
:100CE0001E008DF81F008DF816808DF817408DF8C6
:100CF00018608DF81950ADF8147005A91A4800F065
:100D0000A0FA00208DF80E008DF80F0001208DF85C
:100D100010000020ADF80400ADF80600ADF80800A2
:100D2000ADF80A00ADF80C0001208DF8110001A803
:100D300000F06AF9012202210B4800F079FA142030
:100D40008DF8000004208DF8010000208DF80200CD
:100D500001208DF80300684603F030FA00200AB045
:100D6000BDE8F081000C02400064004010B5022193
:100D7000084800F0CDF958B10221064800F0F0F81B
:100D8000054A0021034800F0E6FA034800F0EEFBB4
:100D900010BD000000680040640D02202DE9F04104
:100DA0008AB004460D4616461F46DDF840800121F4
:100DB000022003F093FB0121880603F09FFB012131
:100DC000880603F0ABFB00214FF0806003F0A6FB28
:100DD0004FF44050089002208DF8240000208DF838
:100DE000260003208DF8250001208DF8270008A992
:100DF0002D4801F083FE09220C212B4801F0C6FE8C
:100E000009220D21284801F0C1FE00208DF81A00AA
:100E100001208DF81B0000208DF81C008DF81D00AE
:100E20008DF81E008DF81F008DF816808DF8174084
:100E30008DF818608DF81950ADF8147005A91B488D
:100E400000F0FFF90E208DF80E0000208DF80F0045
:100E500001208DF810000020ADF80400ADF8060068
:100E6000ADF80800ADF80A00ADF80C0001208DF8CF
:100E7000110001A800F0C8F8012202210B4800F07F
:100E8000D7F940208DF8000004208DF801000020E3
:100E90008DF8020001208DF80300684603F08EF9FA
:100EA00000200AB0BDE8F081000402400068004064
:100EB000F0B585B004460D4616461F464FF4007047
:100EC000009000208DF808008DF8090008208DF8AA
:100ED0000A00200A8DF80B00E1B28DF80C10290AE7
:100EE0008DF80D10E9B28DF80E10310A8DF80F1043
:100EF000F1B28DF81010390A8DF81110F9B28DF891
:100F000012106946024800F09EFA05B0F0BD0000DC
:100F1000006800402DE9F04104460D4616461F4684
:100F200040F2FF100C490860002008724872082047
:100F30008872200AC87208460473290A41738573AF
:100F4000310AC1730674390A417487740146034833
:100F500000F079FABDE8F0813C0D02200064004009
:100F6000B1F5007F3AD00FDC202928D006DC01291A
:100F70001CD004291DD0082940D11DE0402921D0D2
:100F8000B1F5807F3AD126E0B1F5004F31D006DCD3
:100F9000B1F5806F25D0B1F5006F2FD124E0B1F508
:100FA000803F12D0B1F5003F28D111E0154A826090
:100FB00025E00822C26022E01022C2601FE0082261
:100FC00002611CE01022026119E00822426016E072
:100FD0001022426013E00422426010E004224260CA
:100FE0000DE0042242600AE0002282610422426095
:100FF00005E0002282610422426000E000BF00BFE1
:10100000704700000101010010B50021837A012220
:1010100002FA03F13D4A126842F001023B4B1A60AA
:101020003A4A1C3212688A43384B1C331A60027BDE
:10103000CAB9364A0C3212688A43344B0C331A60F0
:101040004288C38842EA0343304A4032847A42F8F5
:1010500034300288838842EA03432C4A4032847A3F
:1010600002EBC4025360027B012A19D1274A0C32D9
:1010700012680A43254B0C331A604288038842EAFF
:101080000343224A4032847A42F83430C28883884B
:1010900042EA03431D4A4032847A02EBC4025360A1
:1010A000C27A3AB9194A121D12688A43174B1B1D9E
:1010B0001A6006E0154A121D12680A43134B1B1DE5
:1010C0001A60028932B9114A143212688A430F4BEE
:1010D00014331A600289012A06D10C4A14321268AC
:1010E0000A430A4B14331A60427B012A06D1074A8D
:1010F0001C3212680A43054B1C331A60034A1268FB
:1011000022F00102014B1A6010BD00000066004091
:1011100070B504460D46002660692840002871D04D
:10112000B5F5807F5CD010DC082D35D006DC012DB4
:1011300020D0022D24D0042D72D127E0102D31D0E3
:10114000202D35D0402D6BD138E0B5F5004F60D063
:1011500009DCB5F5007F49D0B5F5806F4CD0B5F509
:10116000006F5DD14FE0B5F5803F2DD0B5F5003F64
:1011700056D12FE0A0682D4900F01AFF064651E035
:10118000E068032100F014FF06464BE0E068082108
:1011900000F00EFF064645E0E068102100F008FF71
:1011A00006463FE02069032100F002FF064639E0D1
:1011B0002069082100F0FCFE064633E0206910217A
:1011C00000F0F6FE06462DE06068082100F0F0FE13
:1011D000064627E06068102100F0EAFE064621E09E
:1011E000A069012100F0E4FE06461BE0A06902218F
:1011F00000F0DEFE064615E0A069042100F0D8FEEE
:1012000006460FE00FE0A069702100F0D1FE06460F
:1012100008E06068042100F0CBFE064602E0FFE72C
:10122000002600BF00E00026304670BD010101002D
:101230001AB143690B43436102E043698B43436145
:10124000704730B5024600200023146824F00204E1
:101250001460146844F00104146000E05B1C5468DE
:1012600004F001041CB94FF6FF74A342F6D1546890
:1012700004F001040CB900206CE08C79012C04D13D
:10128000146844F08004146003E0146824F08004BF
:101290001460CC79012C04D1146844F0400414602B
:1012A00003E0146824F0400414600C7A012C04D18B
:1012B000146844F02004146003E0146824F020044F
:1012C00014604C7A012C04D1146844F010041460AA
:1012D00003E0146824F0100414608C7A012C04D10B
:1012E000146844F00804146003E0146824F008044F
:1012F0001460CC7A012C04D1146844F00404146006
:1013000003E0146824F0040414608C78A407CD78FA
:1013100044EA05640D7944EA05444D7944EA0554EC
:101320000D886D1E2C43D461146824F001041460F0
:10133000002300E05B1C546804F001041CB14FF66C
:10134000FF74A342F6D1546804F001040CB10020EC
:1013500000E0012030BD10B500F5D87303EB011398
:101360001B6803F004031372137A53B900F5D873A2
:1013700003EB01131B6840F2FF7404EA535313603C
:1013800009E000F5D87303EB01131B686FF06044AC
:1013900004EAD303536000F5D87303EB01131B6811
:1013A00003F00203537200F5D87303EB01135B687B
:1013B00003F00F03937200F5D87303EB01135B681E
:1013C0001B0AD37400F5D87303EB01139B68D37227
:1013D00000F5D87303EB01139B681C0A147300F526
:1013E000D87303EB01139B681C0C547300F5D8737E
:1013F00003EB01139B681B0E937300F5D87303EB8B
:101400000113DB68D37300F5D87303EB0113DB68BA
:101410001C0A147400F5D87303EB0113DB681C0C71
:10142000547400F5D87303EB0113DB681B0E93743F
:1014300021B9C36843F02003C36003E0036943F0AC
:101440002003036110BD10B502460020936803F02D
:101450008063B3F1806F00D110E0936803F0006304
:10146000B3F1006F01D1012008E0936803F08053CD
:10147000B3F1805F01D1022000E00420042874D081
:1014800002F5C07303EB00131B6803F0010402F5BF
:10149000C07303EB00131C600B7A7BB94B7A0C888A
:1014A00043EA445302F5C07404EB00142468234358
:1014B00002F5C07404EB0014236010E00B7A4C6852
:1014C00043EAC4034C7A234302F5C07404EB0014CE
:1014D0002468234302F5C07404EB001423608B7A64
:1014E00003F00F038B7202F5C07303EB00135B680C
:1014F00023F00F0402F5C07303EB00135C6002F5E8
:10150000C07303EB00135B688C7A234302F5C0744D
:1015100004EB001463608B7B1C064B7B44EA0344A2
:101520000B7B44EA0323CC7A234302F5C07404EB1B
:101530000014A3608B7C1C064B7C44EA03440B7CA8
:1015400044EA0323CC7B234302F5C07404EB00146C
:10155000E36002F5C07303EB00131B6843F0010462
:1015600002F5C07303EB00131C6010BD10B50446F8
:101570002068A0F2012007287ED2DFE800F0616237
:101580006364042342005548008800B2534908812F
:10159000207BE17A40EA012050490880A17B607BF2
:1015A00041EA002000B24D498880217CE07B41EA7D
:1015B000002000B249494880607C8871012000F019
:1015C00021FF88E04648008800B245490881207B19
:1015D000E17A40EA012042490880A17B607B41EA30
:1015E000002000B23E498880217CE07B41EA002057
:1015F00000B23B494880607C8871022000F002FF05
:1016000069E03848008800B236490881207BE17AD9
:1016100040EA012033490880A17B607B41EA002039
:1016200000B230494880217CE07B41EA002000B2D2
:101630002C498880607C8871032000F0E3FE4AE03A
:1016400000BF00BF00BF2078401E27490870084631
:10165000007800EB8000254931F8100000B22249E3
:10166000097801EB8101214A02EB41010881207BCD
:10167000E17A40EA012000E02CE01B49097801EB07
:10168000810122F81100A17B607B41EA002000B2B9
:101690001549097801EB810102EB41014880217C69
:1016A000E07B41EA002000B20F49097801EB81019B
:1016B00002EB41018880607C0B49097801EB8101D4
:1016C00002EB4101887108490978091DC8B200F090
:1016D00099FE00E000BF00BF10BD0000F40C022026
:1016E000FE0C0220080D022004010020120D022031
:1016F00010B52DED088B84B09FED660AB0EE408AE0
:101700009FED640AB0EE409A9FED620AF0EE408AC7
:10171000002000900190029003905F48D0ED861A5F
:10172000B0EE611AD0ED841AF0EE610AD0ED821AA3
:10173000B0EE610A684605F071F9002438E06846A9
:1017400000EB840090ED000AC4EBC40000EB041130
:101750005148543000EB810080ED150AC4EBC40001
:1017600000EB04124C48543000EB820090ED150A57
:1017700010EE101A0846FEF73CFE41EC1B0BB0EED3
:101780004B0AF0EE6B0A04F019FCB0EE40AAF0EE42
:1017900060AA51EC1A0BFEF73FFE08EE100AF4EEB9
:1017A000C88AF1EE10FA01D2F0EE488A601CC4B289
:1017B000042CC4DBB1EE000AF4EEC08AF1EE10FA9C
:1017C00021DDB1EE000AC0EE280AB0EE609A0024D6
:1017D00017E0C4EBC40000EB04112F48543000EBB9
:1017E000810090ED150A20EE090AC4EBC40000EB5D
:1017F00004112948543000EB810080ED150A601C6B
:10180000C4B2042CE5DB00243DE0C4EBC40101EBD1
:1018100004122149543101EB820191ED151AF0EEC9
:10182000410AC4EBC40101EB04121B49543101EB22
:10183000820191ED141AB0EE410AC4EBC40101EB30
:1018400004121549543101EB8201081D02F01EFDFE
:10185000C4EBC40000EB04110F48543000EB8100CE
:1018600090ED090ABDEEC00A10EE100A01B2C4EBF9
:10187000C40000EB04120848543000EB8200A0F8CA
:101880005A10601CC4B2042CBFDB04B0BDEC088B42
:1018900010BD000000000000780D0220704700001D
:1018A00000B589B000200890079006909FED2F0AA0
:1018B0008DED050A9FED2D0A8DED040A9FED2B0A93
:1018C0008DED030A9FED290A8DED020A9FED270A8F
:1018D0008DED010A9FED250A8DED000A08AA04A9E5
:1018E00005A805F0E3F807AA02A903A804F0F4FF8D
:1018F0009DED050ADDED030A30EE200A8DED010AAB
:101900009DED040ADDED020A30EE200A8DED000A9D
:10191000BDF82000BDF81C10084400B20690144821
:10192000407A06281ED2DFE800F0031A120C0617D0
:1019300000F0E0F916E006AA694601A800F050F8A8
:1019400010E006AA694601A800F0A0F90AE069467D
:1019500001A800F00FF805E0FFF7A0FF02E000F09B
:101960000FFA00BF00BF09B000BD0000000000007A
:10197000780D022070B504460D4605F0EFFB0646D3
:10198000D4ED000AB0EE600AB0EE081AF8EE080ACC
:1019900005F05EFA0F4880ED820AD5ED000AB0EE40
:1019A000600A9FED0D1ADFED0D0A05F051FA0948A6
:1019B00080ED840A96ED081AF0EE410A96ED0A1AB7
:1019C000B0EE410A0C3002F061FC024880ED860A5C
:1019D00070BD0000780D02209A9939409A9939C05B
:1019E00070B52DED028B04460D4616462248D0ED0B
:1019F000870AB0EE600AFEF797FCB0EE408A1E48F8
:101A0000D0ED870AB0EE600AFEF752FCF0EE408A95
:101A100094ED000A20EE280AD5ED000A00EE880AAF
:101A2000154880ED820A94ED000AB1EE400A20EEDE
:101A3000080AD5ED000A00EEA80A80ED840AC07AF3
:101A400068B9B6F9000000EE100AB8EEC00ADFED82
:101A50000B0A20EE200A084880ED860A08E00648B6
:101A6000C07A012804D1B7EE000A034880ED860A47
:101A7000BDEC028B70BD0000780D02200AD7233C1C
:101A800010B5002400BF1BE0204605F0C7FAC4EBE8
:101A9000C40101EB04123A4941F82200C4EBC4012D
:101AA00001EB0412364901EB8201081DDFED350A16
:101AB0009FED350A354A002102F0E0FC601CC4B2FB
:101AC000042CE1DBDFED320AB7EE000A314A0021D7
:101AD0002B48483802F0D2FC00202949543948727A
:101AE0002D499FED2E0A2E4805F078F92D499FEDDE
:101AF0002B0A2B48103005F071F92B499FED270A6E
:101B00002748203005F06AF928499FED240A244827
:101B1000303005F063F905F025FB194954390860A8
:101B200005F088FA1649543948600846406890ED37
:101B3000000AB5EEC00AF1EE10FA03DB012081F8CD
:101B4000300204E000200E49543981F830020020B0
:101B50000B495439A1F8320200240BE0204605F06D
:101B60005DFAC4EBC40101EB0412054941F82200FF
:101B7000601CC4B2042CF1DB00F014F910BD0000AD
:101B8000CC0D02200000FA4400007A4684A400082C
:101B9000CDCC4C3E90A400089CA400086F12033BDF
:101BA0003C0F0220A0A40008A4A40008A8A40008D8
:101BB00070B50024002533490968C87A06F07AFF19
:101BC00018B100202F4908720CE02E490968C87A24
:101BD00006F07EFF18B101202A49087202E00020B9
:101BE000284908722748007AD8B926490968887AAE
:101BF00006F06EFF08B1042411E022490968887AD2
:101C000006F058FF08B1032409E01E490968887AE4
:101C1000022801D1012100E0002101B100240025AA
:101C20001EE018480068C08AC0F3002020B11648A2
:101C30000078C043144908701348007808B10424A0
:101C400000E003240F480068807EC0F3801000B1DC
:101C500001250C480068408BC0F3402000B10225EC
:101C600008484472C572407A0649897A884204D08D
:101C7000044A517A907A04F0F9FE0248407A014908
:101C8000887270BD780D02200801002070B50446EE
:101C90000D461646D4ED000AB0EE600AB0EE081A02
:101CA000F8EE080A05F0D4F80E4880ED820AD5ED6A
:101CB000000AB0EE600A9FED0C1ADFED0C0A05F089
:101CC000C7F8084880ED840AB6F9000000EE100A53
:101CD000B8EEC00ADFED060A20EE200A014880EDCA
:101CE000860A70BD780D02209A9939409A9939C0B8
:101CF0000AD7233C9FED090A094880ED820A9FED2F
:101D0000070A80ED840A9FED050A80ED860A90EDB2
:101D1000880A80ED8A0A80ED890A70470000000079
:101D2000780D022010B51548407A98B1002006F0D1
:101D30001BFF78B9042006F017FF58B9052006F0FC
:101D400013FF38B9062006F00FFF18B9072006F078
:101D50000BFF30B100231A4619461846FFF7A8F8C2
:101D60000AE0064CB4F9C231B4F96621B4F90A119B
:101D7000B4F9AE00FFF79CF810BD0000780D02200A
:101D80009FED060A064880ED820A9FED040A80ED69
:101D9000840A9FED020A80ED860A70470000000069
:101DA000780D022070B52DED028B05F047F9054640
:101DB00095ED000AB0EE408A7548B0F9320247F658
:101DC000FF71884205D07248B0F9320210F5004F19
:101DD00022D16F4890ED890AB0F9320200EE900AE4
:101DE000F8EEE00A9FED6B1A00EEC10A684880ED3C
:101DF000890A90ED8B0AB0F9320200EE900AF8EEF3
:101E0000E00A9FED641A00EEC10A614880ED8B0A7A
:101E100000205F49A1F832025F48F0EE480A5F49AE
:101E200091ED000A05F084FAB0EE408A002435E016
:101E3000C4EBC40000EB04115548543050F82100A5
:101E4000B0F9020000EE100AB8EEC00ADFED540A45
:101E500020EE200AC4EBC40000EB04114C485430BF
:101E600000EB810080ED140AC4EBC40000EB041108
:101E70004748543000EB810090ED0D0ADFED490A30
:101E800020EE200AC4EBC40000EB0411404854309B
:101E900000EB810080ED130A601CC4B2042CC7DB88
:101EA0003B4890ED290AD0ED400A30EE600AD0EDB3
:101EB000570A30EE200AD0ED6E0A30EE600AF5EED9
:101EC000000A20EE200A80ED810A90ED290AB1EE89
:101ED000400AD0ED400A30EE600AD0ED570A30EEED
:101EE000200AD0ED6E0A30EE200AF5EE000A20EE50
:101EF000200A80ED830A90ED290AB1EE400AD0ED68
:101F0000400A30EE600AD0ED570A30EE600AD0ED9C
:101F10006E0A30EE600AF5EE000A20EE200ADFEDD0
:101F2000220A80EE201A80ED851A05F011F9B1EE33
:101F3000400A174880ED870A90ED870A30EE080ABC
:101F400080ED880A90ED881AB0F93202400001EE67
:101F5000900AF8EEE11A9FED152A01EE821AF0EED2
:101F6000410A0B4890ED8B1AB0EE410A00F2322084
:101F700004F042FB064880ED890A90ED890A80ED65
:101F80008B0A064880ED008ABDEC028B70BD000014
:101F9000780D0220DB0FC940A80F02200C010020A1
:101FA0000A01DA390000FA439A99993EDB0F494059
:101FB0000246002002EA01030BB1012000E00020EC
:101FC0007047000010B51049104800F043F9C8B13F
:101FD0000D490E4800F022F805F03EFC07F05EFEC9
:101FE00001280FD00A490B48006807F059F8084843
:101FF000006838B14FF0805007490860BFF34F8F39
:10200000BFF36F8F10BD00000008002088640240FD
:10201000F00700207407002004ED00E00246094BA1
:102020009A4201D2084801E00648103801F00053F6
:102030001BB1064B0B40C36002E0044B0B408360B6
:102040007047000010640240006002407D0F7D0F69
:102050000246094B9A4201D2084801E0064810386E
:1020600001F000531BB1064B0B40C36002E0044B70
:102070000B40836070470000106402400060024023
:102080007D0F7D0F21B1026842F00102026003E082
:10209000026822F00102026070470000016821F02E
:1020A000010101600021016041608160C160016146
:1020B000212141614A49884204D13D21484A103AD0
:1020C00091608CE046491831884205D14FF4746123
:1020D000434A103A916082E041493031884205D14B
:1020E0004FF474113E4A103A916078E03C4948310F
:1020F000884205D14FF07461394A103A91606EE020
:1021000037496031884204D13649354A103AD160A6
:1021100065E033497831884204D13349304A103A76
:10212000D1605CE02E499031884204D12F492C4A7D
:10213000103AD16053E02A49A831884205D14FF0C6
:102140003D51274A103AD16049E02949884204D1DB
:102150003D21274A083A116041E02549183188425B
:1021600005D14FF47461224A083A116037E02049E2
:102170003031884205D14FF474111D4A083A11607C
:102180002DE01B494831884205D14FF07461184A4F
:10219000083A116023E016496031884204D11149A0
:1021A000134A121F11601AE011497831884204D194
:1021B0000D490F4A121F116011E00D4990318842FC
:1021C00004D10A490A4A121F116008E00849A831DF
:1021D000884204D14FF03D51054A121F11607047EB
:1021E000106002403D000020400F002000003D2014
:1021F0001064024021B1026842F48022026003E0D0
:10220000026822F480220260704722B1036843F41E
:102210000023036003E0036823F4002303600161EB
:102220007047014600200A6802F001020AB101204D
:1022300000E0002070470146486880B270470146C0
:1022400000200A6802F400220AB1012000E0002008
:102250007047000030B503460A46002000240B4DAD
:10226000AB4201D20A4901E00849103902F0005599
:102270000DB14C6800E00C68064D2C4004EA0205E4
:102280000DB1012000E0002030BD000010640240CC
:10229000006002407D0F7D0F10B501F080034BB14F
:1022A00022B1436943F08003436103E0436923F0B3
:1022B0008003436180290BD02AB1036801F01E041A
:1022C0002343036004E0036801F01E04A34303609A
:1022D00010BD000010B500220268134B1A40CC68F4
:1022E0000B6823434C6923438C692343CC69234304
:1022F0000C6A23434C6A23438C6A23434C6B23436D
:102300008C6B23431A430260426922F00702D1E931
:102310000B3423431A4342610B6943604B6883606B
:102320008B68C36010BD00003F801CF041607047A7
:102330007047000070B50446002500BF11E005EBB2
:10234000C5002A4901EB8000C07CC0F3401018B1E1
:10235000284604F065FD02E0284604F06DFD681C87
:10236000C5B2072DEBDD092C05D105F037FA0920A0
:102370001F49087037E01E480078A04201D01C4871
:1023800004701C48007878B91B480078401C1A4932
:10239000087008460078322805DD002008701448CF
:1023A00000781449087070BD1448007880B905F0B1
:1023B0001FFA1348007840B10020114908700D48F9
:1023C0000078401E0B49087002E001200C4908709B
:1023D0000A480078401C094908700846007814280B
:1023E00001DD0020087000BFDDE70000AC0F022017
:1023F000290100202C0100202D0100202A010020AD
:102400002B01002010B5044604EBC400454901EB44
:102410008000006804EBC401424A02EB810148607D
:1024200007F04CFC04EBC4013E4A02EB810108605A
:1024300004EBC400114601EB8000C07CC0F38010A7
:10244000B0B104EBC40001EB8000C07C20F0400080
:1024500004EBC40102EB8101C87404EBC400114613
:1024600001EB8000006804EBC40102EB8101C8604D
:1024700004EBC4002B4901EB8000806990B304EBAE
:10248000C401284A02EB81018869804758B304EBF4
:10249000C400244901EB8000C07C20F020002030E3
:1024A00004EBC4011F4A02EB8101C87404EBC400B1
:1024B000114601EB8000C07C20F08000803004EBEE
:1024C000C40102EB8101C87404EBC400114601EBA6
:1024D0008000006A28B304EBC40102EB8101086AA2
:1024E00080471EE00FE0FFE704EBC4000D4901EB5D
:1024F0008000C07C20F0800004EBC401094A02EB9C
:102500008101C8740DE004EBC400064901EB8000B2
:10251000C07C20F0800004EBC401024A02EB810180
:10252000C87410BDAC0F022010B58CB00446302228
:1025300058496846FDF732FF00209EE000EB40015D
:102540003DF8112000EBC001534B03EB8101098AD8
:1025500062F30B0100EBC00203EB8202118200EB7D
:1025600040016A4602EB41014A8800EBC00103EBDF
:102570008101B1F8111062F30F1100EBC00203EBFF
:102580008202A2F8111000EB40016A4602EB410101
:10259000097900EBC00203EB8202D27C61F34402B2
:1025A00000EBC00103EB8101CA74002100EBC00203
:1025B00003EB8202916100EBC00203EB8202D16166
:1025C00000EBC00203EB8202116200EBC0011A466D
:1025D00002EB8101C97C21F00101491C00EBC00222
:1025E00003EB8202D17400EBC0011A4602EB8101B9
:1025F000C97C21F02001203100EBC00203EB8202F4
:10260000D17400EBC0011A4602EB8101C97C21F0B4
:102610004001403100EBC00203EB8202D17400EBB9
:10262000C0011A4602EB8101C97C21F08001803192
:1026300000EBC00203EB8202D1749FED180A10EE8A
:10264000101A00EBC00203EB8202516100EBC001E3
:102650001A4602EB81010C6000EBC00102EB810124
:102660004C6000EBC00102EB81018C6000EBC0010B
:1026700002EB8101CC60411CC8B20828FFF65EAFB6
:102680000748054988610748C861074808620CB0D7
:1026900010BD0000ACA40008AC0F02200000000038
:1026A000C14700081D8900082789000807F006FBBC
:1026B0009E49086008460068FFF736FF392006F09B
:1026C00041FC32E107F0FAFA98490860082098497D
:1026D0000870984890F8330120F04001954880F840
:1026E000331190F8330120F02001924880F8331123
:1026F000002409E104EBC4008E4901EB8000C07C9A
:1027000000F0010000B9FEE004EBC400894901EBD0
:102710008000006885490968081A04EBC401854AED
:1027200002EB8101098AC1F30B01884260D904EBF5
:10273000C400114601EB8000C07CC0F3401008BB10
:1027400004EBC40001EB8000C07C20F0400040306E
:1027500004EBC40102EB8101C87404EBC400114610
:1027600001EB8000C07C20F02000203004EBC4018D
:1027700002EB8101C8746D48006804EBC40102EBF0
:102780008101886004EBC4006A4901EB8000C07CD1
:10279000C0F343006649097801EBC101654A02EBC9
:1027A0008101C97CC1F34301884201DD60490C709D
:1027B000604890F8330120F0400040305D4981F8D6
:1027C0003301084690F8330120F02000203081F8D2
:1027D000330104EBC40001EB8000C069002806D07F
:1027E00004EBC401534A02EB8101C869804789E0C8
:1027F00004EBC4004F4901EB8000C0684B490968F5
:10280000081A04EBC4014B4A02EB8101B1F8111024
:10281000B0EB111F1BD204EBC400114601EB80008A
:10282000C07C20F0400004EBC40102EB8101C874BD
:1028300004EBC400114601EB8000C07C20F02000B6
:10284000203004EBC40102EB8101C8745AE004EBB0
:10285000C400384901EB8000C07C20F0400004EB4C
:10286000C401344A02EB8101C87404EBC400114670
:1028700001EB8000C07CC00968B104EBC40001EB2F
:102880008000C07C20F02000203004EBC40102EB6B
:102890008101C8740DE004EBC400264901EB8000FF
:1028A000C07C20F0200004EBC401224A02EB81012D
:1028B000C87404EBC4001F4901EB8000006804EBFE
:1028C000C4011C4A02EB8101496888421AD904EB11
:1028D000C400114601EB8000006804EBC40102EB68
:1028E00081014968401A00EE100AF8EE400A9FED97
:1028F000121A81EE200A10EE100A04EBC40102EB5A
:102900008101486100BF641C082CFFF6F3AE084942
:102910000978491CC8B2FFF70DFD0A2006F012FB2A
:10292000002006F0B9F905490860CBE62401002033
:1029300028010020AC0F022000007A442001002072
:1029400010B54FF4807000F011F840B14FF4807072
:1029500000F006F804F088FF172002F0CDF810BD53
:102960000149086070470000143C01400146002006
:10297000034A12680A400AB1012000E000207047B3
:10298000143C0140002123498279002A3AD00A46AA
:10299000126803689A430B461A600A1D126803689E
:1029A0009A430B1D1A60027911440A6803681A439E
:1029B0000A60184A0832126803689A43154B0833B4
:1029C0001A601A1D126803689A43124B0C331A607E
:1029D0004279102A0ED11A1F126803681A430D4B50
:1029E00008331A601A1D126803681A43094B0C3326
:1029F0001A600DE00749427911440A6803681A43D6
:102A00000A6005E0027911440A6803689A430A6083
:102A100070470000003C0140C92006F093FA00F026
:102A2000F5FC04E0012006F08DFA00F0FFFD012026
:102A300006F09AF80028F5D1022006F095F8002853
:102A4000F0D1032006F090F80028EBD10FE000F061
:102A500017FF00F0EBFD00F0F3F800F0B1FD0120EE
:102A600006F070FA002006F017F901490860EEE759
:102A70003801002000B585B00121022001F02EFDB3
:102A80000121880301F05AFD0821012002F02CF9F0
:102A90004FF48070009000208DF8040001208DF824
:102AA000060000208DF8070003208DF80500694618
:102AB000114800F023F84FF48070029000208DF848
:102AC0000C0008208DF80D0001208DF80E0002A8E2
:102AD000FFF758FF17208DF8100005208DF8110022
:102AE00000208DF8120001208DF8130004A801F0D9
:102AF00065FB05B000BD000000040240F0B50A46C9
:102B000000210023002400BF3DE0012505FA01F368
:102B1000156805EA03049C4234D105684F0003267A
:102B2000BE40B543056015794E00B5400668354393
:102B300005601579012D02D01579022D16D1856811
:102B40004F000326BE40B543856055794E00B54021
:102B5000866835438560456801268E40B5434560EB
:102B6000456896798E40B6B235434560C5684F00DA
:102B70000326BE40B543C560D5794E00B540C66852
:102B80003543C560491C1029BFD3F0BDF0B5002303
:102B900000244D07ED0E02FA05F3CE1000F12005DA
:102BA00055F826504E07F70E0F26BE40B543CF10FE
:102BB00000F1200646F82750CE1000F1200555F808
:102BC000265045EA0304CE1000F1200545F82640C2
:102BD000F0BD418370470183704742694A404261BA
:102BE0007047000030B5034613B94FF6FF7030BD93
:102BF00009E013F8014B82EA0400C0B2054D35F834
:102C0000100080EA2222081EA1F10101F1D1104634
:102C1000EDE7000084A2000830B5034605E013F894
:102C2000010B80EA02040448025D081EA1F10105BF
:102C3000A9B2F4D1104630BD83A10008704700004E
:102C400010B586B09FED6F0A8DED050A9FED6D0AF8
:102C50008DED040A002402A903A804F02BFB6946A9
:102C600001A804F0B1FA02F0A3FF04466648807B95
:102C7000022800D044B19DED010A8DED050A9DEDBD
:102C8000000A8DED040A07E09DED030A8DED050AAB
:102C90009DED020A8DED040A5B48407B48B1012896
:102CA0000AD0022812D003281AD1FFF7C7FF06B0B6
:102CB00010BD00F043FC13E0224605A904A800F073
:102CC00029FA5148303004F0C9FA09E0224605A932
:102CD00004A800F0A3F84C48303004F0BFFA00BF5D
:102CE00000BF494890F8B600002874D146494969A8
:102CF0000888454A603241F2245103F043FB4249BF
:102D0000496E0888404AB03241F2F87103F03AFB4C
:102D10003D4890ED140ADFED3D0AB4EEE00AF1EE15
:102D200010FA08DC90ED140ADFED390AB4EEE00A7F
:102D3000F1EE10FA13D2344890ED140AB5EEC00A41
:102D4000F1EE10FA02D29FED330A01E09FED320A54
:102D50008DED040A9FED2B0A8DED050A2AE02A4825
:102D600090ED280ADFED290AB4EEE00AF1EE10FA40
:102D700008DC90ED280ADFED260AB4EEE00AF1EE59
:102D800010FA13D29FED1F0A8DED040A1E4890ED34
:102D9000280AB5EEC00AF1EE10FA02D29FED1D0A24
:102DA00001E09FED1D0A8DED050A03E001201649A3
:102DB00081F8B600144890ED0C0ADDED040A30EEFF
:102DC000200A80ED0C0A90ED200ADDED050A30EEB8
:102DD000200A80ED200A0C4890ED2A0ABDEEC00AB8
:102DE00010EE100A01B20848A0F8AE1090ED160AD5
:102DF000BDEEC00A10EE100A01B20348A0F85E1042
:102E000000BF54E700000000F0100220CDCCCC3D04
:102E1000CDCCCCBD17B7513A17B751BA70B50446EF
:102E20000D461646AF4890ED0C0AD4ED000A30EE80
:102E3000200A80ED0C0A90ED200AD5ED000A30EE54
:102E4000200A80ED200A807B07283ED2DFE800F0D0
:102E500004FD3EFCB4FBFA00A24890ED0C1AF0EE23
:102E6000410A90ED0A1AB0EE410A9F4801F00EFAAD
:102E70009C4880ED110A90ED111AF0EE410A90ED98
:102E8000101AB0EE410A994801F000FA954880ED19
:102E9000160A90ED201AF0EE410A90ED1E1AB0EEDF
:102EA000410A934801F0F2F98E4880ED250A90ED31
:102EB000251AF0EE410A90ED241AB0EE410A8D4831
:102EC00001F0E4F9874880ED2A0A09E1CEB385488C
:102ED00090ED0C1AF0EE410A90ED0A1AB0EE410A9C
:102EE000854801F0D3F97F4880ED110A90ED111A61
:102EF000F0EE410A90ED101AB0EE410A7F4801F061
:102F0000C5F9784880ED160A90ED201AF0EE410AD6
:102F100090ED1E1AB0EE410A794801F0B7F97148F8
:102F200080ED250A90ED251AF0EE410A90ED241A65
:102F3000B0EE410A734801F0A9F96A4880ED2A0A07
:102F400039E0FFE7674890ED0C1AF0EE410A90ED8A
:102F50000A1AB0EE410A644801F098F9614880ED20
:102F6000110A90ED111AF0EE410A90ED101AB0EE30
:102F7000410A5E4801F08AF95A4880ED160A90ED40
:102F8000201AF0EE410A90ED1E1AB0EE410A5848A0
:102F900001F07CF9534880ED250A90ED251AF0EEFA
:102FA000410A90ED241AB0EE410A524801F06EF940
:102FB0004C4880ED2A0A93E04A4890ED1E0AF7EE4D
:102FC000080AB4EEE00AF1EE10FA6CD290ED1E0A97
:102FD000FFEE080AB4EEE00AF1EE10FA63DD90EDC0
:102FE0001E0ADFED490AB4EEE00AF1EE10FA0BD248
:102FF00090ED1E0ADFED450AB4EEE00AF1EE10FA9C
:1030000002DD002037498873364890ED0C0ADFED69
:10301000400A30EE200A80ED0C0A90ED200ADFED28
:103020003A0A30EE200A80ED200A90ED0C1AF0EEFC
:10303000410A90ED0A1AB0EE410A2B4801F026F938
:10304000284803E034E032E045E043E080ED110A37
:1030500090ED111AF0EE410A90ED101AB0EE410A0F
:10306000224801F013F91F4880ED160A90ED201A4E
:10307000F0EE410A90ED1E1AB0EE410A1C4801F034
:1030800005F9184880ED250A90ED251AF0EE410A61
:1030900090ED241AB0EE410A164801F0F7F81148F5
:1030A00080ED2A0A02E000200E49887318E017E03C
:1030B0000C4890ED0C0ADFED160A30EE200A80ED88
:1030C0000C0A90ED200ADFED120A30EE200A80EDA6
:1030D000200A05E000BF0348007C0249887300BF56
:1030E00000BF70BDF0100220AC020020640200207E
:1030F0008C010020440100200C060020C4050020A3
:10310000EC040020A4040020CDCCCC3DCDCCCCBD23
:103110000000000070B504460D461646AD4890ED1F
:103120000C0AD4ED000A30EE200A80ED0C0A90ED76
:10313000220AD5ED000A30EE200A80ED220A807BBB
:1031400007283ED2DFE800F004B43EF2F0EFEE00D4
:10315000A04890ED0C1AF0EE410A90ED0A1AB0EE7C
:10316000410A9D4801F092F89A4880ED110A90EDCD
:10317000111AF0EE410A90ED101AB0EE410A97488C
:1031800001F084F8934880ED160A90ED221AF0EED3
:10319000410A90ED211AB0EE410A914801F076F80B
:1031A0008C4880ED250A90ED251AF0EE410A90ED4D
:1031B000241AB0EE410A8B4801F068F8854880ED8A
:1031C0002A0A05E1CEB3834890ED0E1AF0EE410ACB
:1031D00090ED0D1AB0EE410A834801F057F87D4892
:1031E00080ED110A90ED111AF0EE410A90ED101ADF
:1031F000B0EE410A7D4801F049F8764880ED160AA4
:1032000090ED221AF0EE410A90ED211AB0EE410A3B
:10321000774801F03BF86F4880ED250A90ED251ABC
:10322000F0EE410A90ED241AB0EE410A714801F027
:103230002DF8684880ED2A0A39E0FFE7654890EDEF
:103240000E1AF0EE410A90ED0D1AB0EE410A6248F6
:1032500001F01CF85F4880ED110A90ED111AF0EEB4
:10326000410A90ED101AB0EE410A5C4801F00EF8E8
:10327000584880ED160A90ED221AF0EE410A90EDC2
:10328000211AB0EE410A564801F000F8514880ED8D
:10329000250A90ED251AF0EE410A90ED241AB0EEC1
:1032A000410A4F4800F0F2FF4A4880ED2A0A8FE0B9
:1032B000484890ED0C1AF0EE410A90ED0A1AB0EE73
:1032C000410A454800F0E2FF424880ED110A90EDC6
:1032D000111AF0EE410A90ED101AB0EE410A3F4883
:1032E00000F0D4FF3B4880ED160A90ED201AF0EE76
:1032F000410A90ED1E1AB0EE410A3F4800F0C6FFA9
:10330000344880ED250A90ED251AF0EE410A90ED43
:10331000241AB0EE410A394800F0B8FF2D4880ED7C
:103320002A0A55E03CE04DE04DE0FFE7294890EDEA
:103330000C1AF0EE410A90ED0A1AB0EE410A2A4842
:1033400000F0A4FF234880ED110A90ED111AF0EE71
:10335000410A90ED101AB0EE410A244800F096FFA1
:103360001C4880ED160A90ED201AF0EE410A90ED0F
:103370001E1AB0EE410A224800F088FF154880ED81
:10338000250A90ED251AF0EE410A90ED241AB0EED0
:10339000410A1C4800F07AFF0E4880ED2A0A17E027
:1033A0000C4890ED0E0ADFED180A30EE200A80ED91
:1033B0000E0A90ED220ADFED140A30EE200A80EDAD
:1033C000220A05E000BF0348007C0249887300BF61
:1033D00000BF70BDF0100220AC020020640200208B
:1033E0001C020020D40100200C060020C40500208F
:1033F0007C050020340500209C0600205406002097
:103400002C070020E40600200000000010B5484909
:10341000B7EE000A474803F0E1FC4749B7EE000A5F
:103420004448503003F0DAFC03F09CFE414918395F
:10343000086003F00FFE3F491839486603F006FEA6
:103440003C491839486103F0F5FD3A49183988605C
:1034500008464069008981B236481838A0F84810FB
:103460004069008800EE100AB8EE400A314818386A
:1034700080ED140A406E008981B22E481838A0F8F9
:103480009810406E008800EE100AB8EE400A2948F5
:10349000183880ED280A014649690888254A4832CB
:1034A00041F2245102F06EFF22491839496E088812
:1034B000204A983241F2F87102F064FF1D48183832
:1034C000806890ED000AB5EEC00AF1EE10FA05DB57
:1034D00001211848183880F8B11004E0002115487F
:1034E000183880F8B11013481838806890ED010A38
:1034F000B5EEC00AF1EE10FA05DB01210D481838CF
:1035000080F8611004E000210A48183880F8611042
:10351000002008491839A1F8B40081F8B60003F07A
:1035200079FD04491839486000F080F810BD0000AA
:10353000DCA4000808110220E0A400089FED1E0A88
:103540001E4880ED110A90ED140A80ED0B0A80ED03
:103550000A0A80ED0C0A90ED150A80ED0F0A80ED45
:103560000D0A80ED0E0A9FED140A80ED160A002167
:10357000A0F85E109FED100A80ED250A90ED280A54
:1035800080ED1F0A80ED1E0A80ED200A90ED290AC9
:1035900080ED230A80ED210A80ED220A9FED060AC4
:1035A00080ED2A0AA0F8AE100020044981F8B60088
:1035B000A1F8B4007047000000000000F0100220E5
:1035C00010B51648B0F8AE00154908801348B0F899
:1035D0005E0014490880012005F0C6FA38B10220C7
:1035E00005F0C2FA18B1032005F0BEFAA8B90B48DD
:1035F000407B30B900231A4619461846FDF78AFC6D
:103600000BE000230848B0F900200648B0F900108C
:103610000348B0F90000FDF77DFC10BDF01002205A
:103620003C0100203E0100204001002070B52DED3E
:10363000028B03F003FD044603F004FD05468B48AE
:10364000B0F9B40047F6FF71884205D08748B0F959
:10365000B40010F5004F22D1844890ED210AB0F952
:10366000B40000EE900AF8EEE00A9FED811A00EE39
:10367000C10A7E4880ED210A90ED230AB0F9B4001A
:1036800000EE900AF8EEE00A9FED791A00EEC10A0A
:10369000764880ED230A00207449A1F8B400734AEB
:1036A000B2F8481052691088704B603341F22452CE
:1036B00003F02EFB6D4880ED140A0246B2F8981014
:1036C000526E1088694BB03341F2F87203F020FB60
:1036D000664880ED280A94ED001AF0EE410A90ED5C
:1036E000271AB0EE410AB13003F022FE5F4880EDA8
:1036F000290A94ED011AF0EE410A90ED131AB0EE8A
:10370000410A613003F014FE584880ED150A407BF1
:10371000022849D19FED570AB0EE408A534890EDF8
:103720000A0A80ED0B0A90ED1E0A80ED1F0A90ED4B
:10373000140A80ED0A0A90ED280AB0F9B40040009E
:1037400000EE900AF8EEE00A9FED4B1A00EE810AB7
:10375000B0EE408A4548D0ED1F0AB0EE600AB430A2
:10376000F0EE480A02F048FF404880ED1E0A40692A
:10377000B0F9020000EE100AB8EEC00ADFED3F0A11
:1037800020EE200A394880ED100A406EB0F90200A0
:1037900000EE100AB8EEC00ADFED380A20EE200A6B
:1037A000324880ED240A42E03048407B012835D180
:1037B0009FED300AB0EE408A2C4890ED0A0A80ED69
:1037C0000B0A90ED210A80ED230A90ED290AB0F949
:1037D000B400400000EE900AF8EEE00A9FED261AD1
:1037E00000EE810AB0EE408A204890ED140A80ED88
:1037F0000A0AD0ED230AB0EE600AB430F0EE480AAF
:1038000002F0FAFE194880ED210A95ED000A80EDDC
:10381000240A95ED010A80ED100A08E0134890EDA6
:10382000250A80ED240A90ED110A80ED100A0F4858
:10383000406E01880D48A0F89810406901880B4837
:10384000A0F8481094ED000A80ED270A94ED010AD3
:1038500080ED130AB0F8AE10A0F8AC10B0F85E100E
:10386000A0F85C10BDEC028B70BD0000F0100220CF
:10387000DB0FC94000000000DB0F49402316493A26
:1038800070B5002400252D490968C87A05F019F99A
:1038900018B10020294908730CE028490968C87A42
:1038A00005F01CF918B101202449087302E000203A
:1038B000224908732148007BE8B920490968887AC1
:1038C00005F0FFF808B1022411E01C490968887A64
:1038D00005F004F908B1012409E018490968887A5B
:1038E000022801D1012100E0002101B100240020C3
:1038F000124988730DE011480068807DC0F3C01044
:1039000000B102240D480068807EC0F3801000B131
:1039100001250A4844738573407B0849C97B884266
:1039200004D0064A517BD07B03F07AFC0348407BED
:103930000249C8730846807B087470BDF0100220ED
:1039400000BFFEE7F0B50546059C00207FE093ED43
:10395000050A00EB4006404F07EB8606D6ED000A4D
:1039600020EE200AD3ED060A00EB400607EB8606A0
:1039700096ED011A00EE810AD3ED070A00EB40062E
:1039800007EB860696ED021A00EE810A334E06EB2F
:103990008006D6ED000A30EE200A05EB800686EDA3
:1039A000000A93ED010A00EB40062D4F07EB860657
:1039B000D6ED000A20EE200AD3ED020A00EB400605
:1039C00007EB860696ED011A00EE810AD3ED030A95
:1039D00000EB400607EB860696ED021A00EE810A20
:1039E000204E06EB8006D6ED000A30EE200A01EBF1
:1039F000800686ED000A94ED010A00EB40061A4F9E
:103A000007EB8606D6ED000A20EE200AD4ED020A66
:103A100000EB400607EB860696ED011A00EE810AE0
:103A2000D4ED030A00EB400607EB860696ED021A7A
:103A300000EE810A0D4E06EB8006D6ED000A30EE50
:103A4000200A02EB800686ED000A461CF0B203282D
:103A5000FFF67DAFF0BD00007C070020EC110220D6
:103A6000A0070020F8110220C40700201412022031
:103A700010B52DED028BB0EE408A2748007838B3A0
:103A800003F060FB00EE100AB8EEC00AF0EE408AC8
:103A9000F0EE680AB0EE480A204800F0F7FB1F4835
:103AA00090ED080AB5EEC00AF1EE10FA03D29FEDD0
:103AB0001C0A80ED080A194890ED080ABCEEC00AFD
:103AC00010EE100A84B22146164801F0E0FC20E016
:103AD00003F038FB00EE100AB8EEC00AB4EEC80AD4
:103AE000F1EE10FA10D210480078401C0E49087010
:103AF00008460078C82807DD0120074908709FEDB7
:103B00000B0A064880ED0A0A41F28731054801F0A8
:103B1000BEFCBDEC028B10BDE80700206012022045
:103B20000000000000040040EC07002000401C459D
:103B300008B5072005F006FA00BF03F0CBFE002809
:103B4000FBD100BF03F006FD0028FBD104F008F80C
:103B5000044606F051F8A5490860FEF78BFF1722CE
:103B6000A349A44801F002F801221146A24801F03D
:103B700085F801220221A04801F080F800211020E0
:103B800000F0A2FF31E100BF4FF0FF31012004F04F
:103B9000F7FF0128F8D199499548401C03F008FF28
:103BA00097499348103003F01DFD9548934B954A73
:103BB000954900909548FFF7C5FE9048007800F0C1
:103BC0000100002846D092480078E8BB012141F26C
:103BD000883001F0A1F9DFED8F0A9FED8F0A8F4A3F
:103BE00001218F4800F04AFC864A87498D48FCF73E
:103BF000C1FD8D4B1A1F111F8A4803F02FFA82480E
:103C000090ED000A894880ED000A894880ED000A9D
:103C1000884880ED000A7C4890ED010A834880EDD9
:103C2000010A834880ED010A824880ED010A764846
:103C300090ED020A7D4880ED020A7D4880ED020A7F
:103C40007C4880ED020A00E005E071480078401CE5
:103C50006F490870BBE0764890ED000A754880ED2A
:103C6000000A724890ED000A714880ED000A90ED5C
:103C7000000A7148D0ED000A20EE200A6D48D0ED10
:103C8000000A6D4890ED011A00EE810A5E48D0ED01
:103C9000000A694890ED021A00EE810A634880ED3F
:103CA000000A634890ED010A624880ED010A5F480E
:103CB00090ED010A5E4880ED010A90ED010A5E4830
:103CC000D0ED000A20EE200A5A48D0ED010A5A48E9
:103CD00090ED011A00EE810A4B48D0ED010A5648DA
:103CE00090ED021A00EE810A504880ED010A50481A
:103CF00090ED020A4F4880ED020A4C4890ED020A0E
:103D00004B4880ED020A90ED020A4B48D0ED000AC4
:103D100020EE200A4748D0ED020A474890ED011AEC
:103D200000EE810A3848D0ED020A434890ED021AAD
:103D300000EE810A3D4880ED020A324B02463349CB
:103D40009FED3E0A3748FCF78DFE374B1A1F111FB7
:103D5000344803F083F93A480088B8B9394890EDFF
:103D6000000A394880ED000A364890ED010A3648CD
:103D700080ED010A334890ED020A334880ED020AD3
:103D80002F480088401C2E49088020E02C480088DD
:103D9000B0F5FA7F0FDA42F210715F2002F01EFCDC
:103DA0002A48007898B115480278254B17492648CB
:103DB00003F014FB0BE022480088B0F5FA7F06D12F
:103DC00002F004FC1E480088401C1D4908800B4876
:103DD000D0ED040AB0EE600AFFF74AFE00F03AF8B0
:103DE000002004F059FF1A490860CCE6740700204F
:103DF000A8110220E4A4000800500140C0110220D4
:103E000004120220381202202C120220201202205A
:103E1000E90700200080894500A08C45FCA400082B
:103E200060120220501202204C120220E4120220E2
:103E3000D8120220CC12022008A500086F12833A83
:103E4000EA070020E0110220EC110220E807002020
:103E5000780700201B4890ED000A1B4880ED000AFF
:103E6000184890ED010A184880ED010A154890EDB8
:103E7000020A154880ED020A144890ED000A124823
:103E800080ED030A114890ED010A0F4880ED040A05
:103E90000E4890ED020A0C4880ED050A0C4890EDA2
:103EA000000A094880ED060A094890ED010A064813
:103EB00080ED070A064890ED020A034880ED080AE3
:103EC0007047000044120220A81202202012022093
:103ED0002C12022070B506460C461546154800788F
:103EE00038B3288888B9144890ED000A134880ED4B
:103EF000000A114890ED010A104880ED010A0E48B1
:103F000090ED020A0D4880ED020A0D4802782B461A
:103F10000C490A4803F062FA084890ED000A84ED63
:103F2000000A90ED010A84ED010A90ED020A84ED89
:103F3000020A70BDE8070020E0110220EC11022007
:103F4000C01102202012022091ED000A054A82EDE4
:103F5000000A91ED010A82ED010A91ED020A82ED5B
:103F6000020A7047E011022070B5044600250026C1
:103F70002078A52878D10521204601F01BFD0028D6
:103F800072D0607800F109052946204601F0F2FC64
:103F9000002869D0A079617940EA0126B6F5017F51
:103FA0004FD026DCB6F5817F40D010DC042E3AD00D
:103FB00006DC012E34D0022E33D0032E53D131E053
:103FC000052E31D0A6F2011000284CD12DE040F290
:103FD0000121701A8E422CD006DCB6F5827F26D0E5
:103FE000A6F20510F8B923E0012828D002283AD11A
:103FF00026E040F20A21701A8E422ED008DCA6F28A
:10400000052005282FD2DFE800F01D1E1F25270000
:10401000F738052827D2DFE800F0212223242500E5
:1040200021E020E01FE01EE01DE01CE01BE01AE0A4
:1040300019E06278E11D0D48FCF7B0F913E012E0D9
:1040400011E010E00FE00EE06278E11D0848FCF797
:10405000A5F908E007E007E005E004E003E002E07E
:1040600001E000E000BF00BF70BD00000E130220A1
:104070001508002000B58FB00121480500F02EFA88
:104080001748FEF70BF84FF02060009000200390D7
:10409000144801901448029000200390642004907A
:1040A000002005904FF48060069000200790089053
:1040B0004FF4807009904FF440300A9004200B9028
:1040C00003200C9000200D900E9069460448FEF7E6
:1040D00001F901210248FDF7D5FF0FB000BD000036
:1040E000A0600240047C00408C0B022000B587B029
:1040F0000121102000F0F2F90121C80700F0FEF9BB
:10410000082200212948FEF741FD08220121274805
:10411000FEF73CFD02208DF8080000208DF80A0013
:104120000320019001208DF80B0003208DF8090079
:1041300001A91E48FEF7E2FC4FF4E1300390002095
:10414000ADF81000ADF81200ADF814000C20ADF879
:1041500016000020ADF8180003A9154801F098FBDF
:104160000121134801F0B7FA012240F2244110481E
:1041700001F068FB012240210D4801F0B8FA01224C
:1041800080210B4801F0B3FAFFF774FF53208DF83C
:10419000000000208DF801008DF8020001208DF84C
:1041A0000300684600F00AF807B000BD00100240A6
:1041B000007C004000BFFEE77047000070B50021A2
:1041C00000230F22C4781CB3174C246804F4E06465
:1041D000C4F5E064C4F30721C1F10404E3B20A4169
:1041E00044789C40E1B28478144021430C07210EAE
:1041F0000E4C05786155047804F01F050124AC408D
:1042000005786D11AD0005F1E025C5F8004109E024
:10421000047804F01F050124AC40054D06787611A2
:1042200045F8264070BD00000CED00E000E400E021
:1042300080E100E002490143024A1160704700003A
:104240000000FA050CED00E01CB50121302000F063
:1042500045F90320009001208DF8040000208DF81E
:10426000060002208DF8050001208DF80700694640
:104270000448FEF743FC3020009069460248FEF7F0
:104280003DFC1CBD0014024000100240B0EE401A7C
:1042900010B99FED790A704790ED100A80ED110A70
:1042A00090ED0F0A80ED100AC0ED060A80ED071AA6
:1042B00030EEC10A80ED0F0A0178002975D190ED2A
:1042C000010AD0ED0F1A20EE210A80ED090A90EDC7
:1042D0000A0AD0ED021A90ED0F2A01EE820A80ED53
:1042E0000A0A90ED0D0A80ED0E0A90ED0C0A80EDA1
:1042F0000D0A90ED0F0AD0ED101A30EE610A80ED34
:104300000C0A90ED030AD0ED0C1A20EE210A80ED84
:104310000B0A90ED0A0AD0ED051AB4EEE10AF1EEAF
:1043200010FA04DD90ED050A80ED0A0A10E090ED28
:104330000A0AD0ED051AF1EE611AB4EEE10AF1EEC7
:1043400010FA05D290ED050AB1EE400A80ED0A0A96
:1043500090ED090AD0ED0A1A30EE210AD0ED0B1AC1
:1043600030EE210A80ED080A90ED080AD0ED041A1B
:10437000B4EEE10AF1EE10FA04DD90ED040A80EDEE
:10438000080A76E090ED080AD0ED041AF1EE611A01
:10439000B4EEE10AF1EE10FA6BD290ED040AB1EE40
:1043A000400A80ED080A64E0FFE70178012960D146
:1043B00090ED0F0AD0ED101A30EE610AD0ED011A1F
:1043C00020EE210A80ED090A90ED020AD0ED0F1AC5
:1043D00020EE210A80ED0A0A90ED0D0A80ED0E0A0A
:1043E00090ED0C0A80ED0D0A90ED0F0AD0ED101A39
:1043F000B0EE002A02EE610AD0ED111A30EE210A69
:1044000080ED0C0A90ED030AD0ED0C1A20EE210A83
:1044100080ED0B0A90ED090AD0ED0A1A30EE210A60
:10442000D0ED0B1A30EE210AD0ED081A30EE210A39
:1044300080ED080A90ED080AD0ED041AB4EEE10A06
:10444000F1EE10FA04DD90ED040A80ED080A10E0A8
:1044500090ED080AD0ED041AF1EE611AB4EEE10A0B
:10446000F1EE10FA05D290ED040AB1EE400A80EDAB
:10447000080A90ED080A0EE70000000000B102B93A
:104480007047017092ED001A80ED011A92ED011A49
:1044900080ED021A92ED021A80ED031A80ED040AF3
:1044A000C0ED050A9FED0C1A80ED0E1A80ED0D1A75
:1044B00080ED0C1A9FED081A80ED081A80ED0B1A9A
:1044C00080ED0A1A80ED091A80ED111A80ED101A9C
:1044D00080ED0F1A00BFD3E70000000029B1064AA3
:1044E00012680243044B1A6004E0034A12688243D4
:1044F000014B1A60704700003038024029B1064A6B
:1045000012680243044B1A6004E0034A12688243B3
:10451000014B1A60704700004038024029B1064A3A
:1045200012680243044B1A6004E0034A1268824393
:10453000014B1A60704700002038024029B1064A3A
:1045400012680243044B1A6004E0034A1268824373
:10455000014B1A60704700004438024029B1064AF6
:1045600012680243044B1A6004E0034A1268824353
:10457000014B1A607047000024380240F0B500215A
:1045800000220024022500260223324F3F6807F054
:104590000C0121B1042905D0082937D105E02E4F9F
:1045A000076036E02D4F076033E02A4F3F1F3F681A
:1045B000C7F38056274F3F1F3F6807F03F036EB198
:1045C000264FB7FBF3F7DFF88CC0ACF1040CDCF836
:1045D00000C0CCF3881C07FB0CF40CE01E4FB7FBAB
:1045E000F3F7DFF870C0ACF1040CDCF800C0CCF3DA
:1045F000881C07FB0CF4174F3F1F3F68C7F30147A8
:104600007F1C7D00B4FBF5F7076002E0124F0760E6
:1046100000BF00BF0F4F3F6807F0F0010909104FBE
:104620007A5C0768D74047600A4F3F6807F4E0515B
:10463000890A0B4F7A5C4768D7408760054F3F680F
:1046400007F46041490B064F7A5C4768D740C76062
:10465000F0BD0000083802400024F400001BB70041
:104660001400002070B590B004460E461546012196
:104670004A48FFF733FF01211020FFF75FFF0121B8
:104680001020FFF76BFF00211020FFF767FF0722C4
:1046900011464348FEF77AFA80200E9002208DF8EA
:1046A0003C0000208DF83E0003208DF83D000020E6
:1046B0008DF83F000EA93A48FEF720FA394801F07C
:1046C0001FF839480A900020ADF82C00ADF82E00F4
:1046D0004FF48060ADF830000420ADF832000020C7
:1046E000ADF834000AA92F4801F0D2F80122402188
:1046F0002C4800F0FCFF10212A4800F0E3FF0122C3
:1047000040F22441274801F09DF80121254800F09E
:10471000E2FF25208DF83C0004208DF83D000020AC
:104720008DF83E0001208DF83F000FA8FFF746FDF1
:104730001E48FDF7B3FC4FF0006001901948001DC2
:104740000290039400200490059506904FF4806039
:1047500007900020089009904FF480700A904FF461
:1047600040300B9000200C900D900E900F9001A9FE
:104770000E48FDF7AFFD002231460C48FDF745FD20
:1047800001210A48FDF736FD00210848FDF77AFCB3
:1047900001210648FDF776FC10B070BD0200400014
:1047A0000004024000100140A08601004064024065
:1047B0000146002901DD08467047484200B2FBE788
:1047C00010B52449B1F90000FFF7F2FFB0F52F7FD3
:1047D00000DD24E01F49B1F90200FFF7E9FFB0F561
:1047E0002F7F00DD1BE01B49B1F90400FFF7E0FF5C
:1047F000B0F52F7F00DD12E01649B1F90600FFF792
:10480000D7FFB0F52F7F00DD09E01248807A00B9AC
:1048100005E01048C07A00B901E0002010BD00207A
:104820000C49088048808880C880088102208872EE
:1048300002210848C17200200649888100210548EC
:10484000C18101828174C1740020024988820120E3
:10485000E4E700002A13022010B5044600211048A6
:1048600000F039FF00210F48FDF70CFC21460D48F0
:10487000FDF75CFD10210A4800F024FF4FF0815144
:104880000848FDF7CBFB08490648FDF7E1FB01218D
:104890000448FDF7F7FB0121014800F01CFF10BDA3
:1048A00000100140406402400080201010B500213B
:1048B000014800F010FF10BD0010014070B5054622
:1048C0000C4605B104B970BD2878697840EA01202A
:1048D000C0F30A0020806878C010A97840EA41102F
:1048E000C0F30A006080A8788011E97840EA81006E
:1048F000297940EA8120C0F30A00A080287940107D
:10490000697940EAC110C0F30A00E0806879C0F319
:104910000110A072687900118108E172A879E97923
:1049200040EA012000B2A081287A697A40EA012099
:1049300001B2E181A87AE97A40EA012001B221823C
:10494000297BA174697BE174A87BE97B40EA0120A3
:10495000A082287C697C40EA012000B22081208866
:10496000A0F5806000B220806088A0F5806000B271
:104970006080A088A0F5806000B2A080E088A0F5EB
:10498000806000B2E0802089A0F5806000B22081C4
:10499000B4F900000A2806DCB4F9000010F10A0F8F
:1049A00001DB00202080B4F902000A2806DCB4F9FB
:1049B000020010F10A0F01DB00206080B4F904004E
:1049C0000A2806DCB4F9040010F10A0F01DB00200C
:1049D000A080B4F906000A2806DCB4F9060010F13C
:1049E0000A0F01DB0020E080B4F908000A2806DC89
:1049F000B4F9080010F10A0F01DB002020812046E5
:104A000002F032FE00BF5EE700B587B00121202032
:104A1000FFF764FD01210805FFF790FD4FF460707A
:104A2000059002208DF8180000208DF81A00012052
:104A30008DF81B0003208DF8190005A92048FEF70A
:104A40005DF8052207211E48FEF7A0F8052208217F
:104A50001B48FEF79BF8052209211948FEF796F836
:104A600001210805FFF77AFD00214FF48010FFF7C0
:104A700075FD0020ADF800004FF48270ADF8020023
:104A80000020ADF804000220ADF806000120ADF8CA
:104A900008004002ADF80A003820ADF80C000020F4
:104AA000ADF80E000720ADF810006946054800F08B
:104AB000FCF80121034800F0D5F807B000BD000064
:104AC00000140240005001400A4A12884FF2C77396
:104AD0001A40084B1A801A46128802431A801A4656
:104AE00012880A431A801A46128842F040021A803D
:104AF000704700000050014010B5044600211848DE
:104B0000FDF7C0FA002116481830FDF7BBFA00BFC8
:104B10001348FDF786FB0028FAD100BF1048183073
:104B2000FDF77FFB0028F9D10E490D481830FDF73D
:104B300075FA0D490A48FDF771FA21460848FDF754
:104B4000F5FB214606481830FDF7F0FB012104482B
:104B50001830FDF797FA01210148FDF793FA10BDCF
:104B600070640240000C00203000002070B590B04E
:104B700005460E46144601218805FFF7AFFC442088
:104B80008DF83C0005208DF83D0000208DF83E009A
:104B900001208DF83F000FA8FFF710FB2F48FDF70D
:104BA0007DFA00BF2D48FDF73CFB0028FAD14FF0FD
:104BB000606000902A4801900296002003900494BF
:104BC00005904FF4806006900020079008900990AF
:104BD0004FF440300A9000200B900C900D900E90F6
:104BE00069461E48FDF776FB012210211B48FDF7A0
:104BF00053FB00211948FDF745FA18481838FDF70E
:104C00004DFA00BF15481838FDF70BFB0028F9D105
:104C10004FF0806000901248019002954020039070
:104C20000494002005904FF48060069000200790C7
:104C3000089009904FF480300A9000200B900C905F
:104C40000D900E90694605481838FDF743FB00218A
:104C500002481838FDF716FA10B070BD886402409B
:104C60000C50014021B1028842F04002028004E071
:104C700002884FF6BF731A40028070471AB18388CA
:104C80000B43838002E083888B4383807047024616
:104C9000002013890B400BB1012000E00020704779
:104CA0000146888970478181704710B500220288CB
:104CB00002F441520B884C8823438C882343CC88D0
:104CC00023430C8923434C8923438C892343CC8978
:104CD00023431A430280838B4FF2FF742340838364
:104CE0000B8A038210BD000030B500228B071C0F19
:104CF0000F2303FA04F20B4B8C1053F82430934328
:104D0000084C8D1044F8253023468C1053F824307D
:104D10008C07240F00FA04F42343024C8D1044F84E
:104D2000253030BD083801400CB5002001900090BE
:104D30004148006840F480303F49086000BF3E4869
:104D4000006800F4003000900198401C0190009829
:104D500018B90198B0F5A04FF1D13748006800F4B8
:104D6000003010B10120009001E000200090009878
:104D7000012860D130484030006840F080502E4912
:104D8000403108602D48006840F440402B490860DD
:104D9000294808300068284908310860084600683A
:104DA00040F4004008600846006840F4A0500860E5
:104DB0002348091F0860081F006840F08070091F21
:104DC000086000BF1C48006800F000700028F9D09F
:104DD0001A48006840F480301849086000BF17483E
:104DE000406800F480300028F9D01448006840F48E
:104DF00000301249086000BF1048406800F40030DD
:104E00000028F9D040F205700E4908600A480830C1
:104E1000006820F00300084908310860084600686F
:104E200040F00200086000BF03480830006800F04E
:104E30000C000828F8D10CBD00380240007000407A
:104E4000062D4008003C0240042808D14FF0E02124
:104E5000096941F004014FF0E022116107E04FF0D1
:104E6000E021096921F004014FF0E022116170474F
:104E700010B504F013FF012801D004F06BFB10BD46
:104E800010B51548006840F47000134908601348D5
:104E9000006840F001001149086000200F49083106
:104EA00008600E4800680E4908400C4908600D482B
:104EB000091D0860081F006820F48020091F086091
:104EC000002006490C310860FFF72EFF4FF000600C
:104ED00001498039086010BD88ED00E000380240CB
:104EE000FFFFF6FE1030002410B50121084800F045
:104EF000C1F960B10121064800F0D6F80548026802
:104F00004068521C40F1000002490A60486010BD30
:104F1000000400403001002030B58BB005460C463F
:104F200001210220FFF7EAFA01210220FFF7D6FA59
:104F3000022205212D48FDF729FE01210220FFF75D
:104F4000EDFA00210220FFF7E9FA1D208DF8140088
:104F500005208DF8150000208DF8160001208DF831
:104F6000170005A8FFF72AF9681E0990601E80B295
:104F7000ADF820000020ADF82200ADF82800012295
:104F800011461B4800F087F908A9194800F084FA77
:104F90002020069002208DF81C0003208DF81D00B3
:104FA00000208DF81E0002208DF81F0006A90F4872
:104FB000FDF7A4FD6020ADF800000120ADF802006F
:104FC0000020ADF80C006946094800F0B5F9082149
:104FD000074800F003FA0121054800F059F80121C3
:104FE000034800F064F80BB030BD0000000402403C
:104FF0000004004010B50121064800F03BF938B12B
:105000000121044800F050F80021024800F04FF858
:1050100010BD0000001000407FB505460C46012180
:105020001020FFF76BFA01211020FFF777FA00211B
:105030001020FFF773FA154800F054F8681E02902C
:10504000601E80B2ADF804000020ADF80600ADF897
:105050000C0001A90D4800F01FFA012211460B486F
:1050600000F019F936208DF8000004208DF80100B9
:1050700000208DF8020001208DF803006846FFF73C
:105080009DF80121014800F012F87FBD001000409A
:1050900021B1028842F08002028004E002884FF6CB
:1050A0007F731A4002807047CA430282704721B161
:1050B000028842F00102028004E002884FF6FE738B
:1050C0001A400280704731B1B0F8442042F40042E7
:1050D000A0F8442005E0B0F84420C2F30E02A0F886
:1050E0004420704710B504465548844208D1012138
:1050F0000846FFF733FA00210120FFF72FFA9DE061
:10510000B4F1804F08D101210846FFF707FA0021CA
:105110000120FFF703FA91E04A48844208D10121B7
:105120000220FFF7FBF900210220FFF7F7F985E0E5
:105130004548844208D101210420FFF7EFF90021FE
:105140000420FFF7EBF979E04048844208D10121BF
:105150000820FFF7E3F900210820FFF7DFF96DE0F1
:105160003B48844208D101211020FFF7D7F90021E4
:105170001020FFF7D3F961E03648844208D10121BD
:105180002020FFF7CBF900212020FFF7C7F955E0D9
:105190003148844208D101210220FFF7DFF90021C4
:1051A0000220FFF7DBF949E02C48844209D10121B4
:1051B0000804FFF7D3F900214FF48030FFF7CEF950
:1051C0003CE02748844209D101214804FFF7C6F991
:1051D00000214FF40030FFF7C1F92FE0214884424D
:1051E00009D101218804FFF7B9F900214FF480208B
:1051F000FFF7B4F922E01C48844208D10121402085
:10520000FFF78CF900214020FFF788F916E01748D6
:10521000844208D101218020FFF780F900218020FD
:10522000FFF77CF90AE01248844207D1012180157A
:10523000FFF774F90021A015FFF770F910BD000009
:10524000000001400004004000080040000C004045
:1052500000100040001400400004014000400140E4
:10526000004401400048014000180040001C00407C
:105270000020004030B50246002000230024158A9B
:1052800005EA0103958905EA010413B10CB1012077
:1052900000E0002030BD1AB183890B43838102E016
:1052A00083898B438381704770B5002400220023DB
:1052B000058C4FF6FE7635400584028C8388048B7E
:1052C0004FF68F752C40B51E2C400D882C43751E53
:1052D0002A408D892A434D882A43104DA84202D086
:1052E0000F4DA84213D14FF6F7752A40CD892A43B6
:1052F0004FF6FB752A408D882A434FF6FF652B40F9
:105300004FF6FF552B400D8A2B434D8A2B4383804C
:1053100004838D684563028470BD00000000014075
:10532000000401400A460021018B4FF6F773194033
:10533000114301837047000070B500240022002350
:10534000058C4FF6EF7635400584028C8388048BFC
:1053500048F6FF752C404FF6FF452C400D884FF660
:10536000FF7606EA05252C434FF6DF752A408D8926
:1053700006EA05152A434D8806EA05152A43154D08
:10538000A84202D0144DA8421DD14FF67F752A4085
:10539000CD894FF6FF7606EA05152A434FF6BF750D
:1053A0002A408D8806EA05152A434FF6FF352B4023
:1053B0004FF2FF752B400D8A06EA85052B434D8A77
:1053C00006EA85052B43838004838D688563028408
:1053D00070BD000000000140000401400A460021A9
:1053E000018B4FF2FF7319404FF6FF7303EA02235C
:1053F000194301837047000070B500220023002488
:10540000058C4EF6FF7635400584038C8488828BAC
:1054100048F6FF752A404FF6FF452A400D884FF6A3
:10542000FF7606EA05252A434DF6FF752B408D8948
:1054300006EA05352B434D8806EA05352B430A4D10
:10544000A84202D0094DA84208D14BF6FF752C4066
:105450000D8A4FF6FF7606EA85152C4384808283F9
:105460008D680564038470BD0000014000040140A4
:105470000A460021818B4FF2FF7319404FF6FF73EC
:1054800003EA0223194381837047416370478163B4
:10549000704701647047000000220288184B984250
:1054A0000ED0184B98420BD0B0F1804F08D0164B5D
:1054B000984205D0154B984202D0154B984204D122
:1054C0004FF68F731A404B881A43124B984207D0FD
:1054D000114B984204D04FF6FF431A400B891A43F0
:1054E00002804B68C3620B880385054B984202D04B
:1054F000044B984201D18B7A038601238382704743
:105500000000014000040140000400400008004089
:10551000000C0040001000400014004010B540F2A4
:105520002441114800F064F9E8B10F4800880F49A0
:1055300008600D48001D0088086000210C48FCF739
:10554000A1FD0B48FCF777FEC0F164000749086035
:10555000084800F04FFA64210648FAF738FF0121A5
:105560000348FCF78FFD10BD00780040A400002028
:1055700058600240F00B022010B540F2244111485F
:1055800000F036F9E8B10F4800880F4908600D486F
:10559000001D0088086000210C48FCF773FD0B48D3
:1055A000FCF749FEC0F16400074908600848FEF7AF
:1055B000DBFC64210648FAF70AFF01210348FCF7E7
:1055C00061FD10BD007C0040A8000020A0600240EA
:1055D0008C0B022010B540F22551344800F008F938
:1055E00018B1324800F0BEF95FE040F224412F4884
:1055F00000F0FEF8002858D02C4800F0B3F92C48F1
:10560000FCF71DFE40BB00212948FCF73BFD284864
:10561000FCF711FEC0F1240026490880242124480B
:10562000FCF784FE2248006840F40020204908600E
:1056300021491F48FCF7F2FC01211D48FCF722FD1F
:105640001C480088122830D11C491D48FFF736F944
:105650000020FCF7D7FE28E000211548FCF712FDDA
:105660001348FCF7E8FDC0F124001249088024210A
:105670000F48FCF75BFE0E48006820F400200C4940
:1056800008600D490A48FCF7C9FC01210848FCF7ED
:10569000F9FC08480088122807D108490848243036
:1056A000FFF70CF90020FCF7ADFE10BD0010014023
:1056B0004064024022080020000030102A1302201B
:1056C0005613022001F40072B2F5007F00D100BF32
:1056D000CA430280704721B1828942F4005282811C
:1056E00004E082894DF6FF731A40828170471AB137
:1056F000838A0B43838202E0838A8B4383827047D1
:1057000010B504463248844208D101211020FEF72A
:1057100025FF00211020FEF721FF57E02D4884428D
:1057200009D101214804FEF7F9FE00214FF40030B1
:10573000FEF7F4FE4AE02848844209D1012188049A
:10574000FEF7ECFE00214FF48020FEF7E7FE3DE07F
:105750002248844209D10121C804FEF7DFFE00215E
:105760004FF40020FEF7DAFE30E01D48844209D1F4
:1057700001210805FEF7D2FE00214FF48010FEF74C
:10578000CDFE23E01748844208D101212020FEF7F6
:10579000E5FE00212020FEF7E1FE17E012488442DA
:1057A00009D101218807FEF7B9FE00214FF08040A2
:1057B000FEF7B4FE0AE00D48844207D101214005FE
:1057C000FEF7ACFE00216005FEF7A8FE10BD00004C
:1057D000001001400044004000480040004C0040E0
:1057E000005000400014014000780040007C004060
:1057F00070B50246002400230025002040F66A16FA
:10580000B14200D100BFC1F3421501F01F030126D0
:1058100006FA03F3012D02D19689334006E0022DEA
:1058200002D1168A334001E0968A33400C120126D9
:1058300006FA04F41688344013B10CB1012000E0DC
:10584000002070BDF0B5034600240026002500208E
:1058500040F66A17B94200D100BF1846C1F342149E
:1058600001F01F06012707FA06F5012C01D10C30C3
:1058700004E0022C01D1103000E014301AB10768A6
:105880002F43076002E00768AF430760F0BD0000E8
:105890002DE9FF4705460E460024A14600BFA0465D
:1058A000B08900B100BF2C8A24F44054F08804432E
:1058B0002C82AC8941F20C608443B0883189084362
:1058C000718908430443AC81AC8A24F44074B089E4
:1058D0000443AC826846FEF751FE2048854202D060
:1058E0001F48854202D1DDF80C9001E0DDF80890F8
:1058F000A88900F4004040B109EBC90000EB091091
:1059000031684900B0FBF1F707E009EBC90000EB93
:10591000091031688900B0FBF1F76420B7FBF0F0A3
:1059200004012009642101FB1078A88900F40040DB
:1059300040B1322000EBC800B0FBF1F000F00700EE
:10594000044308E0322000EB08106421B0FBF1F0C2
:1059500000F00F0004432C81BDE8FF8700100140D8
:105960000014014001468888C0F30800704700BF5A
:10597000FEE7000070B505460C4600260DB1022C6E
:1059800001D8002070BDA11E094802882846FDF7F5
:1059900029F90646F1B2A01E285C814206D1601E9C
:1059A000285CB0EB162F01D10120EBE70020E9E7DE
:1059B000AC00002070B505460C4600260DB1022C47
:1059C00001DC002070BD601E81B2FF222846FDF779
:1059D00023F90646601E285CB04201D10120F1E7A0
:1059E0000020EFE710B501F029FB0149086010BD68
:1059F000100800202DE9F04104460026002700256C
:105A000000201849087009E0605DA52800D106E073
:105A1000462D01DBBDE8F081681CC5B2F4E700BF8C
:105A200060190521FFF7C6FFD0B1607800F10906C3
:105A300060193146FFF79EFF90B1681D215CA81DDB
:105A4000205C41EA0027A12F09D1E81D01190E228F
:105A50000548FAF7A3FC01200249087000BF00BF07
:105A600000BFD7E714080020F012022000B58FB065
:105A700001214805FEF732FD1748FCF70FFB4FF0F8
:105A80002060009000200390144801901448029078
:105A90000020039064200490002005904FF4806063
:105AA00006900020079008904FF4807009904FF402
:105AB00040300A9004200B9003200C9000200D90A1
:105AC0000E9069460448FCF705FC01210248FCF7EA
:105AD000D9FA0FB000BD00005860024004780040C1
