:020000040800F2
:10000000E81602207D0200088D440008193C000813
:100010008944000871110008FB600008000000001E
:10002000000000000000000000000000C501000802
:10003000D52600080000000019020008E555000858
:10004000A1020008A1020008A1020008A102000804
:10005000A1020008A1020008A1020008A1020008F4
:10006000A1020008A1020008A1020008A1020008E4
:10007000A1020008A1020008A1020008A1020008D4
:10008000A1020008A1020008A1020008A1020008C4
:1000900075110008A1020008A1020008FD27000850
:1000A000A1020008A1020008A1020008A1020008A4
:1000B000A10200085D560008A1020008A102000884
:1000C000A1020008A1020008A1020008A102000884
:1000D000A1020008495D0008A1020008A102000871
:1000E000A1020008A1020008A1020008A102000864
:1000F000A1020008A1020008A1020008A102000854
:10010000A1020008A1020008A1020008A102000843
:10011000A1020008A102000869570008A102000816
:10012000A1020008A1020008A1020008A102000823
:10013000A1020008A1020008A1020008A102000813
:10014000B5120008A1020008A1020008A1020008DF
:100150009D230008A1020008A1020008A1020008D6
:10016000A1020008A1020008A1020008A1020008E3
:10017000A1020008A1020008A1020008000000007E
:10018000A1020008A1020008915C0008ED5C0008D3
:10019000A1020008A1020008A1020008A1020008B3
:1001A0000000000000000000A1020008DFF810D0ED
:1001B00000F0FAFB00480047818A0008AFF3008096
:1001C000E81602202A4B19680868B0E8F04F80F35F
:1001D0000988BFF36F8F4FF0000080F311887047DC
:1001E0000000000006480068006880F3088862B6D6
:1001F00061B6BFF34F8FBFF36F8F00DF00BF00BF4B
:1002000008ED00E0DFF80C00016841F470010160C6
:10021000704700BF88ED00E0EFF30980BFF36F8FF8
:10022000134B1A681EF0100F08BF20ED108A20E94A
:10023000F04F106008B44FF0500080F31188BFF306
:100240004F8FBFF36F8F0AF06FFD4FF0000080F308
:10025000118808BC19680868B0E8F04F1EF0100F4C
:1002600008BFB0EC108A80F30988BFF36F8F704726
:1002700024000020EFF30580704700000948016862
:1002800041F4700101600848804708480047FEE7D4
:10029000FEE7FEE7FEE7FEE7FEE7FEE7FEE7FEE736
:1002A000FEE7000088ED00E0F5550008AD0100080C
:1002B0009FED1A1AF5EE000A40EE010ABDEEE00AC3
:1002C000F5EEC00A10EE100AF1EE10FA38BF401E2B
:1002D00000EE100A1349F7EE001AB8EEC00A30EE2D
:1002E000C00ADFED0F0A20EE200AFCEEC00A10EE75
:1002F000900AC0F3080000EE900A01EB8000F8EECF
:10030000600A90ED011A70EE600A90ED000A71EE3D
:10031000E01A21EE800A00EE810A704783F9223E3E
:1003200000000044ACBE0008DFED190AB5EEC00ABB
:1003300060EE200ABDEEE01A11EE100AF1EE10FA9E
:1003400038BF401E00EE100A1349F7EE001AB8EE4F
:10035000C00A30EEC00ADFED0F0A60EE200ABCEEE4
:10036000E00A10EE100AC0F3080000EE100A01EBDC
:100370008000B8EE400A90ED011A70EEC00A90EDD0
:10038000000A71EEE01A21EE800A00EE810A704741
:1003900083F9223E00000044ACBE000840EA01039D
:1003A0009B0703D009E008C9121F08C0042AFAD22B
:1003B00003E011F8013B00F8013B521EF9D27047EF
:1003C000D2B201E000F8012B491EFBD27047002297
:1003D000F6E710B513460A4604461946FFF7F0FF44
:1003E000204610BD421C10F8011B0029FBD1801AC9
:1003F00070472DE9FE4F81EA030404F0004421F028
:10040000004100944FF0000B23F0004350EA010438
:100410005ED052EA03045BD0C3F30A54C1F30A5519
:100420002C44A4F2F3340194A0FB0254C1F3130151
:1004300041F48011C3F3130343F4801301FB02441E
:1004400000FB034E840A970A44EA815447EA835723
:10045000A4FB076802958D0A05FB07854FEA932CDC
:1004600004FB0C542705029D4FEA065847EA16374D
:10047000B5EB08056EEB070C870E920E47EA811765
:1004800042EA8312A7FB0201B6EB0B0164EB000406
:100490002B0D43EA0C335E1844EB1C50DA465146F0
:1004A000E7FB0201C5F313044FEA0B3343EA14538D
:1004B0004FEA0432019C43EA0603A4F10C040294BF
:1004C000009CCDE900B400F0F2F803B0BDE8F08F75
:1004D00000200146F9E700F0004230F000400AD069
:1004E000C10D01F56071C0F3160042EA0151C20866
:1004F00040071143704700200146704730B5041E85
:1005000071F1000404DB4FF00044404264EB010150
:10051000141E73F1000405DB1C464FF000435242E9
:1005200063EB04038B4208BF824230BD30B5041E2A
:1005300071F1000404DB4FF00044404264EB010120
:10054000141E73F1000405DB1C464FF000435242B9
:1005500063EB0403994208BF904230BD01F00043B1
:1005600030B421F0004150EA010206D00A0DA2F594
:100570006072C1F31301002A02DC30BC0020704716
:10058000440F44EAC104C100E01830BC00EBC25083
:1005900000F047B830B50B46014600202022012468
:1005A00009E021FA02F59D4205D303FA02F5491B41
:1005B00004FA02F52844151EA2F10102F1DC30BD57
:1005C0002DE9F05F0546002092469B468846064688
:1005D000814640241BE0284641464746224600F01B
:1005E00004FA53465A46C01A914110D31146184690
:1005F000224600F0EBF92D1A67EB01084F46224620
:100600000120002100F0E2F917EB00094E41201E05
:10061000A4F10104DFDC484631462A464346BDE8E2
:10062000F09F0029A8BF7047401C490008BF20F078
:100630000100704710B4B0FA80FC00FA0CF050EAE8
:10064000010404BF10BC704749B1CCF1200421FA69
:1006500004F411FA0CF118BF012121430843A3EB64
:100660000C01CB1D4FEA00614FEA102042BF002071
:1006700010BC704700EBC35010440029A4BF10BC4D
:100680007047401C490008BF20F0010010BC7047B3
:1006900010B5141E73F1000408DA401C41F100018A
:1006A00092185B411A4301D120F0010010BD2DE9E1
:1006B000F04D92469B4611B1B1FA81F202E0B0FAD8
:1006C00080F22032904600F081F904460F4640EA5D
:1006D0000A0041EA0B0153465A46084313D011461B
:1006E00053EA010019D0C8F14002504600F07DF9EC
:1006F00005460E4650465946424600F067F9084303
:1007000005D0012004E020463946BDE8F08D0020E8
:10071000054346EAE0762C4337430A986305E40A2A
:10072000A0EB08000022FD0A44EA47540A3002D533
:1007300000200146E9E7010510196941DDE9084596
:1007400000196941BDE8F04DA2E72DE9FE4F804652
:1007500081EA0300C00F0C46009021F0004123F015
:100760000045B8EB0200A94105D24046214690461B
:100770001C460B46024623F00040104347D0270D8D
:10078000C7F30A00C3F30A510290401A01904028AF
:100790006BDAC3F3130040F4801B0098924620B13B
:1007A0000023D2EB030A63EB0B0B01985946C0F10F
:1007B0004002504600F00AF906460D46504659469A
:1007C000019A00F022F910EB08006141002487EA49
:1007D000115284EAE7731A4340D0009A62B3019A37
:1007E000012A4FEA075215DC001B61EB02014FF0B2
:1007F000004202EA0752CDE90042001C41F5801197
:1008000032462B46FFF753FF03B0BDE8F08F40465A
:100810002146F9E7001B61EB0201001C41F5801342
:1008200000185B412018A2F5001747EB030140EACE
:10083000D570B6196D4111E06D084FEA360645EAEC
:10084000C0754FEA0752001B61EB0201001C41F525
:10085000801149084FEA30000019514132462B46B9
:1008600003B0BDE8F04FFFF713BF0098012240002E
:100870000023D0EB020263EBE073009821464FEABD
:10088000E074B8EB000061EB0401E9E783F000439A
:100890005BE781F0004158E72DE9F04D81EA030460
:1008A00004F0004B21F0004514464FF0000A23F0FD
:1008B000004150EA050220D054EA01021DD0C5F3E0
:1008C0000A570246C5F31303C1F31300C1F30A56D6
:1008D00040F4801543F48013A7EB0608101BD6469E
:1008E00008F2FD3873EB050002D308F1010801E0BE
:1008F00092185B41B8F1000F03DA00200146BDE811
:10090000F08D00204FF48011064684460EE0171B40
:1009100073EB050705D3121B63EB050306434CEA93
:10092000010C49084FEA300092185B4150EA010778
:10093000EDD152EA030012D082EA040083EA0501F5
:10094000084305D0101BAB4106D20122002306E06C
:1009500000224FF0004302E06FF0010253101AEB47
:1009600006004CEB085110EB0A0041EB0B01BDE80F
:10097000F04DFFF78DBEC1F30A52C1F3130140F2EF
:10098000FF3341F480119A4202DA00200146704799
:1009900040F233439A42A2F2334202DC524200F068
:1009A00024B800F013B80000064C074D06E0E068DC
:1009B00040F0010394E8070098471034AC42F6D3A6
:1009C000FFF7F8FBB0C60008D0C60008202A04DBF9
:1009D000203A00FA02F1002070479140C2F1200352
:1009E00020FA03F3194390407047202A04DB203A91
:1009F00021FA02F00021704721FA02F3D040C2F13F
:100A000020029140084319467047202A06DBCB1785
:100A1000203A41FA02F043EAE07306E041FA02F3B9
:100A2000D040C2F12002914008431946704770B58A
:100A30008C1810F8015B15F0070301D110F8013B89
:100A40002A1106D110F8012B03E010F8016B01F810
:100A5000016B5B1EF9D12B0705D40023521E0DD468
:100A600001F8013BFAE710F8013BCB1A921C03E0B6
:100A700013F8015B01F8015B521EF9D5A142D8D3EE
:100A8000002070BDCA430260704721B1826842F005
:100A90000102826003E0826822F0010282607047F6
:100AA0000021084A1168084A1140D0E900231A437E
:100AB00083681A43C3681A431143044AC2F80413F3
:100AC0007047000004230140E030FCFF002001409B
:100AD0000146C86C80B270470246002013680B4084
:100AE0000BB1012000E000207047000030B5024645
:100AF000002000235068104C20400D790C6844EA17
:100B000005242043506090680C4C2040D1E90354E8
:100B10002C438D682C434D7944EA45042043906072
:100B2000D06A20F470000C7D641EE4B2234340EAD6
:100B30000350D06230BD0000FFFEFFFCFDF7FFC098
:100B4000F0B504460D4600200021092D11DDE068B6
:100B5000A5F10A0606EB4607072606FA07F18843C1
:100B6000A5F10A0606EB460603FA06F10843E06023
:100B70000CE0206905EB4507072606FA07F18843D4
:100B800005EB450603FA06F108432061072A0FDA50
:100B9000606B561E06EB86071F2606FA07F1884390
:100BA000561E06EB860605FA06F10843606322E04E
:100BB0000D2A0FDA206BD61F06EB86071F2606FAD2
:100BC00007F18843D61F06EB860605FA06F10843AF
:100BD000206310E0E06AA2F10D0606EB86071F26EF
:100BE00006FA07F18843A2F10D0606EB860605FA20
:100BF00006F10843E062F0BD816841F08041816008
:100C00007047000038B10849096841F40001074AFB
:100C1000C2F8041306E00449096821F40001034AFC
:100C2000C2F8041370470000042301400020014073
:100C300010B52DED028BB0EE408AB0EE480A05F0FB
:100C400019FCBDEC028B10BD10B52DED028BB0EE82
:100C5000408AF0EE608AF0EE680AB0EE480A05F0CD
:100C60009FFCBDEC028B10BD10B52DED028BB0EEDC
:100C7000408AB0EE480AFFF71BFBBDEC028B10BDAB
:100C8000F0EE400AF5EEC00AF1EE10FA02DDB0EE29
:100C9000600A7047B1EE600AFBE7000018B19FEDF3
:100CA000020A80ED000A70470000000018B19FEDB5
:100CB000020A80ED000A7047DF8FB44170B52DED58
:100CC0000C8B84B006460C4615469FED990AF0EE53
:100CD000408A9FED970AB0EE409A9FED950AF0EE9C
:100CE00040BA9FED930AF0EE409A9FED910AB0EE64
:100CF00040AA0EB104B11DB904B0BDEC0C8B70BD9F
:100D00008C48FFF7CBFF8C48FFF7D0FF8A48D0ED27
:100D1000000A9FED8A1A60EE810AB0EE600A00F0C8
:100D200039F9F0EE408A28EEA80AF0EE408A8248AF
:100D3000D0ED000AB0EE001A60EE810A9FED7F1A36
:100D400060EE810AB0EE600A00F024F9B0EE409A3D
:100D500029EE090AB0EE409ADFED790AB7EE000AF3
:100D600000EEA80ADFED770A00EEC90ADFED760A89
:100D700020EE200A754880ED000A6E4890ED000ACA
:100D8000DFED730A80EE201AB7EE000A31EE000A9A
:100D900020EE000A6D48D0ED000A80EE801A6D4802
:100DA00080ED001A94ED000AB5EEC00AF1EE10FADB
:100DB0000DD194ED010AB5EEC00AF1EE10FA06D19C
:100DC00094ED020AB5EEC00AF1EE10FA46D09FED9E
:100DD000580AB0EE408A0020019002900390D4EDB2
:100DE000000A60EEA00A94ED011AD4ED011A41EE5A
:100DF000210A94ED021AD4ED021A41EE210AB0EE56
:100E0000600A00F0A9F8B0EE408A94ED000A20EEE6
:100E1000080A8DED010A94ED010A20EE080A8DED15
:100E2000020A94ED020A20EE080A8DED030ADDEDB8
:100E3000010AF1EE600AB0EE600AFFF7F9FEF0EE8B
:100E4000409A9DED031AF0EE410A9DED021AB0EEB4
:100E5000410AFFF7F9FEB0EE40AA07E09FED340A21
:100E6000F0EE409A9FED320AB0EE40AA95ED000AEE
:100E7000B5EEC00AF1EE10FA0DD195ED010AB5EE0E
:100E8000C00AF1EE10FA06D195ED020AB5EEC00ADD
:100E9000F1EE10FA3CD0B0EE690A00F07BF8B0EE4B
:100EA000408AB0EE690AFFF7DFFEB0EE40DAB0EE3E
:100EB0004A0A00F06FF8F0EE40AAB0EE4A0AFFF7D7
:100EC000D3FEB0EE40BA28EE2A0AD5ED010A20EE94
:100ED000200AD5ED000A0DEE200A68EE0B0A95ED0A
:100EE000021A00EE810AB0EE40CA95ED010A20EE2A
:100EF0000B0AD5ED020A0AEEE00AF0EE40CAF0EE67
:100F00006C0AB0EE4C0AFFF79FFEF0EE40BA03E029
:100F10009FED070AF0EE40BAB0EE4A1AF0EE690A09
:100F2000B0EE6B0A304606F0BBFA00BFE4E6000004
:100F300000000000780600207C06002035FA8E3C78
:100F4000C1BFAD3B9DF8C5362F7C1C4180060020FB
:100F5000506CC24A84060020F0EE400AF6EE001AF9
:100F600060EEA11AB0EE611AB0EE600A10EE100A3F
:100F70000749A1EB600000EE100A21EE002AF7EE0F
:100F8000081A42EE401A61EE801AB0EE610A70470C
:100F9000DF59375F10B52DED028BB0EE408AB0EE11
:100FA000480AFFF7C1F9BDEC028B10BD2DE9F041F5
:100FB0002DED028B9AB00546B0EE408A0E461746DC
:100FC000984600201790189019901490159016903C
:100FD0004DB146B13FB1B8F1000F04D0B5EEC08AB3
:100FE000F1EE10FA05D100201AB0BDEC028BBDE87D
:100FF000F08196ED000A8DED170A96ED010A8DED50
:10100000180A96ED020A8DED190A97ED000A8DED8A
:10101000140A97ED010A8DED150A97ED020A8DED80
:10102000160A17AA14A9284606F08CF8402104A82D
:10103000FFF7CDF90020009001900290039000246A
:1010400017A904A809F0A4FA00BF30E004A800EB37
:10105000041090ED000AD5ED000A20EE200A04A845
:1010600000EB0410D0ED010A95ED011A00EE810AA3
:1010700004A800EB0410D0ED020A95ED021A00EE70
:10108000810A04A800EB0410D0ED030A95ED031AC1
:1010900000EE810A20EE080AF0EE000A80EE201A27
:1010A000684600EB840080ED001A601CC4B2042C7A
:1010B000CCDB002410E005EB840090ED000A6846CC
:1010C00000EB8400D0ED000A30EE200A05EB84002E
:1010D00080ED000A601CC4B2042CECDB284608F04A
:1010E0000FFD012080E738B54FF4407003F00CFA93
:1010F0004FF47A7006F00AFE07F03CFC09F0D8F9CC
:1011000007F084FE06F0B4FF5A2147F2305006F093
:101110007DFA07F0FDFB05F023F905F0A3F803F0D5
:101120004FF909F053F95A214EF6602004F02EFBD6
:10113000002005231A460121009000F033F800201A
:1011400005231A460121009000F0CCF8002408E0A5
:10115000204607F08FFE40F2C52006F035FE601CE9
:10116000C4B2042CF4DB08F051FD06F017FC38BDC6
:1011700000BFFEE710B50221084800F06DFA58B133
:101180000221064800F090F9054A0021034800F0CA
:1011900086FB034800F08EFC10BD00000064004098
:1011A000A00B02202DE9F0418AB004460D461646F8
:1011B0001F46DDF840800121082003F0F9FA0121E3
:1011C000480603F005FB0121480603F011FB00214E
:1011D0004FF0007003F00CFB0320089002208DF804
:1011E000240000208DF8260003208DF82500012022
:1011F0008DF8270008A92D4801F0AAFC092200213A
:101200002A4801F0EDFC09220121284801F0E8FC00
:1012100000208DF81A0001208DF81B0000208DF8A9
:101220001C008DF81D008DF81E008DF81F008DF834
:1012300016808DF817408DF818608DF81950ADF8AC
:10124000147005A91A4800F0A0FA00208DF80E00CD
:101250008DF80F0001208DF810000020ADF804007B
:10126000ADF80600ADF80800ADF80A00ADF80C00C6
:1012700001208DF8110001A800F06AF90122022175
:101280000B4800F079FA14208DF8000004208DF846
:10129000010000208DF8020001208DF8030068464F
:1012A00003F0F6F800200AB0BDE8F081000C02401F
:1012B0000064004010B50221084800F0CDF958B193
:1012C0000221064800F0F0F8054A0021034800F02A
:1012D000E6FA034800F0EEFB10BD00000068004095
:1012E000B40B02202DE9F0418AB004460D461646A3
:1012F0001F46DDF840800121022003F059FA012148
:10130000880603F065FA0121880603F071FA0021CE
:101310004FF0806003F06CFA4FF4405008900220C8
:101320008DF8240000208DF8260003208DF825007C
:1013300001208DF8270008A92D4801F009FC092299
:101340000C212B4801F04CFC09220D21284801F00A
:1013500047FC00208DF81A0001208DF81B000020AA
:101360008DF81C008DF81D008DF81E008DF81F00F3
:101370008DF816808DF817408DF818608DF819508B
:10138000ADF8147005A91B4800F0FFF90E208DF888
:101390000E0000208DF80F0001208DF810000020B5
:1013A000ADF80400ADF80600ADF80800ADF80A008D
:1013B000ADF80C0001208DF8110001A800F0C8F86C
:1013C000012202210B4800F0D7F940208DF80000DF
:1013D00004208DF8010000208DF8020001208DF816
:1013E0000300684603F054F800200AB0BDE8F0811D
:1013F0000004024000680040F0B585B004460D4688
:1014000016461F464FF40070009000208DF808002B
:101410008DF8090008208DF80A00200A8DF80B00CD
:10142000E1B28DF80C10290A8DF80D10E9B28DF893
:101430000E10310A8DF80F10F1B28DF81010390A24
:101440008DF81110F9B28DF812106946024800F0BB
:101450009EFA05B0F0BD0000006800402DE9F041A3
:1014600004460D4616461F4640F2FF100C49086020
:1014700000200872487208208872200AC872084644
:101480000473290A41738573310AC1730674390ADA
:10149000417487740146034800F079FABDE8F08191
:1014A0008C0B022000640040B1F5007F3AD00FDCC5
:1014B000202928D006DC01291CD004291DD00829A8
:1014C00040D11DE0402921D0B1F5807F3AD126E0FE
:1014D000B1F5004F31D006DCB1F5806F25D0B1F504
:1014E000006F2FD124E0B1F5803F12D0B1F5003F5D
:1014F00028D111E0154A826025E00822C26022E06E
:101500001022C2601FE0082202611CE0102202616A
:1015100019E00822426016E01022426013E0042223
:10152000426010E0042242600DE0042242600AE0C2
:10153000002282610422426005E0002282610422CE
:10154000426000E000BF00BF7047000001010100E1
:1015500010B50021837A012202FA03F13D4A126894
:1015600042F001023B4B1A603A4A1C3212688A432D
:10157000384B1C331A60027BCAB9364A0C321268E7
:101580008A43344B0C331A604288C38842EA0343CF
:10159000304A4032847A42F834300288838842EA02
:1015A00003432C4A4032847A02EBC4025360027B2C
:1015B000012A19D1274A0C3212680A43254B0C33F1
:1015C0001A604288038842EA0343224A4032847AFE
:1015D00042F83430C288838842EA03431D4A4032CD
:1015E000847A02EBC4025360C27A3AB9194A121DD6
:1015F00012688A43174B1B1D1A6006E0154A121D1C
:1016000012680A43134B1B1D1A60028932B9114A32
:10161000143212688A430F4B14331A600289012A6C
:1016200006D10C4A143212680A430A4B14331A606A
:10163000427B012A06D1074A1C3212680A43054B35
:101640001C331A60034A126822F00102014B1A602F
:1016500010BD00000066004070B504460D4600262F
:1016600060692840002871D0B5F5807F5CD010DC1F
:10167000082D35D006DC012D20D0022D24D0042DDC
:1016800072D127E0102D31D0202D35D0402D6BD1D7
:1016900038E0B5F5004F60D009DCB5F5007F49D0E2
:1016A000B5F5806F4CD0B5F5006F5DD14FE0B5F565
:1016B000803F2DD0B5F5003F56D12FE0A0682D49D1
:1016C00000F062FE064651E0E068032100F05CFE97
:1016D00006464BE0E068082100F056FE064645E06D
:1016E000E068102100F050FE06463FE0206903212B
:1016F00000F04AFE064639E02069082100F044FE69
:10170000064633E02069102100F03EFE06462DE03B
:101710006068082100F038FE064627E06068102166
:1017200000F032FE064621E0A069012100F02CFE07
:1017300006461BE0A069022100F026FE064615E0E1
:10174000A069042100F020FE06460FE00FE0A0692A
:10175000702100F019FE064608E06068042100F0E0
:1017600013FE064602E0FFE7002600BF00E0002669
:10177000304670BD010101001AB143690B4343615A
:1017800002E043698B434361704730B50246002055
:101790000023146824F002041460146844F0010467
:1017A000146000E05B1C546804F001041CB94FF69F
:1017B000FF74A342F6D1546804F001040CB9002070
:1017C0006CE08C79012C04D1146844F0800414601E
:1017D00003E0146824F080041460CC79012C04D157
:1017E000146844F04004146003E0146824F04004DA
:1017F00014600C7A012C04D1146844F020041460A5
:1018000003E0146824F0200414604C7A012C04D105
:10181000146844F01004146003E0146824F0100409
:1018200014608C7A012C04D1146844F0080414600C
:1018300003E0146824F008041460CC7A012C04D16D
:10184000146844F00404146003E0146824F00404F1
:1018500014608C78A407CD7844EA05640D7944EAD5
:1018600005444D7944EA05540D886D1E2C43D4611E
:10187000146824F001041460002300E05B1C546829
:1018800004F001041CB14FF6FF74A342F6D1546872
:1018900004F001040CB1002000E0012030BD10B5BF
:1018A00000F5D87303EB01131B6803F004031372F4
:1018B000137A53B900F5D87303EB01131B6840F298
:1018C000FF7404EA5353136009E000F5D87303EB87
:1018D00001131B686FF0604404EAD303536000F502
:1018E000D87303EB01131B6803F00203537200F576
:1018F000D87303EB01135B6803F00F03937200F5D9
:10190000D87303EB01135B681B0AD37400F5D8731B
:1019100003EB01139B68D37200F5D87303EB01133B
:101920009B681C0A147300F5D87303EB01139B68C2
:101930001C0C547300F5D87303EB01139B681B0E4A
:10194000937300F5D87303EB0113DB68D37300F5D1
:10195000D87303EB0113DB681C0A147400F5D87309
:1019600003EB0113DB681C0C547400F5D87303EB14
:101970000113DB681B0E937421B9C36843F0200385
:10198000C36003E0036943F02003036110BD10B599
:1019900002460020936803F08063B3F1806F00D1AA
:1019A00010E0936803F00063B3F1006F01D10120F0
:1019B00008E0936803F08053B3F1805F01D1022007
:1019C00000E00420042874D002F5C07303EB001378
:1019D0001B6803F0010402F5C07303EB00131C60E5
:1019E0000B7A7BB94B7A0C8843EA445302F5C074F6
:1019F00004EB00142468234302F5C07404EB0014C4
:101A0000236010E00B7A4C6843EAC4034C7A23430A
:101A100002F5C07404EB00142468234302F5C0747B
:101A200004EB001423608B7A03F00F038B7202F532
:101A3000C07303EB00135B6823F00F0402F5C0735F
:101A400003EB00135C6002F5C07303EB00135B68EB
:101A50008C7A234302F5C07404EB001463608B7B23
:101A60001C064B7B44EA03440B7B44EA0323CC7AF9
:101A7000234302F5C07404EB0014A3608B7C1C06A6
:101A80004B7C44EA03440B7C44EA0323CC7B234392
:101A900002F5C07404EB0014E36002F5C07303EBBD
:101AA00000131B6843F0010402F5C07303EB00133D
:101AB0001C6010BD10B504462068A0F20120072864
:101AC0007ED2DFE800F0616263640423420055487F
:101AD000008800B253490881207BE17A40EA012066
:101AE00050490880A17B607B41EA002000B24D494B
:101AF0008880217CE07B41EA002000B2494948808F
:101B0000607C8871012000F0E7FD88E0464800888D
:101B100000B245490881207BE17A40EA0120424930
:101B20000880A17B607B41EA002000B23E498880AA
:101B3000217CE07B41EA002000B23B494880607C88
:101B40008871022000F0C8FD69E03848008800B2C2
:101B500036490881207BE17A40EA01203349088038
:101B6000A17B607B41EA002000B230494880217CA3
:101B7000E07B41EA002000B22C498880607C8871BB
:101B8000032000F0A9FD4AE000BF00BF00BF20789D
:101B9000401E274908700846007800EB8000254960
:101BA00031F8100000B22249097801EB8101214A85
:101BB00002EB41010881207BE17A40EA012000E04C
:101BC0002CE01B49097801EB810122F81100A17B6F
:101BD000607B41EA002000B21549097801EB8101E0
:101BE00002EB41014880217CE07B41EA002000B209
:101BF0000F49097801EB810102EB41018880607C8B
:101C00000B49097801EB810102EB41018871084918
:101C10000978091DC8B200F05FFD00E000BF00BFF9
:101C200010BD0000440B02204E0B0220580B022076
:101C300004010020620B022010B52DED088B84B04A
:101C40009FED660AB0EE408A9FED640AB0EE409ABE
:101C50009FED620AF0EE408A002000900190029011
:101C600003905F48D0ED7D1AB0EE611AD0ED7C1A7A
:101C7000F0EE610AD0ED7A1AB0EE610A684605F01E
:101C80008FFF002438E0684600EB840090ED000AE6
:101C9000C4EBC40000EB04115148543000EB810048
:101CA00080ED150AC4EBC40000EB04124C4854301C
:101CB00000EB820090ED150A10EE101A0846FEF7B0
:101CC0000AFC41EC1B0BB0EE4B0AF0EE6B0A04F081
:101CD000BDFDB0EE40AAF0EE60AA51EC1A0BFEF783
:101CE0003DFC08EE100AF4EEC88AF1EE10FA01D2BB
:101CF000F0EE488A601CC4B2042CC4DBB1EE000ACA
:101D0000F4EEC08AF1EE10FA21DDB1EE000AC0EE69
:101D1000280AB0EE609A002417E0C4EBC40000EB80
:101D200004112F48543000EB810090ED150A20EE8D
:101D3000090AC4EBC40000EB04112948543000EB3D
:101D4000810080ED150A601CC4B2042CE5DB002480
:101D50003DE0C4EBC40101EB04122149543101EB15
:101D6000820191ED151AF0EE410AC4EBC40101EBBA
:101D700004121B49543101EB820191ED141AB0EEAB
:101D8000410AC4EBC40101EB04121549543101EBC3
:101D90008201081D02F0E4FBC4EBC40000EB041157
:101DA0000F48543000EB810090ED090ABDEEC00AE7
:101DB00010EE100A01B2C4EBC40000EB0412084894
:101DC000543000EB8200A0F85A10601CC4B2042CFE
:101DD000BFDB04B0BDEC088B10BD000000000000AC
:101DE000C80B02207047000000B589B008AA05A9F9
:101DF00006A805F011FF03A904A805F0CFFE9DED8C
:101E0000060ADDED040A30EE200A8DED020A9DED92
:101E1000050ADDED030A30EE200A8DED010ABDF959
:101E2000200007901048407A052819D2DFE800F01A
:101E30000315060C120000F093F911E007AA01A99E
:101E400002A800F013F80BE007AA01A902A800F00D
:101E50003FF905E0FFF7C6FF02E000F0BFF900BF61
:101E600000BF09B000BD0000C80B022070B52DED09
:101E7000028B04460D4616462348D0ED7F0AB0EE8D
:101E8000600AFEF751FAB0EE408A1F48D0ED7F0A93
:101E9000B0EE600AFEF70CFAF0EE408A94ED000A0C
:101EA00020EE280AD5ED000A00EEE80A164880ED7B
:101EB0007A0A94ED000A20EE080AD5ED000A00EE39
:101EC000880A80ED7C0A90ED800AB6F9000000EEE9
:101ED000900AF8EEE00A9FED0D1A00EE810A0A481A
:101EE00080ED810A90ED811AF0EE410A90ED801AA2
:101EF000B0EE410A0C3002F033FB034880ED7E0A5D
:101F0000BDEC028B70BD0000C80B0220BD37063649
:101F100010B5002400BF1BE0204606F079F9C4EBA1
:101F2000C40101EB0412294941F82200C4EBC401A9
:101F300001EB0412254901EB8201081DDFED240AA3
:101F40009FED240A244A002102F002FC601CC4B266
:101F5000042CE1DBDFED210AB1EE080A204A002162
:101F60001A48483802F0F4FB0020184954394872E6
:101F70001C499FED1D0A1D4805F0B4FF1C499FED4B
:101F80001A0A1A48103005F0ADFF06F0F5F90F49AE
:101F90005439086006F048F90C495439486001206A
:101FA000A1F8160200240BE0204606F031F9C4EB3C
:101FB000C40101EB0412054941F82200601CC4B2BF
:101FC000042CF1DB00F00CF910BD00001C0C022009
:101FD0000000FA4400007A4630BE0008CDCC4C3EEA
:101FE0003CBE000848BE00086F12033B8C0D022067
:101FF0004CBE000870B5002400250026324909684F
:10200000C87A08F01DFA18B100202F4908720CE0B8
:102010002D490968C87A08F028FA18B101202A4920
:10202000087202E00020284908722748007AD0B9D7
:1020300025490968887A08F018FA08B1032431E0C4
:1020400021490968887A08F0FBF908B1022429E0DF
:102050001D490968887A022801D1012100E0002188
:1020600001B300241EE018480068C08AC0F30020B5
:1020700020B116480078C04314490870134800780E
:1020800008B1022400E003240F480068807EC0F3FA
:10209000801000B101250C480068408BC0F340203F
:1020A00000B1022508484472C572407A0649897A0F
:1020B000884204D0044A517A907A05F0ABFD024878
:1020C000407A0149887270BDC80B022008010020C7
:1020D000F8B505460E4614461D490968081D0A2232
:1020E000694606F0A3FABDF9000000EE100AB8EE4A
:1020F000C00ADFED180A20EE200ABDEEC00A10EE7D
:10210000100A00B22080D5ED000AB0EE600AB0EEF1
:10211000081AF8EE080A05F06FFF0D4880ED7A0AFC
:10212000D6ED000AB0EE600A9FED0B1ADFED0B0A48
:1021300005F062FF064880ED7C0AB4F9000000EE6D
:10214000100AB8EEC00A024880ED7E0AF8BD000011
:10215000C80B022017B7D1389A9939409A9939C0DB
:102160009FED080A084880ED7A0A9FED060A80ED87
:102170007C0A9FED040A80ED7E0A90ED800A80EDD6
:10218000810A704700000000C80B022010B51248F9
:10219000407A98B1002008F0B5F978B9042008F029
:1021A000B1F958B9052008F0ADF938B9062008F0A2
:1021B000A9F918B9072008F0A5F930B100231A468B
:1021C00019461846FFF718F905E000231A46194684
:1021D0001846FFF711F910BDC80B02207047000028
:1021E00070B52DED028B06F023F8054695ED000A3B
:1021F000B0EE408A5E48F0EE480A5E4991ED000A72
:1022000006F08AF9B0EE408A002431E0C4EBC40045
:1022100000EB0411584850F82100B0F9020000EE1C
:10222000100AB8EEC00ADFED550A20EE200AC4EB12
:10223000C40000EB0411504800EB810080ED140A4B
:10224000C4EBC40000EB04114B4800EB810090ED9F
:102250000D0ADFED4B0A20EE200AC4EBC40000EBB0
:102260000411454800EB810080ED130A601CC4B2E4
:10227000042CCBDB4048543890ED290AD0ED400ABD
:1022800030EE600AD0ED570A30EE200AD0ED6E0A2B
:1022900030EE600AF5EE000A20EE200A80ED790AA1
:1022A00090ED290AB1EE400AD0ED400A30EE600A06
:1022B000D0ED570A30EE200AD0ED6E0A30EE200A3B
:1022C000F5EE000A20EE200A80ED7B0A90ED290A47
:1022D000B1EE400AD0ED400A30EE600AD0ED570A68
:1022E00030EE600AD0ED6E0A30EE600AF5EE000ABC
:1022F00020EE200A80ED790A06F02CF8B1EE400AB3
:102300001D48543880ED7F0A90ED7F0AF1EE480AAF
:1023100030EE200A80ED800A90ED800A80ED820A7E
:1023200090ED801AB0F91602400001EE900AF8EE26
:10233000E11A9FED142A01EE821AF0EE410A0E48CE
:10234000543890ED841AB0EE410A00F2162005F0E0
:10235000CFF90948543880ED830A90ED830A80ED67
:10236000840A044880ED008ABDEC028B70BD000039
:10237000DC0D02200C0100201C0C02200A01DA39BD
:102380000000FA43DB0F49400246002002EA010345
:102390000BB1012000E000207047000010B510498B
:1023A000104800F029F9C8B10D490E4800F022F894
:1023B00006F090FB09F040F901280FD00A490B48BC
:1023C000006808F03BFB0848006838B14FF08050C7
:1023D00007490860BFF34F8FBFF36F8F10BD000038
:1023E00000080020886402401C060020A005002090
:1023F00004ED00E00246094B9A4201D2084801E090
:102400000648103801F000531BB1064B0B40C36067
:1024100002E0044B0B4083607047000010640240F0
:10242000006002407D0F7D0F21B1026842F0010281
:10243000026003E0026822F00102026070470000BF
:10244000016821F0010101600021016041608160AB
:10245000C1600161212141614A49884204D13D2185
:10246000484A103A91608CE046491831884205D1BB
:102470004FF47461434A103A916082E0414930312F
:10248000884205D14FF474113E4A103A916078E0C9
:102490003C494831884205D14FF07461394A103ABD
:1024A00091606EE037496031884204D13649354A3F
:1024B000103AD16065E033497831884204D133491C
:1024C000304A103AD1605CE02E499031884204D104
:1024D0002F492C4A103AD16053E02A49A83188424A
:1024E00005D14FF03D51274A103AD16049E02949C2
:1024F000884204D13D21274A083A116041E025492C
:102500001831884205D14FF47461224A083A1160AB
:1025100037E020493031884205D14FF474111D4A0B
:10252000083A11602DE01B494831884205D14FF02F
:102530007461184A083A116023E0164960318842F4
:1025400004D11149134A121F11601AE01149783160
:10255000884204D10D490F4A121F116011E00D4944
:102560009031884204D10A490A4A121F116008E0DA
:102570000849A831884204D14FF03D51054A121F45
:1025800011607047106002403D000020400F0020A5
:1025900000003D201064024021B1026842F4802214
:1025A000026003E0026822F480220260704722B1D8
:1025B000036843F40023036003E0036823F400236B
:1025C000036001617047014600200A6802F00102C1
:1025D0000AB1012000E0002070470146486880B23F
:1025E0007047014600200A6802F400220AB1012067
:1025F00000E000207047000030B503460A46002086
:1026000000240B4DAB4201D20A4901E008491039C0
:1026100002F000550DB14C6800E00C68064D2C40EE
:1026200004EA02050DB1012000E0002030BD0000E9
:1026300010640240006002407D0F7D0F10B501F074
:1026400080034BB122B1436943F08003436103E04F
:10265000436923F08003436180290BD02AB10368CA
:1026600001F01E042343036004E0036801F01E042C
:10267000A343036010BD000010B500220268134B95
:102680001A40CC680B6823434C6923438C6923436D
:10269000CC6923430C6A23434C6A23438C6A23434B
:1026A0004C6B23438C6B23431A430260426922F034
:1026B0000702D1E90B3423431A4342610B6943609B
:1026C0004B6883608B68C36010BD00003F801CF0C6
:1026D000416070477047000010B5044604EBC40029
:1026E000454901EB8000006804EBC401424A02EB5B
:1026F0008101486008F0B0FF04EBC4013E4A02EBE0
:102700008101086004EBC400114601EB8000C07C2D
:10271000C0F38010B0B104EBC40001EB8000C07CBA
:1027200020F0400004EBC40102EB8101C87404EB0B
:10273000C400114601EB8000006804EBC40102EB09
:102740008101C86004EBC4002B4901EB8000806963
:1027500090B304EBC401284A02EB810188698047E9
:1027600058B304EBC400244901EB8000C07C20F086
:102770002000203004EBC4011F4A02EB8101C87421
:1027800004EBC400114601EB8000C07C20F0800007
:10279000803004EBC40102EB8101C87404EBC40077
:1027A000114601EB8000006A28B304EBC40102EB80
:1027B0008101086A80471EE00FE0FFE704EBC400D8
:1027C0000D4901EB8000C07C20F0800004EBC401C7
:1027D000094A02EB8101C8740DE004EBC40006490C
:1027E00001EB8000C07C20F0800004EBC401024AB1
:1027F00002EB8101C87410BDE00D022010B54FF44A
:10280000807000F011F840B14FF4807000F006F8CD
:1028100006F068F9172002F097FB10BD0149086027
:1028200070470000143C014001460020034A126832
:102830000A400AB1012000E000207047143C01402A
:10284000002123498279002A3AD00A461268036897
:102850009A430B461A600A1D126803689A430B1DBF
:102860001A60027911440A6803681A430A60184A18
:102870000832126803689A43154B08331A601A1D10
:10288000126803689A43124B0C331A604279102A7B
:102890000ED11A1F126803681A430D4B08331A60D1
:1028A0001A1D126803681A43094B0C331A600DE0B5
:1028B0000749427911440A6803681A430A6005E02F
:1028C000027911440A6803689A430A60704700005D
:1028D000003C014001490860704700000C3C024088
:1028E00070B504460A460026092502B909E0012A06
:1028F00001D1160205E0022A01D1160201E04FF4CF
:10290000407600F09FF80546092D28D1154800684B
:1029100020F440701349086008460068304308609E
:102920000846006820F0F80008600846006844F097
:10293000020108430B4908600846006840F48030F3
:10294000086000F07FF805460648006820F00200A5
:10295000044908600846006820F0F800086028462E
:1029600070BD0000103C024009201349096801F4C1
:102970008031B1F5803F01D101201CE00E4909688A
:1029800001F0100109B1062015E00B49096801F4B6
:10299000807109B102200EE00749096801F0E001E9
:1029A00009B1072007E00449096801F0020109B1F3
:1029B000082000E0092070470C3C024003480068F2
:1029C00040F000400149086070470000103C0240A0
:1029D00030B502460C46092500F034F80546092DAD
:1029E00019D10E48006820F440700C490860084670
:1029F000006840F4007008600846006840F001007C
:102A00000860146000F01EF805460448006820F0D5
:102A1000010002490860284630BD0000103C024019
:102A20000548006800F0004028B1044802490C390C
:102A30000860034808607047103C02402301674566
:102A4000AB89EFCD08B509200090FFF78DFF00900E
:102A500002E0FFF789FF00909DF800000128F8D000
:102A60009DF8000008BD0000C92007F039FF00F004
:102A70009BFE07F0A3FA04E0012007F031FF00F00D
:102A800073FF012007F03EFD0028F5D1022007F07A
:102A900039FD0028F0D1032007F034FD0028EBD1E8
:102AA0000EE001F057F800F05FFF00F0C1FA07F008
:102AB0007FF90449088000F029FF012007F010FF8A
:102AC000EFE700001C01002000B585B001210220C5
:102AD00001F06EFE0121880301F09AFE0821012019
:102AE00002F02AFB4FF48070009000208DF8040063
:102AF00001208DF8060000208DF8070003208DF8D6
:102B000005006946114800F023F84FF480700290E8
:102B100000208DF80C0008208DF80D0001208DF8A4
:102B20000E0002A8FFF78CFE17208DF8100005207C
:102B30008DF8110000208DF8120001208DF813008F
:102B400004A801F0A5FC05B000BD0000000402408F
:102B5000F0B50A4600210023002400BF3DE0012516
:102B600005FA01F3156805EA03049C4234D10568AF
:102B70004F000326BE40B543056015794E00B540B1
:102B80000668354305601579012D02D01579022DAF
:102B900016D185684F000326BE40B5438560557940
:102BA0004E00B540866835438560456801268E40F5
:102BB000B5434560456896798E40B6B23543456069
:102BC000C5684F000326BE40B543C560D5794E00A9
:102BD000B540C6683543C560491C1029BFD3F0BD58
:102BE000F0B5002300244D07ED0E02FA05F3CE10D8
:102BF00000F1200555F826504E07F70E0F26BE406F
:102C0000B543CF1000F1200646F82750CE1000F152
:102C1000200555F8265045EA0304CE1000F12005A2
:102C200045F82640F0BD418370470183704700009E
:102C3000014600205C4A914203D2B1F1006F00D3FB
:102C4000B0E05A4A914204D2574A914201D3082037
:102C5000A8E0574A914204D2544A914201D310202D
:102C6000A0E0544A914204D2514A914201D3182023
:102C700098E0514A914204D24E4A914201D3202019
:102C800090E04E4A914204D24B4A914201D328200F
:102C900088E04B4A914204D2484A914201D3302005
:102CA00080E0484A914204D2454A914201D33820FB
:102CB00078E0454A914204D2424A914201D34020F1
:102CC00070E0424A914204D23F4A914201D34820E7
:102CD00068E03F4A914204D23C4A914201D35020DD
:102CE00060E0B1F1016F04D2394A914201D358201A
:102CF00058E0384A914204D2B1F1016F01D38020EB
:102D000050E0354A914204D2324A914201D38820A0
:102D100048E0324A914204D22F4A914201D3902096
:102D200040E02F4A914204D22C4A914201D398208C
:102D300038E02C4A914204D2294A914201D3A02082
:102D400030E0294A914204D2264A914201D3A82078
:102D500028E0264A914204D2234A914201D3B0206E
:102D600020E0234A914204D2204A914201D3B82064
:102D700018E0204A914204D21D4A914201D3C0205A
:102D800010E01D4A914204D21A4A914201D3C82050
:102D900008E01A4A914204D2174A914201D3D02046
:102DA00000E0D820704700000040000800800008C4
:102DB00000C000080000010800000208000004082C
:102DC000000006080000080800000A0800000C08BF
:102DD00000000E08004010080080100800C0100815
:102DE0000000110800001208000014080000160876
:102DF0000000180800001A0800001C0800001E0847
:102E000030B5034613B94FF6FF7030BD09E013F833
:102E1000014B82EA0400C0B2054D35F8100080EA8B
:102E20002222081EA1F10101F1D11046EDE70000B8
:102E300020BC000830B5034605E013F8010B80EA1A
:102E400002040448025D081EA1F10105A9B2F4D1F3
:102E5000104630BD1FBB0008014600205D4A91426C
:102E600004D2B1F1006F01D31046B2E05A4A914248
:102E700004D2584A914201D35748AAE0574A914296
:102E800004D2554A914201D35448A2E0544A914297
:102E900004D2524A914201D351489AE0514A914298
:102EA00004D24F4A914201D34E4892E04E4A914299
:102EB00004D24C4A914201D34B488AE04B4A91429A
:102EC00004D2494A914201D3484882E0484A91429B
:102ED00004D2464A914201D345487AE0454A91429C
:102EE00004D2434A914201D3424872E0424A91429D
:102EF00004D2404A914201D33F486AE03F4A91429E
:102F000004D23D4A914201D33C4862E0B1F1016FE5
:102F100005D23A4A914202D34FF0016059E0384A53
:102F2000914204D2B1F1016F01D3104651E0354A0C
:102F3000914204D2324A914201D3324849E0324AA6
:102F4000914204D22F4A914201D32F4841E02F4AA7
:102F5000914204D22C4A914201D32C4839E02C4AA8
:102F6000914204D2294A914201D3294831E0294AA9
:102F7000914204D2264A914201D3264829E0264AAA
:102F8000914204D2234A914201D3234821E0234AAB
:102F9000914204D2204A914201D3204819E0204AAC
:102FA000914204D21D4A914201D31D4811E01D4AAD
:102FB000914204D21A4A914201D31A4809E01A4AAE
:102FC000914204D2174A914201D3174801E04FF0D1
:102FD00002607047004000080080000800C0000840
:102FE00000000108000002080000040800000608B4
:102FF0000000080800000A0800000C0800000E0885
:10300000004010080080100800C0100800001108DF
:10301000000012080000140800001608000018083C
:1030200000001A0800001C0800001E08704700007D
:1030300010B586B09FED620A8DED050A9FED600A1E
:103040008DED040A002402A903A805F0F5F96946EC
:1030500001A805F0C3F95B48807A022800D044B18A
:103060009DED010A8DED050A9DED000A8DED040A26
:1030700007E09DED030A8DED050A9DED020A8DED39
:10308000040A5048407A48B101280AD002280ED0DC
:10309000032812D1FFF7CAFF06B010BD00F0F8FBFD
:1030A0000BE0224605A904A800F084FA05E02246B8
:1030B00005A904A800F090F800BF00BF414890F8AF
:1030C000B200E0BB3F4890ED090ADFED3F0AB4EEE5
:1030D000E00AF1EE10FA08DC90ED090ADFED3B0A98
:1030E000B4EEE00AF1EE10FA13D2364890ED090A78
:1030F000B5EEC00AF1EE10FA02D29FED350A01E0FA
:103100009FED340A8DED040A9FED2D0A8DED050A21
:103110002CE02C4890ED1D0ADFED2B0AB4EEE00AFE
:10312000F1EE10FA08DC90ED1D0ADFED280AB4EE8E
:10313000E00AF1EE10FA15D29FED210A00E027E037
:103140008DED040A1F4890ED1D0AB5EEC00AF1EEA0
:1031500010FA02D29FED1E0A01E09FED1E0A8DEDCE
:10316000050A03E00120174981F8B200154890EDE7
:103170000B0ADDED040A30EE200A80ED0B0A90ED1B
:103180001F0ADDED050A30EE200A80ED1F0A00BFA0
:103190000C4890ED290ABDEEC00A10EE100A01B2EB
:1031A0000848A0F8AA1090ED150ABDEEC00A10EE6E
:1031B000100A01B20348A0F85A1000BF6CE70000E3
:1031C00000000000240F0220CDCCCC3DCDCCCCBDE6
:1031D00017B7513A17B751BA70B504460D4616469F
:1031E000E64890ED0B0AD4ED000A30EE200A80ED9F
:1031F0000B0A90ED1F0AD5ED000A30EE200A80ED93
:103200001F0A807A07283ED2DFE800F004B43EF2BD
:10321000F0EFEE00D94890ED0B1AF0EE410A90ED78
:10322000091AB0EE410AD64801F09AF9D34880ED68
:10323000100A90ED101AF0EE410A90ED0F1AB0EE60
:10324000410AD04801F08CF9CC4880ED150A90ED88
:103250001F1AF0EE410A90ED1D1AB0EE410ACA485D
:1032600001F07EF9C54880ED240A90ED241AF0EEB5
:10327000410A90ED231AB0EE410AC34801F070F9FB
:10328000BE4880ED290A76E1CEB3BC4890ED0B1A1A
:10329000F0EE410A90ED091AB0EE410ABB4801F088
:1032A0005FF9B64880ED100A90ED101AF0EE410A71
:1032B00090ED0F1AB0EE410AB54801F051F9AF4850
:1032C00080ED150A90ED1F1AF0EE410A90ED1D1ADF
:1032D000B0EE410AAF4801F043F9A84880ED240A56
:1032E00090ED241AF0EE410A90ED231AB0EE410A57
:1032F000A84801F035F9A14880ED290A39E0FFE737
:103300009E4890ED0B1AF0EE410A90ED091AB0EECE
:10331000410A9B4801F024F9984880ED100A90ED8D
:10332000101AF0EE410A90ED0F1AB0EE410A9548DE
:1033300001F016F9914880ED150A90ED1F1AF0EE94
:10334000410A90ED1D1AB0EE410A8F4801F008F9CC
:103350008A4880ED240A90ED241AF0EE410A90ED9F
:10336000231AB0EE410A884801F0FAF8834880ED4C
:10337000290A00E1814890ED0B1AF0EE410A90ED28
:10338000091AB0EE410A7E4801F0EAF87B4880ED68
:10339000100A90ED101AF0EE410A90ED0F1AB0EEFF
:1033A000410A784801F0DCF8744880ED150A90ED88
:1033B0001F1AF0EE410A90ED1D1AB0EE410A764850
:1033C00001F0CEF86D4880ED240A90ED241AF0EE5D
:1033D000410A90ED231AB0EE410A704801F0C0F89E
:1033E000664880ED290AC6E0B3E0B1E03AE0FFE7C5
:1033F000624890ED0B1AF0EE410A90ED091AB0EE1A
:10340000410A624801F0ACF85C4880ED100A90ED8A
:10341000101AF0EE410A90ED0F1AB0EE410A5C4826
:1034200001F09EF8554880ED150A90ED1F1AF0EE58
:10343000410A90ED1D1AB0EE410A594801F090F88A
:103440004E4880ED240A90ED241AF0EE410A90EDEA
:10345000231AB0EE410A534801F082F8474880ED44
:10346000290A88E0454890ED1D0AF7EE080AB4EEF7
:10347000E00AF1EE10FA67D290ED1D0AFFEE080A9D
:10348000B4EEE00AF1EE10FA5EDD90ED1D0ADFED1C
:10349000460AB4EEE00AF1EE10FA0BD290ED1D0AE6
:1034A000DFED420AB4EEE00AF1EE10FA02DD002090
:1034B00032498872314890ED0B0ADFED3D0A30EE5B
:1034C000200A80ED0B0A90ED1F0ADFED370A30EE7F
:1034D000200A80ED1F0A90ED0B1AF0EE410A90EDE4
:1034E000091AB0EE410A264801F03AF8234880ED67
:1034F000100A90ED101AF0EE410A90ED0F1AB0EE9E
:10350000410A204801F02CF81C4880ED150A90ED86
:103510001F1AF0EE410A90ED1D1AB0EE410A1A484A
:1035200001F01EF8154880ED240A90ED241AF0EE03
:10353000410A90ED231AB0EE410A134801F010F849
:103540000E4880ED290A02E000200C49887212E042
:1035500011E00A4890ED0B0ADFED150A30EE200A63
:1035600080ED0B0A90ED1F0ADFED110A30EE200A04
:1035700080ED1F0A00BF00BF70BD0000240F0220B5
:10358000400200208802002068010020F003002093
:10359000380400201803002080040020C804002004
:1035A0001005002058050020CDCCCC3DCDCCCCBDA5
:1035B0000000000070B504460D461646724890EDB6
:1035C0000D0AD4ED000A30EE200A80ED0D0A90EDD0
:1035D000210AD5ED000A30EE200A80ED210A807A1A
:1035E00007283ED2DFE800F004B43EB5B7B6BB0012
:1035F000654890ED0D1AF0EE410A90ED0C1AB0EE10
:10360000410A624800F0ACFF5F4880ED100A90ED7F
:10361000101AF0EE410A90ED0F1AB0EE410A5C4824
:1036200000F09EFF584880ED150A90ED211AF0EE4B
:10363000410A90ED201AB0EE410A564800F090FF82
:10364000514880ED240A90ED241AF0EE410A90EDE5
:10365000231AB0EE410A4F4800F082FF4A4880ED3D
:10366000290A8EE0CEB3484890ED0D1AF0EE410ADB
:1036700090ED0C1AB0EE410A474800F071FF424845
:1036800080ED100A90ED101AF0EE410A90ED0F1A3D
:10369000B0EE410A414800F063FF3B4880ED150A57
:1036A00090ED211AF0EE410A90ED201AB0EE410A99
:1036B0003B4800F055FF344880ED240A90ED241A71
:1036C000F0EE410A90ED231AB0EE410A344800F0C2
:1036D00047FF2D4880ED290A39E0FFE72A4890EDA1
:1036E0000D1AF0EE410A90ED0C1AB0EE410A27488F
:1036F00000F036FF244880ED100A90ED101AF0EE2D
:10370000410A90ED0F1AB0EE410A214800F028FF5F
:103710001D4880ED150A90ED211AF0EE410A90ED5A
:10372000201AB0EE410A1B4800F01AFF164880ED3F
:10373000240A90ED241AF0EE410A90ED231AB0EE1F
:10374000410A144800F00CFF0F4880ED290A18E0E8
:1037500017E016E000BF00200B49887211E00A480C
:1037600090ED0D0ADFED0F0A30EE200A80ED0D0A14
:1037700090ED210ADFED0B0A30EE200A80ED210AE0
:1037800000BF00BF70BD0000240F022040020020D7
:1037900088020020F8010020F003002038040020F7
:1037A000A80300200000000010B53649B7EE000A5B
:1037B000354804F097FB3549B7EE000A32485030DF
:1037C00004F090FB04F0D8FD2F491439086004F090
:1037D0003FFD2D491439086604F032FD2A49143999
:1037E000086108460069018927481438A0F8441088
:1037F0000069008800EE100AB8EE400A224814382A
:1038000080ED130A006E01891F481438A0F8941047
:10381000006E008800EE100AB8EE400A1A4814380C
:1038200080ED270A0069008841F27071884205DD49
:1038300000211548143880F85C1004E0012112487A
:10384000143880F85C1010481438006E0088B0F509
:10385000805F05DD00210C48143880F8AC1004E0CE
:1038600001210948143880F8AC10002006491439A9
:10387000A1F8B00004F0C8FC03491439486000F016
:1038800073F810BD50BE0008380F022054BE000867
:103890009FED1C0A1C4880ED100A90ED090A80ED8E
:1038A0000B0A90ED130ABDEEC00A10EE100A01B229
:1038B0001548A0F844109FED130A80ED150A002169
:1038C000A0F85A109FED0F0A80ED240A90ED1D0A12
:1038D00080ED1F0A90ED270ABDEEC00A10EE100A17
:1038E00001B20948A0F894109FED060A80ED290A5C
:1038F0000021A0F8AA100020034981F8B200A1F825
:10390000B000704700000000240F022010B51348DB
:10391000B0F8AA00124908801048B0F85A001149BE
:103920000880012006F0EEFD38B1022006F0EAFD25
:1039300018B1032006F0E6FD78B90848407A30B99E
:1039400000231A4619461846FDF788FD05E00023B6
:103950001A4619461846FDF781FD10BD240F0220B6
:10396000180100201A01002070B52DED028B04F023
:103970005FFC044604F060FC05467248407A01286A
:1039800055D19FED710AB0EE408A94ED001AF0EE29
:10399000410A6C4890ED261AB0EE410AAC3004F0B2
:1039A000BBFD684880ED280A94ED011AF0EE410A4B
:1039B00090ED121AB0EE410A5C3004F0ADFD6148A2
:1039C00080ED140A90ED0C0A80ED0E0A90ED200AAD
:1039D00080ED220A90ED280AB0F9B000400000EE18
:1039E000900AF8EEE00A9FED591A00EE810AB0EE57
:1039F000408A5448D0ED220AB0EE600AB030F0EEB2
:103A0000480A03F075FE4F4880ED200A95ED000A44
:103A100080ED230A95ED010A80ED0F0A94ED000A6E
:103A200080ED260A94ED010A80ED120A7EE04548F9
:103A3000407A022871D19FED440AB0EE408A414A93
:103A4000B2F8442091B23F4A126910883D4B5C3372
:103A500040F6882204F0E0F93A4880ED130A024665
:103A6000B2F8942091B20246126E1088354BAC33F6
:103A700040F28F2204F0D0F9324880ED270A90ED11
:103A8000090A80ED0A0A90ED1D0A80ED1E0A90EDEC
:103A9000270AB0F9B000400000EE900AF8EEE00A04
:103AA0009FED2A1A00EE810AB0EE408A2548D0ED3B
:103AB0001E0AB0EE600AB030F0EE480A03F018FEBD
:103AC000204880ED1D0A0069B0F9020000EE100ADE
:103AD000B8EEC00ADFED1E0A20EE200A194880ED7C
:103AE0000F0A006EB0F9020000EE100AB8EEC00A2C
:103AF000DFED170A20EE200A124880ED230A006E3F
:103B0000008801B20F48A0F894100069008801B243
:103B10000C48A0F8441009E0FFE70A4890ED100AAD
:103B200080ED0F0A90ED240A80ED230A0548B0F8D5
:103B3000AA10A0F8A810B0F85A10A0F85810BDECC0
:103B4000028B70BD240F022000000000DB0F4940F3
:103B50002316493A70B50024002500262D4909682E
:103B6000C87A06F074FC18B100202A4908720CE0EB
:103B700028490968C87A06F07EFC18B10120254959
:103B8000087202E00020234908722248007AE8B94E
:103B900020490968887A06F05AFC08B1022411E02D
:103BA0001C490968887A06F066FC08B1012409E01E
:103BB00018490968887A022801D1012100E0002112
:103BC00001B100240020134988720DE011480068FB
:103BD000807DC0F3C01000B102240E480068807ED2
:103BE000C0F3801000B101250A4844728572407A02
:103BF0000849C97A884204D0064A517AD07A04F03A
:103C000019FC0448407A0349C8720846807A087350
:103C100070BD0000240F022000BFFEE7F0B505468E
:103C2000059C00207FE093ED050A00EB4006404F25
:103C300007EB8606D6ED000A20EE200AD3ED060A31
:103C400000EB400607EB860696ED011A00EE810AAE
:103C5000D3ED070A00EB400607EB860696ED021A45
:103C600000EE810A334E06EB8006D6ED000A30EEF8
:103C7000200A05EB800686ED000A93ED010A00EBB1
:103C800040062D4F07EB8606D6ED000A20EE200AEF
:103C9000D3ED020A00EB400607EB860696ED011A0B
:103CA00000EE810AD3ED030A00EB400607EB86061F
:103CB00096ED021A00EE810A204E06EB8006D6ED44
:103CC000000A30EE200A01EB800686ED000A94ED32
:103CD000010A00EB40061A4F07EB8606D6ED000AF4
:103CE00020EE200AD4ED020A00EB400607EB860620
:103CF00096ED011A00EE810AD4ED030A00EB4006AE
:103D000007EB860696ED021A00EE810A0D4E06EBD1
:103D10008006D6ED000A30EE200A02EB800686ED22
:103D2000000A461CF0B20328FFF67DAFF0BD00008C
:103D3000A80500201C100220CC050020281002201D
:103D4000F00500204410022010B52DED028BB0EEDE
:103D5000408A2748007838B304F0F6FA00EE100ADB
:103D6000B8EEC00AF0EE408AF0EE680AB0EE480AFB
:103D7000204800F0F5FB1F4890ED080AB5EEC00A98
:103D8000F1EE10FA03D29FED1C0A80ED080A1948E3
:103D900090ED080ABCEEC00A10EE100A84B221466B
:103DA000164801F02EFF20E004F0CEFA00EE100AD3
:103DB000B8EEC00AB4EEC80AF1EE10FA10D21048FC
:103DC0000078401C0E49087008460078C82807DDB6
:103DD0000120074908709FED0B0A064880ED0A0A8A
:103DE00041F28731054801F00CFFBDEC028B10BD9C
:103DF0001406002090100220000000000004004083
:103E00001806002000401C4508B5072006F068FD94
:103E100000BF04F09DFE0028FBD100BF04F09EFC13
:103E20000028FBD104F0DAFF044607F0B3FBA549F4
:103E30000860FEF749FE1722A349A44801F0BEF826
:103E400001221146A24801F041F901220221A048B5
:103E500001F03CF90021102001F05EF831E100BFD3
:103E60004FF0FF31012006F059FB0128F8D19949A4
:103E70009548401C04F0DAFE97499348103004F04E
:103E8000B5FC9548934B954A954900909548FFF7A6
:103E9000C5FE9048007800F00100002846D0924806
:103EA0000078E8BB012141F2883001F0EFFBDFED43
:103EB0008F0A9FED8E0A8E4A01218E4800F048FC41
:103EC000864A87498C48FCF7F9FE8C4B1A1F111F54
:103ED000894804F0C1F9824890ED000A884880EDD5
:103EE000000A884880ED000A874880ED000A7C4877
:103EF00090ED010A824880ED010A824880ED010AB6
:103F0000814880ED010A764890ED020A7C4880EDF8
:103F1000020A7C4880ED020A7B4880ED020A00E03C
:103F200005E071480078401C6F490870BBE0754897
:103F300090ED000A744880ED000A714890ED000A87
:103F4000704880ED000A90ED000A7048D0ED000A3C
:103F500020EE200A6C48D0ED000A6C4890ED011A62
:103F600000EE810A5E48D0ED000A684890ED021A22
:103F700000EE810A624880ED000A624890ED010A75
:103F8000614880ED010A5E4890ED010A5D4880EDD0
:103F9000010A90ED010A5D48D0ED000A20EE200AEA
:103FA0005948D0ED010A594890ED011A00EE810AF6
:103FB0004B48D0ED010A554890ED021A00EE810AF7
:103FC0004F4880ED010A4F4890ED020A4E4880EDBF
:103FD000020A4B4890ED020A4A4880ED020A90ED31
:103FE000020A4A48D0ED000A20EE200A4648D0EDE9
:103FF000020A464890ED011A00EE810A3848D0EDD9
:10400000020A424890ED021A00EE810A3C4880ED17
:10401000020A324B024633499FED3D0A3648FCF70F
:10402000C5FF364B1A1F111F334804F015F93948E4
:104030000088B8B9384890ED000A384880ED000A89
:10404000354890ED010A354880ED010A324890ED7F
:10405000020A324880ED020A2E480088401C2D4991
:10406000088020E02B480088B0F5FA7F0FDA42F292
:1040700010715F2003F02EFB2948007898B1154895
:104080000278244B1749254804F09CFA0BE021489C
:104090000088B0F5FA7F06D103F014FB1D480088B4
:1040A000401C1C4908800B48D0ED040AB0EE600AA1
:1040B000FFF74AFE00F038F8002006F0BBFA194975
:1040C0000860CCE6A0050020D80F022058BE0008EA
:1040D00000500140F00F022034100220681002202E
:1040E0005C10022050100220150600200000000085
:1040F00070BE000890100220801002207C10022068
:104100001411022008110220FC1002207CBE0008BD
:104110006F12833A16060020101002201C10022095
:1041200014060020A40500201B4890ED000A1B483F
:1041300080ED000A184890ED010A184880ED010A48
:10414000154890ED020A154880ED020A144890EDDA
:10415000000A124880ED030A114890ED010A0F4849
:1041600080ED040A0E4890ED020A0C4880ED050A25
:104170000C4890ED000A094880ED060A094890EDC8
:10418000010A064880ED070A064890ED020A034836
:1041900080ED080A7047000074100220D810022039
:1041A000501002205C10022070B506460C461546E1
:1041B0001548007838B3288888B9144890ED000A6B
:1041C000134880ED000A114890ED010A104880ED77
:1041D000010A0E4890ED020A0D4880ED020A0D48D2
:1041E00002782B460C490A4804F0ECF9084890ED97
:1041F000000A84ED000A90ED010A84ED010A90EDB9
:10420000020A84ED020A70BD14060020101002207C
:104210001C100220F00F02205010022091ED000A25
:10422000054A82ED000A91ED010A82ED010A91ED45
:10423000020A82ED020A70471010022070B504468F
:10424000002500262078A52878D10521204601F0F8
:10425000F1FF002872D0607800F109052946204658
:1042600001F0C8FF002869D0A079617940EA0126F1
:10427000B6F5017F4FD026DCB6F5817F40D010DC4B
:10428000042E3AD006DC012E34D0022E33D0032E79
:1042900053D131E0052E31D0A6F2011000284CD1C7
:1042A0002DE040F20121701A8E422CD006DCB6F5CA
:1042B000827F26D0A6F20510F8B923E0012828D085
:1042C00002283AD126E040F20A21701A8E422ED0FE
:1042D00008DCA6F2052005282FD2DFE800F01D1E1D
:1042E0001F252700F738052827D2DFE800F0212214
:1042F0002324250021E020E01FE01EE01DE01CE05B
:104300001BE01AE019E06278E11D0D48FCF746F861
:1043100013E012E011E010E00FE00EE06278E11D22
:104320000848FCF73BF808E007E007E005E004E098
:1043300003E002E001E000E000BF00BF70BD00004C
:10434000561202206106002000B58FB001214805F9
:1043500000F02EFA1748FEF773F84FF02060009037
:10436000002003901448019014480290002003900C
:1043700064200490002005904FF480600690002097
:10438000079008904FF4807009904FF440300A90E5
:1043900004200B9003200C9000200D900E90694695
:1043A0000448FEF769F901210248FEF73DF80FB015
:1043B00000BD0000A0600240047C0040DC09022037
:1043C00000B587B00121102000F0F2F90121C807E3
:1043D00000F0FEF9082200212948FEF701FC08221E
:1043E00001212748FEF7FCFB02208DF80800002081
:1043F0008DF80A000320019001208DF80B000320A6
:104400008DF8090001A91E48FEF7A2FB4FF4E13028
:1044100003900020ADF81000ADF81200ADF81400C4
:104420000C20ADF816000020ADF8180003A91548BF
:1044300001F0F4FD0121134801F007FD012240F2D3
:104440002441104801F0C5FD012240210D4801F032
:1044500008FD012280210B4801F003FDFFF774FFE6
:1044600053208DF8000000208DF801008DF8020027
:1044700001208DF80300684600F00AF807B000BD7F
:1044800000100240007C004000BFFEE770470000C3
:1044900070B5002100230F22C4781CB3174C246888
:1044A00004F4E064C4F5E064C4F30721C1F104043A
:1044B000E3B20A4144789C40E1B28478144021433D
:1044C0000C07210E0E4C05786155047804F01F0589
:1044D0000124AC4005786D11AD0005F1E025C5F86B
:1044E000004109E0047804F01F050124AC40054DAB
:1044F0000678761145F8264070BD00000CED00E00E
:1045000000E400E080E100E002490143024A11605A
:10451000704700000000FA050CED00E01CB5012119
:10452000302000F045F90320009001208DF80400B0
:1045300000208DF8060002208DF8050001208DF87E
:10454000070069460448FEF703FB302000906946E7
:104550000248FEF7FDFA1CBD0014024000100240A4
:10456000B0EE401A10B99FED790A704790ED100A2D
:1045700080ED110A90ED0F0A80ED100AC0ED060AD9
:1045800080ED071A30EEC10A80ED0F0A017800298C
:1045900075D190ED010AD0ED0F1A20EE210A80EDC1
:1045A000090A90ED0A0AD0ED021A90ED0F2A01EEE9
:1045B000820A80ED0A0A90ED0D0A80ED0E0A90ED58
:1045C0000C0A80ED0D0A90ED0F0AD0ED101A30EEB6
:1045D000610A80ED0C0A90ED030AD0ED0C1A20EE72
:1045E000210A80ED0B0A90ED0A0AD0ED051AB4EE0F
:1045F000E10AF1EE10FA04DD90ED050A80ED0A0AF9
:1046000010E090ED0A0AD0ED051AF1EE611AB4EE51
:10461000E10AF1EE10FA05D290ED050AB1EE400A7A
:1046200080ED0A0A90ED090AD0ED0A1A30EE210A4F
:10463000D0ED0B1A30EE210A80ED080A90ED080A41
:10464000D0ED041AB4EEE10AF1EE10FA04DD90EDBB
:10465000040A80ED080A76E090ED080AD0ED041A0D
:10466000F1EE611AB4EEE10AF1EE10FA6BD290EDC0
:10467000040AB1EE400A80ED080A64E0FFE7017821
:10468000012960D190ED0F0AD0ED101A30EE610AC9
:10469000D0ED011A20EE210A80ED090A90ED020A00
:1046A000D0ED0F1A20EE210A80ED0A0A90ED0D0AD6
:1046B00080ED0E0A90ED0C0A80ED0D0A90ED0F0AC8
:1046C000D0ED101AB0EE002A02EE610AD0ED111AF8
:1046D00030EE210A80ED0C0A90ED030AD0ED0C1AA1
:1046E00020EE210A80ED0B0A90ED090AD0ED0A1A9E
:1046F00030EE210AD0ED0B1A30EE210AD0ED081A67
:1047000030EE210A80ED080A90ED080AD0ED041A77
:10471000B4EEE10AF1EE10FA04DD90ED040A80ED4A
:10472000080A10E090ED080AD0ED041AF1EE611AC3
:10473000B4EEE10AF1EE10FA05D290ED040AB1EE02
:10474000400A80ED080A90ED080A0EE7000000001C
:1047500000B102B97047017092ED001A80ED011AA4
:1047600092ED011A80ED021A92ED021A80ED031A01
:1047700080ED040AC0ED050A9FED0C1A80ED0E1ABB
:1047800080ED0D1A80ED0C1A9FED081A80ED081AC5
:1047900080ED0B1A80ED0A1A80ED091A80ED111ACE
:1047A00080ED101A80ED0F1A00BFD3E70000000063
:1047B00029B1064A12680243044B1A6004E0034A16
:1047C00012688243014B1A60704700003038024083
:1047D00029B1064A12680243044B1A6004E0034AF6
:1047E00012688243014B1A60704700004038024053
:1047F00029B1064A12680243044B1A6004E0034AD6
:1048000012688243014B1A60704700002038024052
:1048100029B1064A12680243044B1A6004E0034AB5
:1048200012688243014B1A6070470000443802400E
:1048300029B1064A12680243044B1A6004E0034A95
:1048400012688243014B1A6070470000243802400E
:10485000F0B5002100220024022500260223324F59
:104860003F6807F00C0121B1042905D0082937D190
:1048700005E02E4F076036E02D4F076033E02A4FEA
:104880003F1F3F68C7F38056274F3F1F3F6807F021
:104890003F036EB1264FB7FBF3F7DFF88CC0ACF1E6
:1048A000040CDCF800C0CCF3881C07FB0CF40CE013
:1048B0001E4FB7FBF3F7DFF870C0ACF1040CDCF867
:1048C00000C0CCF3881C07FB0CF4174F3F1F3F6858
:1048D000C7F301477F1C7D00B4FBF5F7076002E0DA
:1048E000124F076000BF00BF0F4F3F6807F0F00195
:1048F0000909104F7A5C0768D74047600A4F3F6844
:1049000007F4E051890A0B4F7A5C4768D74087600B
:10491000054F3F6807F46041490B064F7A5C4768D2
:10492000D740C760F0BD0000083802400024F40002
:10493000001BB7001400002070B590B004460E466E
:10494000154601214A48FFF733FF01211020FFF7E8
:104950005FFF01211020FFF76BFF00211020FFF700
:1049600067FF072211464348FEF73AF980200E9070
:1049700002208DF83C0000208DF83E0003208DF8C9
:104980003D0000208DF83F000EA93A48FEF7E0F800
:10499000394801F06FFA39480A900020ADF82C0030
:1049A000ADF82E004FF48060ADF830000420ADF873
:1049B00032000020ADF834000AA92F4801F02EFB88
:1049C000012240212C4801F04CFA10212A4801F024
:1049D00033FA012240F22441274801F0FAFA01217A
:1049E000254801F032FA25208DF83C0004208DF88E
:1049F0003D0000208DF83E0001208DF83F000FA8FB
:104A0000FFF746FD1E48FDF71BFD4FF000600190CB
:104A10001948001D0290039400200490059506900B
:104A20004FF4806007900020089009904FF4807048
:104A30000A904FF440300B9000200C900D900E9097
:104A40000F9001A90E48FDF717FE002231460C48D1
:104A5000FDF7ADFD01210A48FDF79EFD0021084844
:104A6000FDF7E2FC01210648FDF7DEFC10B070BD49
:104A7000020040000004024000100140A086010036
:104A80004064024010B50020AE49087017E0AD4800
:104A9000007800EB800101EBC000AB4908440079CD
:104AA000C00938B10020A9490880A9490880A9494E
:104AB000087010BDA3480078401CA2490870A148A6
:104AC00000780528E3DBA348007878B9A04800887F
:104AD000B0F5FA6F0ADD06F0BFFD9F4908600120BE
:104AE0009C49087000209A4908803BE0994800786A
:104AF000022811D196480088B0F5FA6F0CDD00202D
:104B000094490870924908808F48407C20F08000CA
:104B100080308D49487425E08E480078032821D1E3
:104B20008B480088B0F5FA6F1CDD002089490870B9
:104B3000874908808448807F20F080008030824947
:104B4000887703F01DFCBDEEC00A10EE100A0A3093
:104B500040B282494870084690F901002D2801DDD5
:104B60002D2048707E480068B0F9000010F5167FCF
:104B700029DA7B480068B0F9020010F5167F22DAC6
:104B800077480068B0F90400B0F5167F1BDD744863
:104B90000068B0F9060010F5167F14DA704909684C
:104BA000887A05F03FFC70B16D490968C87A05F054
:104BB00039FC40B16748007828B965480088401C36
:104BC000634908806AE066480068B0F90000B0F503
:104BD000167F2CDD62480068B0F90200B0F5167F40
:104BE00025DD5F480068B0F9040010F5167F1EDA75
:104BF0005B480068B0F90600B0F5167F17DD58492C
:104C00000968887A05F00EFC88B155490968C87AA8
:104C100005F008FC58B14F48007840B14C48008876
:104C2000401C4B49088002204A49087036E04C4835
:104C30000068B0F90000B0F5167F2CDD4848006828
:104C4000B0F9020010F5167F25DA45480068B0F982
:104C5000040010F5167F1EDA41480068B0F906001E
:104C600010F5167F17DA3E490968887A05F0DAFBF5
:104C700088B13B490968C87A05F0D4FB58B135487A
:104C8000007840B132480088401C31490880032038
:104C90003049087002E000202D49088006F0DCFC55
:104CA00030490860084600682B490968401A44F6F4
:104CB0002061884203D9002026490870F9E6294876
:104CC000006825490968401A42F2107188420AD9E1
:104CD0002148006838B11F48007820B149001F20E2
:104CE00002F0F8FC10E01F4800681B490968401AF0
:104CF0000AD01948006838B11648007820B142F24D
:104D000010715F2002F0E6FC1248007820B10F48D5
:104D10000088401C0D4908800C480088B0F5C87F09
:104D200005DD0C48007810B10020084908800748CC
:104D30000088C82804DD0748007808B102F0C2FCEA
:104D400000BFB6E6F5000020000B0220FC000020AA
:104D5000FE00002000010020F8000020B800002024
:104D6000B4000020F000002010B50021014801F03F
:104D70006CF810BD0010014070B505460C4605B139
:104D800004B970BD2878697840EA0120C0F30A00B0
:104D900020806878C010A97840EA4110C0F30A006A
:104DA0006080A8788011E97840EA8100297940EA9A
:104DB0008120C0F30A00A08028794010697940EA78
:104DC000C110C0F30A00E0806879C0F30110A0723E
:104DD000687900118108E172A879E97940EA012037
:104DE00000B2A081287A697A40EA012001B2E1810B
:104DF000A87AE97A40EA012001B22182297BA174D4
:104E0000697BE174A87BE97B40EA0120A082287CD1
:104E1000697C40EA012000B220812088A0F58060F2
:104E200000B220806088A0F5806000B26080A08819
:104E3000A0F5806000B2A080E088A0F5806000B29C
:104E4000E0802089A0F5806000B22081204603F038
:104E50000FFD00BF95E7000000B587B001212020BD
:104E6000FFF7A6FC01210805FFF7D2FC4FF46070A4
:104E7000059002208DF8180000208DF81A000120FE
:104E80008DF81B0003208DF8190005A92048FDF7B7
:104E90005FFE052207211E48FDF7A2FE052208211C
:104EA0001B48FDF79DFE052209211948FDF798FED4
:104EB00001210805FFF7BCFC00214FF48010FFF72B
:104EC000B7FC0020ADF800004FF48270ADF802008E
:104ED0000020ADF804000220ADF806000120ADF876
:104EE00008004002ADF80A003820ADF80C000020A0
:104EF000ADF80E000720ADF810006946054800F037
:104F0000FCF80121034800F0D5F807B000BD00000F
:104F100000140240005001400A4A12884FF2C77341
:104F20001A40084B1A801A46128802431A801A4601
:104F300012880A431A801A46128842F040021A80E8
:104F4000704700000050014010B504460021184889
:104F5000FDF76AFA002116481830FDF765FA00BF20
:104F60001348FDF730FB0028FAD100BF1048183075
:104F7000FDF729FB0028F9D10E490D481830FDF73F
:104F800039FA0D490A48FDF735FA21460848FDF778
:104F90009FFB214606481830FDF79AFB0121044883
:104FA0001830FDF741FA01210148FDF73DFA10BD27
:104FB00070640240000C00203000002070B590B0FA
:104FC00005460E46144601218805FFF7F1FB4420F3
:104FD0008DF83C0005208DF83D0000208DF83E0046
:104FE00001208DF83F000FA8FFF752FA2F48FDF778
:104FF00027FA00BF2D48FDF7E6FA0028FAD14FF056
:10500000606000902A48019002960020039004946A
:1050100005904FF48060069000200790089009905A
:105020004FF440300A9000200B900C900D900E90A1
:1050300069461E48FDF720FB012210211B48FDF7A1
:10504000FDFA00211948FDF7EFF918481838FDF767
:10505000F7F900BF15481838FDF7B5FA0028F9D15F
:105060004FF080600090124801900295402003901C
:105070000494002005904FF4806006900020079073
:10508000089009904FF480300A9000200B900C900B
:105090000D900E90694605481838FDF7EDFA00218D
:1050A00002481838FDF7C0F910B070BD886402409E
:1050B0000C50014021B1028842F04002028004E01D
:1050C00002884FF6BF731A40028070471AB1838876
:1050D0000B43838002E083888B43838070470246C2
:1050E000002013890B400BB1012000E00020704725
:1050F0000146888970478181704710B50022028877
:1051000002F441520B884C8823438C882343CC887B
:1051100023430C8923434C8923438C892343CC8923
:1051200023431A430280838B4FF2FF74234083830F
:105130000B8A038210BD000030B500228B071C0FC4
:105140000F2303FA04F20B4B8C1053F824309343D3
:10515000084C8D1044F8253023468C1053F8243029
:105160008C07240F00FA04F42343024C8D1044F8FA
:10517000253030BD083801400CB50020019000906A
:105180004148006840F480303F49086000BF3E4815
:10519000006800F4003000900198401C01900098D5
:1051A00018B90198B0F5A04FF1D13748006800F464
:1051B000003010B10120009001E000200090009824
:1051C000012860D130484030006840F080502E49BE
:1051D000403108602D48006840F440402B49086089
:1051E00029480830006828490831086008460068E6
:1051F00040F4004008600846006840F4A050086091
:105200002348091F0860081F006840F08070091FCC
:10521000086000BF1C48006800F000700028F9D04A
:105220001A48006840F480301849086000BF1748E9
:10523000406800F480300028F9D01448006840F439
:1052400000301249086000BF1048406800F4003088
:105250000028F9D040F205700E4908600A4808306D
:10526000006820F00300084908310860084600681B
:1052700040F00200086000BF03480830006800F0FA
:105280000C000828F8D10CBD003802400070004026
:10529000062D4008003C024010B5734890ED000A0E
:1052A000724880ED000A724890ED000A6E4880ED69
:1052B000000A704890ED000A6B48D0ED000A20EE1D
:1052C000200A6C48D0ED010A684890ED001A01EE02
:1052D000200A6948806AB0F9020000EE900AF8EEF0
:1052E000E00A9FED661A60EE810A624890ED021AAC
:1052F00000EE810A5E4880ED000A90ED000A5E48EB
:1053000080ED0B0A806A00885B49896AB1F9081050
:10531000401AB0F5805F08DD574890F83E00401E07
:1053200040B2554981F83E0012E05348806A008837
:105330005149896AB1F90810401A10F5805F07DAFF
:105340004D4890F83E00401C40B24B4981F83E0069
:10535000494890F83E00122804D1EF20464981F8D0
:105360003E0008E0444890F93E00123018B9112080
:10537000414981F83E00404890F93E00C0EB403082
:105380003D49896A0988084400EE100AB8EEC00A4F
:10539000DFED3B0A20EE200A374880ED0D0A90F839
:1053A0003F00354981F84100084690F8400081F8F7
:1053B000420034480068807C08B1012000E00020F1
:1053C0002D4981F83F002F480068C07C08B10120BA
:1053D00000E00020284981F84000084690F83F008E
:1053E00060B10846B0F84400B0F5C87F0ADA084654
:1053F000B0F84400401CA1F8440003E000201E491E
:10540000A1F844001C4890F8400068B11A48B0F870
:105410004600B0F5C87F0BDA1748B0F84600401CCC
:105420001549A1F8460003E000201349A1F8460001
:105430001548007898B113490968C87A04F0F9FF53
:1054400068B10D48B0F84800B0F5FA6F0BDA0A48B9
:10545000B0F84800401C0849A1F8480003E00020CB
:105460000549A1F8480010BD340600203006002090
:105470003806002094BE000868110220F1A23EBB4D
:10548000C2B8B2B7200600202406002010B5474954
:105490000968C87A04F0E2FF18B101204449087095
:1054A00011E042490968C87A012801D1012100E0D0
:1054B000002129B93D480068007DC0F3C01010B13B
:1054C00000203B49087039490968C87A04F0C6FFD2
:1054D00060B136480068007DC0F3801030B13448B8
:1054E000007818B901203249087012E02F49096884
:1054F000C87A04F0B3FF60B12C480068007DC0F3A7
:10550000C01030B12A480078012802D10020284973
:10551000087027480078012840D124490968C87AD2
:1055200004F087FF20B12349087804F082FF78B1A6
:10553000214890F83F0018B11F4890F8410038B159
:105540001D4890F8400060B11B4890F8420040B9F7
:105550000220174908701848B0F85A001649A1F8F7
:105560005C001548B0F84400B0F5C87F0BD0124875
:10557000B0F84600B0F5C87F05D00F48B0F8480035
:10558000B0F5FA6F0AD10A480078032806D00A4815
:1055900090F8540010B902200549087003480068CB
:1055A000C07A40B20349087010BD000020060020F8
:1055B000240600202C06002068110220042808D1AF
:1055C0004FF0E021096941F004014FF0E022116140
:1055D00007E04FF0E021096921F004014FF0E022DB
:1055E0001161704710B506F027F8012801D005F0C9
:1055F0007FFC10BD10B51548006840F470001349D9
:1056000008601348006840F001001149086000205C
:105610000F49083108600E4800680E4908400C49DF
:1056200008600D48091D0860081F006820F48020EC
:10563000091F0860002006490C310860FFF79CFD37
:105640004FF0006001498039086010BD88ED00E02E
:1056500000380240FFFFF6FE1030002410B5012193
:10566000084800F0C1F960B10121064800F0D6F801
:10567000054802684068521C40F1000002490A6077
:10568000486010BD000400401001002030B58BB010
:1056900005460C4601210220FFF79AF8012102205D
:1056A000FFF786F8022205212D48FDF799FA01211E
:1056B0000220FFF79DF800210220FFF799F81D2036
:1056C0008DF8140005208DF8150000208DF81600C7
:1056D00001208DF8170005A8FEF7DAFE681E099074
:1056E000601E80B2ADF820000020ADF82200ADF8B9
:1056F0002800012211461B4800F087F908A9194823
:1057000000F084FA2020069002208DF81C0003206F
:105710008DF81D0000208DF81E0002208DF81F005E
:1057200006A90F48FDF714FA6020ADF8000001202B
:10573000ADF802000020ADF80C006946094800F001
:10574000B5F90821074800F003FA0121054800F0E7
:1057500059F80121034800F064F80BB030BD000097
:10576000000402400004004010B50121064800F08A
:105770003BF938B10121044800F050F800210248FB
:1057800000F04FF810BD0000001000407FB5054646
:105790000C4601211020FFF71BF801211020FFF714
:1057A00027F800211020FFF723F8154800F054F8DF
:1057B000681E0290601E80B2ADF804000020ADF8B3
:1057C0000600ADF80C0001A90D4800F01FFA0122F7
:1057D00011460B4800F019F936208DF8000004201E
:1057E0008DF8010000208DF8020001208DF80300E3
:1057F0006846FEF74DFE0121014800F012F87FBD1A
:105800000010004021B1028842F08002028004E0D2
:1058100002884FF67F731A4002807047CA430282A3
:10582000704721B1028842F00102028004E0028840
:105830004FF6FE731A400280704731B1B0F8442031
:1058400042F40042A0F8442005E0B0F84420C2F33E
:105850000E02A0F84420704710B504465548844213
:1058600008D101210846FEF7E3FF00210120FEF7E1
:10587000DFFF9DE0B4F1804F08D101210846FEF71B
:10588000B7FF00210120FEF7B3FF91E04A488442B0
:1058900008D101210220FEF7ABFF00210220FEF714
:1058A000A7FF85E04548844208D101210420FEF786
:1058B0009FFF00210420FEF79BFF79E040488442CF
:1058C00008D101210820FEF793FF00210820FEF7F0
:1058D0008FFF6DE03B48844208D101211020FEF784
:1058E00087FF00211020FEF783FF61E036488442E5
:1058F00008D101212020FEF77BFF00212020FEF7A8
:1059000077FF55E03148844208D101210220FEF79B
:105910008FFF00210220FEF78BFF49E02C488442D4
:1059200009D101210804FEF783FF00214FF48030E4
:10593000FEF77EFF3CE02748844209D1012148045C
:10594000FEF776FF00214FF40030FEF771FF2FE0E5
:105950002148844209D101218804FEF769FF002112
:105960004FF48020FEF764FF22E01C48844208D1F7
:1059700001214020FEF73CFF00214020FEF738FFC8
:1059800016E01748844208D101218020FEF730FF3D
:1059900000218020FEF72CFF0AE01248844207D144
:1059A00001218015FEF724FF0021A015FEF720FF3E
:1059B00010BD00000000014000040040000800404D
:1059C000000C0040001000400014004000040140A2
:1059D00000400140004401400048014000180040E0
:1059E000001C00400020004030B50246002000238B
:1059F0000024158A05EA0103958905EA010413B11B
:105A00000CB1012000E0002030BD1AB183890B43A6
:105A1000838102E083898B438381704770B50024C2
:105A200000220023058C4FF6FE7635400584028C5B
:105A30008388048B4FF68F752C40B51E2C400D8843
:105A40002C43751E2A408D892A434D882A43104DC8
:105A5000A84202D00F4DA84213D14FF6F7752A4045
:105A6000CD892A434FF6FB752A408D882A434FF68D
:105A7000FF652B404FF6FF552B400D8A2B434D8A77
:105A80002B43838004838D684563028470BD0000CE
:105A900000000140000401400A460021018B4FF63E
:105AA000F7731940114301837047000070B500245B
:105AB00000220023058C4FF6EF7635400584028CDA
:105AC0008388048B48F6FF752C404FF6FF452C4029
:105AD0000D884FF6FF7606EA05252C434FF6DF7555
