:020000040800F2
:10000000F01802207D020008DD3F000805370008D7
:10001000D93F0008510C0008A55700080000000057
:10002000000000000000000000000000C501000802
:10003000612300080000000019020008D54B0008E9
:10004000A1020008A1020008A1020008A102000804
:10005000A1020008A1020008A1020008A1020008F4
:10006000A1020008A1020008A1020008A1020008E4
:10007000A1020008A1020008A1020008A1020008D4
:10008000A1020008A1020008A1020008A1020008C4
:10009000550C0008A1020008A10200083D25000837
:1000A000A1020008A1020008A1020008A1020008A4
:1000B000A10200084D4C0008A1020008A10200089E
:1000C000A1020008A1020008A1020008A102000884
:1000D000A102000879530008A1020008A10200084B
:1000E000A1020008A1020008A1020008A102000864
:1000F000A1020008A1020008A1020008A102000854
:10010000A1020008A1020008A1020008A102000843
:10011000A1020008A1020008594D0008A102000830
:10012000A1020008A1020008A1020008A102000823
:10013000A1020008A1020008A1020008A102000813
:10014000950D0008A1020008A1020008A102000804
:10015000F11F0008A1020008A1020008695400086C
:10016000A1020008A1020008A1020008A1020008E3
:10017000A1020008A1020008A1020008000000007E
:10018000A1020008A102000881520008FD520008E7
:10019000A1020008A1020008A1020008A1020008B3
:1001A0000000000000000000A1020008DFF810D0ED
:1001B00000F086F900480047C9750008AFF30080D9
:1001C000F01802202A4B19680868B0E8F04F80F355
:1001D0000988BFF36F8F4FF0000080F311887047DC
:1001E0000000000006480068006880F3088862B6D6
:1001F00061B6BFF34F8FBFF36F8F00DF00BF00BF4B
:1002000008ED00E0DFF80C00016841F470010160C6
:10021000704700BF88ED00E0EFF30980BFF36F8FF8
:10022000134B1A681EF0100F08BF20ED108A20E94A
:10023000F04F106008B44FF0500080F31188BFF306
:100240004F8FBFF36F8F08F085FF4FF0000080F3F2
:10025000118808BC19680868B0E8F04F1EF0100F4C
:1002600008BFB0EC108A80F30988BFF36F8F704726
:1002700028000020EFF3058070470000094801685E
:1002800041F4700101600848804708480047FEE7D4
:10029000FEE7FEE7FEE7FEE7FEE7FEE7FEE7FEE736
:1002A000FEE7000088ED00E0E54B0008AD01000826
:1002B0009FED1A1AF5EE000A40EE010ABDEEE00AC3
:1002C000F5EEC00A10EE100AF1EE10FA38BF401E2B
:1002D00000EE100A1349F7EE001AB8EEC00A30EE2D
:1002E000C00ADFED0F0A20EE200AFCEEC00A10EE75
:1002F000900AC0F3080000EE900A01EB8000F8EECF
:10030000600A90ED011A70EE600A90ED000A71EE3D
:10031000E01A21EE800A00EE810A704783F9223E3E
:1003200000000044B8A20008DFED190AB5EEC00ACB
:1003300060EE200ABDEEE01A11EE100AF1EE10FA9E
:1003400038BF401E00EE100A1349F7EE001AB8EE4F
:10035000C00A30EEC00ADFED0F0A60EE200ABCEEE4
:10036000E00A10EE100AC0F3080000EE100A01EBDC
:100370008000B8EE400A90ED011A70EEC00A90EDD0
:10038000000A71EEE01A21EE800A00EE810A704741
:1003900083F9223E00000044B8A2000840EA0103AD
:1003A0009B0703D009E008C9121F08C0042AFAD22B
:1003B00003E011F8013B00F8013B521EF9D27047EF
:1003C000D2B201E000F8012B491EFBD27047002297
:1003D000F6E710B513460A4604461946FFF7F0FF44
:1003E000204610BD421C10F8011B0029FBD1801AC9
:1003F000704700F0004230F000400AD0C10D01F516
:100400006071C0F3160042EA0151C208400711436F
:10041000704700200146704701F0004330B421F0DE
:10042000004150EA010206D00A0DA2F56072C1F344
:100430001301002A02DC30BC00207047440F44EA5C
:10044000C104C100E01830BC00EBC250AFF3008023
:100450000029A8BF7047401C490008BF20F00100D8
:10046000704710B4B0FA80FC00FA0CF050EA0104B6
:1004700004BF10BC704749B1CCF1200421FA04F448
:1004800011FA0CF118BF012121430843A3EB0C0121
:10049000CB1D4FEA00614FEA102042BF002010BC84
:1004A000704700EBC35010440029A4BF10BC704734
:1004B000401C490008BF20F0010010BC704700003C
:1004C000064C074D06E0E06840F0010394E80700A1
:1004D00098471034AC42F6D3FFF76CFEBCAA000874
:1004E000DCAA000870B58C1810F8015B15F0070342
:1004F00001D110F8013B2A1106D110F8012B03E0BD
:1005000010F8016B01F8016B5B1EF9D12B0705D4C4
:100510000023521E0DD401F8013BFAE710F8013B0D
:10052000CB1A921C03E013F8015B01F8015B521E29
:10053000F9D5A142D8D3002070BD21B1826842F024
:100540000102826003E0826822F00102826070474B
:100550000021084A1168084A1140D0E900231A43D3
:1005600083681A43C3681A431143044AC2F8041348
:100570007047000004230140E030FCFF00200140F0
:1005800030B50246002000235068104C20400D7901
:100590000C6844EA05242043506090680C4C2040CD
:1005A000D1E903542C438D682C434D7944EA45042A
:1005B00020439060D06A20F470000C7D641EE4B289
:1005C000234340EA0350D06230BD0000FFFEFFFC31
:1005D000FDF7FFC0F0B504460D4600200021092DAF
:1005E00011DDE068A5F10A0606EB4607072606FAC4
:1005F00007F18843A5F10A0606EB460603FA06F161
:100600000843E0600CE0206905EB4507072606FA81
:1006100007F1884305EB450603FA06F1084320611C
:10062000072A0FDA606B561E06EB86071F2606FAAE
:1006300007F18843561E06EB860605FA06F10843C5
:10064000606322E00D2A0FDA206BD61F06EB8607C7
:100650001F2606FA07F18843D61F06EB860605FA21
:1006600006F10843206310E0E06AA2F10D0606EBF4
:1006700086071F2606FA07F18843A2F10D0606EB4E
:10068000860605FA06F10843E062F0BD38B1084974
:10069000096841F40001074AC2F8041306E004495E
:1006A000096821F40001034AC2F8041370470000EE
:1006B000042301400020014010B52DED028BB0EE67
:1006C000408AB0EE480A05F0BBF9BDEC028B10BDC4
:1006D00010B52DED028BB0EE408AF0EE608AF0EEA0
:1006E000680AB0EE480A05F041FABDEC028B10BD75
:1006F00010B52DED028BB0EE408AB0EE480AFFF740
:10070000D7FDBDEC028B10BDF0EE400AF5EEC00A3D
:10071000F1EE10FA02DDB0EE600A7047B1EE600A49
:10072000FBE7000018B19FED020A80ED000A704758
:100730000000000018B19FED020A80ED000A70472A
:10074000DF8FB44170B52DED0C8B84B006460C469E
:1007500015469FED990AF0EE408A9FED970AB0EE9C
:10076000409A9FED950AF0EE40BA9FED930AF0EEA5
:10077000409A9FED910AB0EE40AA0EB104B11DB9A6
:1007800004B0BDEC0C8B70BD8C48FFF7CBFF8C48E0
:10079000FFF7D0FF8A48D0ED000A9FED8A1A60EE7D
:1007A000810AB0EE600A00F039F9F0EE408A28EED6
:1007B000A80AF0EE408A8248D0ED000AB0EE001A96
:1007C00060EE810A9FED7F1A60EE810AB0EE600A4A
:1007D00000F024F9B0EE409A29EE090AB0EE409AF2
:1007E000DFED790AB7EE000A00EEA80ADFED770A1E
:1007F00000EEC90ADFED760A20EE200A754880ED8A
:10080000000A6E4890ED000ADFED730A80EE201AB0
:10081000B7EE000A31EE000A20EE000A6D48D0ED76
:10082000000A80EE801A6D4880ED001A94ED000AEF
:10083000B5EEC00AF1EE10FA0DD194ED010AB5EE55
:10084000C00AF1EE10FA06D194ED020AB5EEC00A24
:10085000F1EE10FA46D09FED580AB0EE408A002023
:10086000019002900390D4ED000A60EEA00A94ED8E
:10087000011AD4ED011A41EE210A94ED021AD4EDC9
:10088000021A41EE210AB0EE600A00F0A9F8B0EEBB
:10089000408A94ED000A20EE080A8DED010A94EDDD
:1008A000010A20EE080A8DED020A94ED020A20EEFC
:1008B000080A8DED030ADDED010AF1EE600AB0EEE3
:1008C000600AFFF7F9FEF0EE409A9DED031AF0EE94
:1008D000410A9DED021AB0EE410AFFF7F9FEB0EEB3
:1008E00040AA07E09FED340AF0EE409A9FED320AED
:1008F000B0EE40AA95ED000AB5EEC00AF1EE10FA8E
:100900000DD195ED010AB5EEC00AF1EE10FA06D14F
:1009100095ED020AB5EEC00AF1EE10FA3CD0B0EE49
:10092000690A00F07BF8B0EE408AB0EE690AFFF782
:10093000DFFEB0EE40DAB0EE4A0A00F06FF8F0EEFB
:1009400040AAB0EE4A0AFFF7D3FEB0EE40BA28EE56
:100950002A0AD5ED010A20EE200AD5ED000A0DEE97
:10096000200A68EE0B0A95ED021A00EE810AB0EE3D
:1009700040CA95ED010A20EE0B0AD5ED020A0AEEF7
:10098000E00AF0EE40CAF0EE6C0AB0EE4C0AFFF757
:100990009FFEF0EE40BA03E09FED070AF0EE40BA8A
:1009A000B0EE4A1AF0EE690AB0EE6B0A304605F076
:1009B00029FC00BFE4E60000000000003009002030
:1009C0003409002035FA8E3CC1BFAD3B9DF8C536D9
:1009D0002F7C1C4138090020506CC24A3C09002081
:1009E000F0EE400AF6EE001A60EEA11AB0EE611ABF
:1009F000B0EE600A10EE100A0749A1EB600000EEAD
:100A0000100A21EE002AF7EE081A42EE401A61EEB3
:100A1000801AB0EE610A7047DF59375F10B52DEDCF
:100A2000028BB0EE408AB0EE480AFFF77DFCBDECC9
:100A3000028B10BD2DE9F0412DED028B9AB00546D9
:100A4000B0EE408A0E461746984600201790189040
:100A500019901490159016904DB146B13FB1B8F170
:100A6000000F04D0B5EEC08AF1EE10FA05D10020D7
:100A70001AB0BDEC028BBDE8F08196ED000A8DED59
:100A8000170A96ED010A8DED180A96ED020A8DED12
:100A9000190A97ED000A8DED140A97ED010A8DED04
:100AA000150A97ED020A8DED160A17AA14A9284611
:100AB00005F0E8F9402104A8FFF789FC0020009028
:100AC000019002900390002417A904A807F076FF74
:100AD00000BF30E004A800EB041090ED000AD5ED53
:100AE000000A20EE200A04A800EB0410D0ED010A51
:100AF00095ED011A00EE810A04A800EB0410D0ED78
:100B0000020A95ED021A00EE810A04A800EB041017
:100B1000D0ED030A95ED031A00EE810A20EE080AD3
:100B2000F0EE000A80EE201A684600EB840080EDAB
:100B3000001A601CC4B2042CCCDB002410E005EBCE
:100B4000840090ED000A684600EB8400D0ED000AB6
:100B500030EE200A05EB840080ED000A601CC4B270
:100B6000042CECDB284607F06FFD012080E7000035
:100B700070B505460C4600260DB1022C00D870BD9C
:100B8000A11E06480288284601F026FE0646A01E41
:100B90002E54310A601E295400BFF0E79C0000204B
:100BA00070B505460C4600260DB1022C00DC70BD68
:100BB000601E81B2FF22284601F028FE0646601E14
:100BC0002E5400BFF3E738B54FF4407003F044FAF9
:100BD0004FF47A7005F058FE06F0AAFC07F07EFE8E
:100BE00006F0B8FE05F070FF5A2147F2305005F0CC
:100BF000BFFB06F075FC04F09DFE04F01BFE03F045
:100C000087F901F0AFFB07F005FE5A214EF6602090
:100C100004F0B4F8002005231A460121009000F0EA
:100C200031F8002005231A460121009000F0CAF88F
:100C3000002408E0204606F0C1FE40F2C52005F081
:100C400081FE601CC4B2042CF4DB07F03FFD38BD0C
:100C500000BFFEE710B50221084800F06DFA58B158
:100C60000221064800F090F9054A0021034800F0EF
:100C700086FB034800F08EFC10BD000000640040BD
:100C8000180E02202DE9F0418AB004460D461646A2
:100C90001F46DDF840800121082003F057FB0121A9
:100CA000480603F063FB0121480603F06FFB0021B7
:100CB0004FF0007003F06AFB0320089002208DF8CB
:100CC000240000208DF8260003208DF82500012047
:100CD0008DF8270008A92D4801F00EFD09220021FA
:100CE0002A4801F051FD09220121284801F04CFD5C
:100CF00000208DF81A0001208DF81B0000208DF8CF
:100D00001C008DF81D008DF81E008DF81F008DF859
:100D100016808DF817408DF818608DF81950ADF8D1
:100D2000147005A91A4800F0A0FA00208DF80E00F2
:100D30008DF80F0001208DF810000020ADF80400A0
:100D4000ADF80600ADF80800ADF80A00ADF80C00EB
:100D500001208DF8110001A800F06AF9012202219A
:100D60000B4800F079FA14208DF8000004208DF86B
:100D7000010000208DF8020001208DF80300684674
:100D800003F02EF900200AB0BDE8F081000C02400B
:100D90000064004010B50221084800F0CDF958B1B8
:100DA0000221064800F0F0F8054A0021034800F04F
:100DB000E6FA034800F0EEFB10BD000000680040BA
:100DC0002C0E02202DE9F0418AB004460D4616464D
:100DD0001F46DDF840800121022003F0B7FA01210F
:100DE000880603F0C3FA0121880603F0CFFA002138
:100DF0004FF0806003F0CAFA4FF440500890022090
:100E00008DF8240000208DF8260003208DF82500A1
:100E100001208DF8270008A92D4801F06DFC09225A
:100E20000C212B4801F0B0FC09220D21284801F0CB
:100E3000ABFC00208DF81A0001208DF81B0000206B
:100E40008DF81C008DF81D008DF81E008DF81F0018
:100E50008DF816808DF817408DF818608DF81950B0
:100E6000ADF8147005A91B4800F0FFF90E208DF8AD
:100E70000E0000208DF80F0001208DF810000020DA
:100E8000ADF80400ADF80600ADF80800ADF80A00B2
:100E9000ADF80C0001208DF8110001A800F0C8F891
:100EA000012202210B4800F0D7F940208DF8000004
:100EB00004208DF8010000208DF8020001208DF83B
:100EC0000300684603F08CF800200AB0BDE8F0810A
:100ED0000004024000680040F0B585B004460D46AD
:100EE00016461F464FF40070009000208DF8080051
:100EF0008DF8090008208DF80A00200A8DF80B00F3
:100F0000E1B28DF80C10290A8DF80D10E9B28DF8B8
:100F10000E10310A8DF80F10F1B28DF81010390A49
:100F20008DF81110F9B28DF812106946024800F0E0
:100F30009EFA05B0F0BD0000006800402DE9F041C8
:100F400004460D4616461F4640F2FF100C49086045
:100F500000200872487208208872200AC872084669
:100F60000473290A41738573310AC1730674390AFF
:100F7000417487740146034800F079FABDE8F081B6
:100F8000040E022000640040B1F5007F3AD00FDC6F
:100F9000202928D006DC01291CD004291DD00829CD
:100FA00040D11DE0402921D0B1F5807F3AD126E023
:100FB000B1F5004F31D006DCB1F5806F25D0B1F529
:100FC000006F2FD124E0B1F5803F12D0B1F5003F82
:100FD00028D111E0154A826025E00822C26022E093
:100FE0001022C2601FE0082202611CE01022026190
:100FF00019E00822426016E01022426013E0042249
:10100000426010E0042242600DE0042242600AE0E7
:10101000002282610422426005E0002282610422F3
:10102000426000E000BF00BF704700000101010006
:1010300010B50021837A012202FA03F13D4A1268B9
:1010400042F001023B4B1A603A4A1C3212688A4352
:10105000384B1C331A60027BCAB9364A0C3212680C
:101060008A43344B0C331A604288C38842EA0343F4
:10107000304A4032847A42F834300288838842EA27
:1010800003432C4A4032847A02EBC4025360027B51
:10109000012A19D1274A0C3212680A43254B0C3316
:1010A0001A604288038842EA0343224A4032847A23
:1010B00042F83430C288838842EA03431D4A4032F2
:1010C000847A02EBC4025360C27A3AB9194A121DFB
:1010D00012688A43174B1B1D1A6006E0154A121D41
:1010E00012680A43134B1B1D1A60028932B9114A58
:1010F000143212688A430F4B14331A600289012A92
:1011000006D10C4A143212680A430A4B14331A608F
:10111000427B012A06D1074A1C3212680A43054B5A
:101120001C331A60034A126822F00102014B1A6054
:1011300010BD00000066004070B504460D46002654
:1011400060692840002871D0B5F5807F5CD010DC44
:10115000082D35D006DC012D20D0022D24D0042D01
:1011600072D127E0102D31D0202D35D0402D6BD1FC
:1011700038E0B5F5004F60D009DCB5F5007F49D007
:10118000B5F5806F4CD0B5F5006F5DD14FE0B5F58A
:10119000803F2DD0B5F5003F56D12FE0A0682D49F6
:1011A00000F01CFF064651E0E068032100F016FF46
:1011B00006464BE0E068082100F010FF064645E0D7
:1011C000E068102100F00AFF06463FE02069032195
:1011D00000F004FF064639E02069082100F0FEFE19
:1011E000064633E02069102100F0F8FE06462DE0A7
:1011F0006068082100F0F2FE064627E060681021D2
:1012000000F0ECFE064621E0A069012100F0E6FEB8
:1012100006461BE0A069022100F0E0FE064615E04C
:10122000A069042100F0DAFE06460FE00FE0A06995
:10123000702100F0D3FE064608E06068042100F04B
:10124000CDFE064602E0FFE7002600BF00E00026D4
:10125000304670BD010101001AB143690B4343617F
:1012600002E043698B434361704730B5024600207A
:101270000023146824F002041460146844F001048C
:10128000146000E05B1C546804F001041CB94FF6C4
:10129000FF74A342F6D1546804F001040CB9002095
:1012A0006CE08C79012C04D1146844F08004146043
:1012B00003E0146824F080041460CC79012C04D17C
:1012C000146844F04004146003E0146824F04004FF
:1012D00014600C7A012C04D1146844F020041460CA
:1012E00003E0146824F0200414604C7A012C04D12B
:1012F000146844F01004146003E0146824F010042F
:1013000014608C7A012C04D1146844F00804146031
:1013100003E0146824F008041460CC7A012C04D192
:10132000146844F00404146003E0146824F0040416
:1013300014608C78A407CD7844EA05640D7944EAFA
:1013400005444D7944EA05540D886D1E2C43D46143
:10135000146824F001041460002300E05B1C54684E
:1013600004F001041CB14FF6FF74A342F6D1546897
:1013700004F001040CB1002000E0012030BD10B5E4
:1013800000F5D87303EB01131B6803F00403137219
:10139000137A53B900F5D87303EB01131B6840F2BD
:1013A000FF7404EA5353136009E000F5D87303EBAC
:1013B00001131B686FF0604404EAD303536000F527
:1013C000D87303EB01131B6803F00203537200F59B
:1013D000D87303EB01135B6803F00F03937200F5FE
:1013E000D87303EB01135B681B0AD37400F5D87341
:1013F00003EB01139B68D37200F5D87303EB011361
:101400009B681C0A147300F5D87303EB01139B68E7
:101410001C0C547300F5D87303EB01139B681B0E6F
:10142000937300F5D87303EB0113DB68D37300F5F6
:10143000D87303EB0113DB681C0A147400F5D8732E
:1014400003EB0113DB681C0C547400F5D87303EB39
:101450000113DB681B0E937421B9C36843F02003AA
:10146000C36003E0036943F02003036110BD10B5BE
:1014700002460020936803F08063B3F1806F00D1CF
:1014800010E0936803F00063B3F1006F01D1012015
:1014900008E0936803F08053B3F1805F01D102202C
:1014A00000E00420042874D002F5C07303EB00139D
:1014B0001B6803F0010402F5C07303EB00131C600A
:1014C0000B7A7BB94B7A0C8843EA445302F5C0741B
:1014D00004EB00142468234302F5C07404EB0014E9
:1014E000236010E00B7A4C6843EAC4034C7A234330
:1014F00002F5C07404EB00142468234302F5C074A1
:1015000004EB001423608B7A03F00F038B7202F557
:10151000C07303EB00135B6823F00F0402F5C07384
:1015200003EB00135C6002F5C07303EB00135B6810
:101530008C7A234302F5C07404EB001463608B7B48
:101540001C064B7B44EA03440B7B44EA0323CC7A1E
:10155000234302F5C07404EB0014A3608B7C1C06CB
:101560004B7C44EA03440B7C44EA0323CC7B2343B7
:1015700002F5C07404EB0014E36002F5C07303EBE2
:1015800000131B6843F0010402F5C07303EB001362
:101590001C6010BD10B504462068A0F20120072889
:1015A0007ED2DFE800F061626364042342005548A4
:1015B000008800B253490881207BE17A40EA01208B
:1015C00050490880A17B607B41EA002000B24D4970
:1015D0008880217CE07B41EA002000B249494880B4
:1015E000607C8871012000F017FF88E04648008881
:1015F00000B245490881207BE17A40EA0120424956
:101600000880A17B607B41EA002000B23E498880CF
:10161000217CE07B41EA002000B23B494880607CAD
:101620008871022000F0F8FE69E03848008800B2B6
:1016300036490881207BE17A40EA0120334908805D
:10164000A17B607B41EA002000B230494880217CC8
:10165000E07B41EA002000B22C498880607C8871E0
:10166000032000F0D9FE4AE000BF00BF00BF207891
:10167000401E274908700846007800EB8000254985
:1016800031F8100000B22249097801EB8101214AAA
:1016900002EB41010881207BE17A40EA012000E071
:1016A0002CE01B49097801EB810122F81100A17B94
:1016B000607B41EA002000B21549097801EB810105
:1016C00002EB41014880217CE07B41EA002000B22E
:1016D0000F49097801EB810102EB41018880607CB0
:1016E0000B49097801EB810102EB4101887108493E
:1016F0000978091DC8B200F08FFE00E000BF00BFEE
:1017000010BD0000BC0D0220C60D0220D00D02202D
:10171000B0000020DA0D022010B52DED088B84B04A
:101720009FED660AB0EE408A9FED640AB0EE409AE3
:101730009FED620AF0EE408A002000900190029036
:1017400003905F48D0ED861AB0EE611AD0ED841A8E
:10175000F0EE610AD0ED821AB0EE610A684604F03C
:1017600051FF002438E0684600EB840090ED000A49
:10177000C4EBC40000EB04115148543000EB81006D
:1017800080ED150AC4EBC40000EB04124C48543041
:1017900000EB820090ED150A10EE101A0846FEF7D5
:1017A00028FE41EC1B0BB0EE4B0AF0EE6B0A04F086
:1017B00033FBB0EE40AAF0EE60AA51EC1A0BFEF734
:1017C0002BFE08EE100AF4EEC88AF1EE10FA01D2F0
:1017D000F0EE488A601CC4B2042CC4DBB1EE000AEF
:1017E000F4EEC08AF1EE10FA21DDB1EE000AC0EE8F
:1017F000280AB0EE609A002417E0C4EBC40000EBA6
:1018000004112F48543000EB810090ED150A20EEB2
:10181000090AC4EBC40000EB04112948543000EB62
:10182000810080ED150A601CC4B2042CE5DB0024A5
:101830003DE0C4EBC40101EB04122149543101EB3A
:10184000820191ED151AF0EE410AC4EBC40101EBDF
:1018500004121B49543101EB820191ED141AB0EED0
:10186000410AC4EBC40101EB04121549543101EBE8
:101870008201081D02F01CFCC4EBC40000EB041143
:101880000F48543000EB810090ED090ABDEEC00A0C
:1018900010EE100A01B2C4EBC40000EB04120848B9
:1018A000543000EB8200A0F85A10601CC4B2042C23
:1018B000BFDB04B0BDEC088B10BD000000000000D1
:1018C000500F02207047000000B589B0002008903A
:1018D000079006909FED2F0A8DED050A9FED2D0ACA
:1018E0008DED040A9FED2B0A8DED030A9FED290A69
:1018F0008DED020A9FED270A8DED010A9FED250A65
:101900008DED000A08AA04A905A804F0C3FE07AAE1
:1019100002A903A804F0D4FD9DED050ADDED030A3C
:1019200030EE200A8DED010A9DED040ADDED020A7C
:1019300030EE200A8DED000ABDF82000BDF81C1025
:10194000084400B206901448407A06281ED2DFE808
:1019500000F0031A120C061700F0E2F916E006AACE
:10196000694601A800F050F810E006AA694601A8EF
:1019700000F0A2F90AE0694601A800F00FF805E0BE
:10198000FFF7A0FF02E000F011FA00BF00BF09B0AE
:1019900000BD000000000000500F022070B504469A
:1019A0000D4605F0E9F90646D4ED000AB0EE600AEE
:1019B000B0EE081AF8EE080A05F070F80F4880ED4E
:1019C000820AD5ED000AB0EE600A9FED0D1ADFED38
:1019D0000D0A05F063F8094880ED840A96ED081AAF
:1019E000F0EE410A90ED891AB0EE410A0C3002F097
:1019F0005FFB024880ED860A70BD0000500F022098
:101A00009A9939409A9939C070B52DED028B0446E8
:101A10000D4616462248D0ED870AB0EE600AFEF762
:101A200083FCB0EE408A1E48D0ED870AB0EE600A13
:101A3000FEF73EFCF0EE408A94ED000A20EE280A04
:101A4000D5ED000A00EE880A154880ED820A94ED73
:101A5000000AB1EE400A20EE080AD5ED000A00EEB9
:101A6000A80A80ED840AC07A68B9B6F9000000EED1
:101A7000100AB8EEC00ADFED0B0A20EE200A084873
:101A800080ED860A08E00648C07A012804D1B7EE46
:101A9000000A034880ED860ABDEC028B70BD000091
:101AA000500F02200AD7233C10B5002400BF1BE0D2
:101AB000204605F0BDF8C4EBC40101EB04123A491D
:101AC00041F82200C4EBC40101EB0412364901EBDA
:101AD0008201081DDFED350A9FED350A354A0021E8
:101AE00002F0DEFB601CC4B2042CE1DBDFED320A45
:101AF000B1EE000A314A00212B48483802F0D0FBF1
:101B000000202949543948722D499FED2E0A2E484C
:101B100004F0A6FF2D499FED2B0A2B48103004F04E
:101B20009FFF2B499FED270A2748203004F098FF9C
:101B300028499FED240A2448303004F091FF05F035
:101B400025F919495439086005F07EF816495439C9
:101B500048600846406890ED000AB5EEC00AF1EE14
:101B600010FA03DB012081F8300204E000200E4966
:101B7000543981F8300200200B495439A1F832025F
:101B800000240BE0204605F053F8C4EBC40101EB40
:101B90000412054941F82200601CC4B2042CF1DB98
:101BA00000F016F910BD0000A40F02200000FA4456
:101BB00000007A464CA20008CDCC4C3E58A200084A
:101BC00064A200086F12033B1411022068A20008EF
:101BD0006CA2000870A2000870B5002400253449EA
:101BE0000968C87A06F049FE18B100203049087229
:101BF0000CE02F490968C87A06F04DFE18B10120A3
:101C00002B49087202E00020294908722848007A0E
:101C1000D8B927490968887A06F03DFE08B104243E
:101C200011E023490968887A06F027FE08B10324E9
:101C300009E01F490968887A022801D1012100E0E2
:101C4000002101B1002400251FE019480068C08E62
:101C5000C0F3002020B117480078C0431549087030
:101C60001448007808B1042400E0032410480068F8
:101C700090F83A00C0F3801000B101250C480068CC
:101C8000408FC0F3402000B1022509484472C5725C
:101C9000407A0749897A884204D0054A517A907A75
:101CA00004F0D8FC0248407A0149887270BD0000F7
:101CB000500F02201C01002070B504460D46164648
:101CC000D4ED000AB0EE600AB0EE081AF8EE080A89
:101CD00004F0E4FE0E4880ED820AD5ED000AB0EE75
:101CE000600A9FED0C1ADFED0C0A04F0D7FE0848DD
:101CF00080ED840AB6F9000000EE100AB8EEC00AC2
:101D0000DFED060A20EE200A014880ED860A70BD4C
:101D1000500F02209A9939409A9939C00AD7233C2A
:101D20009FED090A094880ED820A9FED070A80EDC0
:101D3000840A9FED050A80ED860A90ED880A80ED01
:101D40008A0A80ED890A704700000000500F0220C7
:101D500010B51548407A98B1002006F0E9FD78B931
:101D6000042006F0E5FD58B9052006F0E1FD38B97C
:101D7000062006F0DDFD18B9072006F0D9FD30B1C8
:101D800000231A4619461846FFF7A6F80AE0064C43
:101D9000B4F9C231B4F96621B4F90A11B4F9AE004C
:101DA000FFF79AF810BD0000500F02209FED060AC1
:101DB000064880ED820A9FED040A80ED840A9FEDBB
:101DC000020A80ED860A704700000000500F0220D2
:101DD00070B52DED028B04F03BFF054695ED000A32
:101DE000B0EE408A7548B0F9320247F6FF7188427A
:101DF00005D07248B0F9320210F5004F22D16F4879
:101E000090ED890AB0F9320200EE900AF8EEE00A8D
:101E10009FED6B1A00EEC10A684880ED890A90EDCB
:101E20008B0AB0F9320200EE900AF8EEE00A9FED5C
:101E3000641A00EEC10A614880ED8B0A00205F49F8
:101E4000A1F832025F48F0EE480A5F4991ED000ABE
:101E500005F036F9B0EE408A002435E0C4EBC4004A
:101E600000EB04115548543050F82100B0F902003D
:101E700000EE100AB8EEC00ADFED540A20EE200A88
:101E8000C4EBC40000EB04114C48543000EB81005B
:101E900080ED140AC4EBC40000EB04114748543031
:101EA00000EB810090ED0D0ADFED490A20EE200ADB
:101EB000C4EBC40000EB04114048543000EB810037
:101EC00080ED130A601CC4B2042CC7DB3B4890EDC4
:101ED000290AD0ED400A30EE600AD0ED570A30EE04
:101EE000200AD0ED6E0A30EE600AF5EE000A20EE10
:101EF000200A80ED810A90ED290AB1EE400AD0ED6A
:101F0000400A30EE600AD0ED570A30EE200AD0EDDC
:101F10006E0A30EE200AF5EE000A20EE200A80ED6F
:101F2000830A90ED290AB1EE400AD0ED400A30EE66
:101F3000600AD0ED570A30EE600AD0ED6E0A30EE3E
:101F4000600AF5EE000A20EE200ADFED220A80EE9C
:101F5000201A80ED851A04F009FFB1EE400A1748F7
:101F600080ED870A90ED870A30EE080A80ED880A36
:101F700090ED881AB0F93202400001EE900AF8EEB6
:101F8000E11A9FED152A01EE821AF0EE410A0B4884
:101F900090ED8B1AB0EE410A00F2322004F05AFAAA
:101FA000064880ED890A90ED890A80ED8B0A064883
:101FB00080ED008ABDEC028B70BD0000500F022046
:101FC000DB0FC94080110220200100200A01DA390C
:101FD0000000FA439A99993EDB0F494002460020DF
:101FE00002EA01030BB1012000E00020704700006D
:101FF00010B51049104800F029F9C8B10D490E4834
:1020000000F022F805F00AFB07F02CFD01280FD0A4
:102010000A490B48006806F027FF0848006838B1F5
:102020004FF0805007490860BFF34F8FBFF36F8FA9
:1020300010BD000000080020886402402C09002028
:10204000B008002004ED00E00246094B9A4201D29C
:10205000084801E00648103801F000531BB1064B58
:102060000B40C36002E0044B0B40836070470000EC
:1020700010640240006002407D0F7D0F21B10268B4
:1020800042F00102026003E0026822F001020260F5
:1020900070470000016821F001010160002101602A
:1020A00041608160C1600161212141614A498842EA
:1020B00004D13D21484A103A91608CE046491831DC
:1020C000884205D14FF47461434A103A916082E02E
:1020D00041493031884205D14FF474113E4A103ADB
:1020E000916078E03C494831884205D14FF07461F5
:1020F000394A103A91606EE037496031884204D124
:102100003649354A103AD16065E033497831884222
:1021100004D13349304A103AD1605CE02E49903105
:10212000884204D12F492C4A103AD16053E02A4901
:10213000A831884205D14FF03D51274A103AD1606D
:1021400049E02949884204D13D21274A083A1160D3
:1021500041E025491831884205D14FF47461224A83
:10216000083A116037E020493031884205D14FF4F8
:1021700074111D4A083A11602DE01B49483188420C
:1021800005D14FF07461184A083A116023E01649EE
:102190006031884204D11149134A121F11601AE0BC
:1021A00011497831884204D10D490F4A121F11603C
:1021B00011E00D499031884204D10A490A4A121FA0
:1021C000116008E00849A831884204D14FF03D5120
:1021D000054A121F11607047106002403D00002048
:1021E000400F002000003D201064024021B1026831
:1021F00042F48022026003E0026822F4802202603E
:10220000704722B1036843F40023036003E00368CE
:1022100023F40023036001617047014600200A682F
:1022200002F001020AB1012000E0002070470146DF
:10223000486880B27047014600200A6802F4002214
:102240000AB1012000E000207047000030B50346CD
:102250000A46002000240B4DAB4201D20A4901E09E
:102260000849103902F000550DB14C6800E00C68C7
:10227000064D2C4004EA02050DB1012000E00020CB
:1022800030BD000010640240006002407D0F7D0FF1
:1022900010B501F080034BB122B1436943F08003D4
:1022A000436103E0436923F08003436180290BD03D
:1022B0002AB1036801F01E042343036004E00368AD
:1022C00001F01E04A343036010BD000010B50022FE
:1022D0000268134B1A40CC680B6823434C692343B4
:1022E0008C692343CC6923430C6A23434C6A234300
:1022F0008C6A23434C6B23438C6B23431A43026049
:10230000426922F00702D1E90B3423431A434261A8
:102310000B6943604B6883608B68C36010BD00002D
:102320003F801CF04160704710B588B01C2101A8A7
:10233000FEF74DF8182403F0FFF901AB102207490E
:10234000112001F0DDFF192101A803F065FA182121
:102350000248FEF73CF808B010BD0000380F02201C
:102360007047000000B587B00121402001F0EEFF6A
:102370000121202002F01AF808220E21244800F042
:1023800003FA08220921224800F0FEF902208DF804
:10239000080000208DF80A004FF4844001900120CD
:1023A0008DF80B0003208DF8090001A9184800F0F2
:1023B000A3F94FF4E13003900020ADF81000ADF820
:1023C0001200ADF814000C20ADF816000020ADF896
:1023D000180003A90F4803F03BF901210D4803F051
:1023E0004DF8012240F224410A4803F00CF947203D
:1023F0008DF8000004208DF8010000208DF8020007
:1024000001208DF80300684601F0EAFD07B000BD29
:10241000001802400014014010B5044604EBC4004B
:10242000454901EB8000006804EBC401424A02EB1D
:102430008101486007F026FB04EBC4013E4A02EB31
:102440008101086004EBC400114601EB8000C07CF0
:10245000C0F38010B0B104EBC40001EB8000C07C7D
:1024600020F0400004EBC40102EB8101C87404EBCE
:10247000C400114601EB8000006804EBC40102EBCC
:102480008101C86004EBC4002B4901EB8000806926
:1024900090B304EBC401284A02EB810188698047AC
:1024A00058B304EBC400244901EB8000C07C20F049
:1024B0002000203004EBC4011F4A02EB8101C874E4
:1024C00004EBC400114601EB8000C07C20F08000CA
:1024D000803004EBC40102EB8101C87404EBC4003A
:1024E000114601EB8000006A28B304EBC40102EB43
:1024F0008101086A80471EE00FE0FFE704EBC4009B
:102500000D4901EB8000C07C20F0800004EBC40189
:10251000094A02EB8101C8740DE004EBC4000649CE
:1025200001EB8000C07C20F0800004EBC401024A73
:1025300002EB8101C87410BDA813022010B54FF43E
:10254000807000F011F840B14FF4807000F006F890
:1025500005F06CF8172002F081F910BD0149086000
:1025600070470000143C014001460020034A1268F5
:102570000A400AB1012000E000207047143C0140ED
:10258000002123498279002A3AD00A46126803685A
:102590009A430B461A600A1D126803689A430B1D82
:1025A0001A60027911440A6803681A430A60184ADB
:1025B0000832126803689A43154B08331A601A1DD3
:1025C000126803689A43124B0C331A604279102A3E
:1025D0000ED11A1F126803681A430D4B08331A6094
:1025E0001A1D126803681A43094B0C331A600DE078
:1025F0000749427911440A6803681A430A6005E0F2
:10260000027911440A6803689A430A60704700001F
:10261000003C0140C92006F079FB00F0A1FD04E078
:10262000012006F073FB00F0ADFE012006F080F9FA
:102630000028F5D1022006F07BF90028F0D1032014
:1026400006F076F90028EBD10FE000F0C5FF00F0AE
:1026500099FE00F0EFF800F05FFE012006F056FB57
:10266000002006F0FDF901490860EEE73401002082
:1026700000B585B00121022001F068FE0121880328
:1026800001F094FE0821012002F0E0F94FF480707F
:10269000009000208DF8040001208DF80600002035
:1026A0008DF8070003208DF805006946114800F0F9
:1026B00023F84FF48070029000208DF80C00082061
:1026C0008DF80D0001208DF80E0002A8FFF758FFCD
:1026D00017208DF8100005208DF8110000208DF8CE
:1026E000120001208DF8130004A801F079FC05B058
:1026F00000BD000000040240F0B50A46002100239E
:10270000002400BF3DE0012505FA01F3156805EA44
:1027100003049C4234D105684F000326BE40B543F4
:10272000056015794E00B54006683543056015799A
:10273000012D02D01579022D16D185684F00032690
:10274000BE40B543856055794E00B5408668354337
:102750008560456801268E40B54345604568967999
:102760008E40B6B235434560C5684F000326BE4073
:10277000B543C560D5794E00B540C6683543C560E0
:10278000491C1029BFD3F0BDF0B5002300244D072C
:10279000ED0E02FA05F3CE1000F1200555F8265093
:1027A0004E07F70E0F26BE40B543CF1000F12006AE
:1027B00046F82750CE1000F1200555F8265045EA7E
:1027C0000304CE1000F1200545F82640F0BD4183FA
:1027D000704701837047000030B5034613B94FF6C8
:1027E000FF7030BD09E013F8014B82EA0400C0B26B
:1027F000054D35F8100080EA2222081EA1F10101E2
:10280000F1D11046EDE700004CA0000830B50346BA
:1028100005E013F8010B80EA02040448025D081E7B
:10282000A1F10105A9B2F4D1104630BD4B9F0008BB
:102830007047000010B588B09FED9A0A8DED070A29
:102840009FED980A8DED060A9FED960A8DED050A1B
:102850009FED940A8DED040A9FED920A8DED030A17
:102860009FED900A8DED020A9FED8E0A8DED010A13
:102870009FED8C0A8DED000A002404A905A804F040
:10288000ADFB694601A804F04FFB03F0BFF8044616
:102890008548807B02280FD103F0B8F860B102A907
:1028A00003A804F08BFA9DED030A8DED070A9DED58
:1028B000020A8DED060A3AE07B48807B07282ED17C
:1028C0007A48007818BB78484068007B01280DD111
:1028D0007748007850B9744840688068079072481B
:1028E0004068406806900120714908706E48406851
:1028F000007BE0B901206D4908706B4890ED160A25
:1029000080ED100A90ED2B0A80ED250A0FE0664855
:102910004068027B06A907A804F084FA07E09DED51
:10292000050A8DED070A9DED040A8DED060A5E4845
:10293000407B48B101280FD0022817D003281FD1AF
:10294000FFF776FF08B010BD0020584908705849BD
:10295000087000F09FFC13E0224607A906A800F0CB
:1029600081FA5148303004F011FB09E0224607A9F2
:1029700006A800F0ABF84C48303004F007FB00BF6D
:1029800000BF494890F8BE00002874D14649496903
:102990000888454A643241F2245103F021FC42493F
:1029A000896E0888404AB83241F2F87103F018FC89
:1029B0003D4890ED150ADFED3F0AB4EEE00AF1EE76
:1029C00010FA08DC90ED150ADFED3B0AB4EEE00AE0
:1029D000F1EE10FA13D2344890ED150AB5EEC00AA4
:1029E000F1EE10FA02D29FED350A01E09FED340AB4
:1029F0008DED060A9FED2B0A8DED070A2AE02A4885
:102A000090ED2A0ADFED2B0AB4EEE00AF1EE10FA9F
:102A100008DC90ED2A0ADFED280AB4EEE00AF1EEB8
:102A200010FA13D29FED1F0A8DED060A1E4890ED95
:102A30002A0AB5EEC00AF1EE10FA02D29FED210A81
:102A400001E09FED210A8DED070A03E00120164900
:102A500081F8BE00144890ED0C0ADDED060A30EE58
:102A6000200A80ED0C0A90ED210ADDED070A30EE18
:102A7000200A80ED210A0C4890ED2C0ABDEEC00A18
:102A800010EE100A01B20848A0F8B61090ED170A2F
:102A9000BDEEC00A10EE100A01B20348A0F86210A1
:102AA00000BF4FE7000000008411022090080020C2
:102AB00091080020CDCCCC3DCDCCCCBD17B7513A40
:102AC00017B751BA6F12833A6F1283BA70B50446C2
:102AD0000D461646D34890ED0C0AD4ED000A30EEB0
:102AE000200A80ED0C0A90ED210AD5ED000A30EEA7
:102AF000200A80ED210A807B08283ED2DFE800F022
:102B000004FE3EFDB4FCFBFAC64890ED0C1AF0EE54
:102B1000410A90ED0A1AB0EE410AC34801F0C8FA22
:102B2000C04880ED120A90ED121AF0EE410A90EDC5
:102B3000111AB0EE410ABD4801F0BAFAB94880ED69
:102B4000170A90ED211AF0EE410A90ED1F1AB0EE2F
:102B5000410AB74801F0ACFAB24880ED270A90ED7F
:102B6000271AF0EE410A90ED261AB0EE410AB1485C
:102B700001F09EFAAB4880ED2C0A50E1CEB3A94893
:102B800090ED0C1AF0EE410A90ED0A1AB0EE410AEF
:102B9000A94801F08DFAA34880ED120A90ED121AAF
:102BA000F0EE410A90ED111AB0EE410AA34801F08F
:102BB0007FFA9C4880ED170A90ED211AF0EE410A49
:102BC00090ED1F1AB0EE410A9D4801F071FA954848
:102BD00080ED270A90ED271AF0EE410A90ED261AB3
:102BE000B0EE410A974801F063FA8E4880ED2C0A56
:102BF00039E0FFE78B4890ED0C1AF0EE410A90EDBA
:102C00000A1AB0EE410A884801F052FA854880ED70
:102C1000120A90ED121AF0EE410A90ED111AB0EE80
:102C2000410A824801F044FA7E4880ED170A90ED8F
:102C3000211AF0EE410A90ED1F1AB0EE410A7C48CD
:102C400001F036FA774880ED270A90ED271AF0EE6A
:102C5000410A90ED261AB0EE410A764801F028FAB2
:102C6000704880ED2C0ADAE06E4890ED1F0AF7EE0E
:102C7000080AB4EEE00AF1EE10FA6DD290ED1F0AE8
:102C8000FFEE080AB4EEE00AF1EE10FA64DD90ED12
:102C90001F0ADFED6D0AB4EEE00AF1EE10FA0BD276
:102CA00090ED1F0ADFED690AB4EEE00AF1EE10FACA
:102CB00002DD00205B4988735A4890ED0C0ADFED75
:102CC000640A30EE200A80ED0C0A90ED210ADFED57
:102CD0005E0A30EE200A80ED210A90ED0C1AF0EE2B
:102CE000410A90ED0A1AB0EE410A4F4801F0E0F9AE
:102CF0004C4804E034E08BE089E08BE089E080ED33
:102D0000120A90ED121AF0EE410A90ED111AB0EE8F
:102D1000410A464801F0CCF9424880ED170A90ED8F
:102D2000211AF0EE410A90ED1F1AB0EE410A404818
:102D300001F0BEF93B4880ED270A90ED271AF0EE2E
:102D4000410A90ED261AB0EE410A3A4801F0B0F976
:102D5000344880ED2C0A02E00020324988735EE09E
:102D6000304890ED0C0AF6EE000AB4EEE00AF1EEFF
:102D700010FA04DDB6EE000A80ED0C0A0DE02948D9
:102D800090ED210AFEEE000AB4EEE00AF1EE10FA30
:102D900003D2BEEE000A80ED210A224890ED0C1A03
:102DA000F0EE410A90ED0A1AB0EE410A294801F00E
:102DB0007FF91C4880ED120A90ED121AF0EE410ADC
:102DC00090ED111AB0EE410A234801F071F915484F
:102DD00080ED170A90ED211AF0EE410A90ED1F1ACE
:102DE000B0EE410A1D4801F063F90E4880ED270A54
:102DF00090ED271AF0EE410A90ED261AB0EE410A46
:102E0000174801F055F9074880ED2C0A07E006E065
:102E100005E000BF0348407C0249887300BF00BF43
:102E200070BD000084110220A80200206002002072
:102E3000880100204001002008060020C005002075
:102E4000E8040020A0040020CDCCCC3DCDCCCCBDEE
:102E5000000000004808002000080020B8070020FB
:102E60007007002070B504460D461646AE4890ED3A
:102E70000C0AD4ED000A30EE200A80ED0C0A90ED29
:102E8000230AD5ED000A30EE200A80ED230A807B6C
:102E900008283ED2DFE800F004B43EF3F1F0EFEE94
:102EA000A14890ED0C1AF0EE410A90ED0A1AB0EE2E
:102EB000410A9E4801F0FCF89B4880ED120A90ED13
:102EC000121AF0EE410A90ED111AB0EE410A98483C
:102ED00001F0EEF8944880ED170A90ED231AF0EE19
:102EE000410A90ED221AB0EE410A924801F0E0F852
:102EF0008D4880ED270A90ED271AF0EE410A90EDFB
:102F0000261AB0EE410A8C4801F0D2F8864880EDCE
:102F10002C0A07E1CEB3844890ED0E1AF0EE410A78
:102F200090ED0D1AB0EE410A844801F0C1F87E48D8
:102F300080ED120A90ED121AF0EE410A90ED111A8E
:102F4000B0EE410A7E4801F0B3F8774880ED170AE9
:102F500090ED231AF0EE410A90ED221AB0EE410AEC
:102F6000784801F0A5F8704880ED270A90ED271AFF
:102F7000F0EE410A90ED261AB0EE410A724801F0D7
:102F800097F8694880ED2C0A39E0FFE7664890ED34
:102F90000E1AF0EE410A90ED0D1AB0EE410A6348A8
:102FA00001F086F8604880ED120A90ED121AF0EEFA
:102FB000410A90ED111AB0EE410A5D4801F078F82F
:102FC000594880ED170A90ED231AF0EE410A90ED72
:102FD000221AB0EE410A574801F06AF8524880EDD3
:102FE000270A90ED271AF0EE410A90ED261AB0EE6E
:102FF000410A504801F05CF84B4880ED2C0A91E002
:10300000494890ED0C1AF0EE410A90ED0A1AB0EE24
:10301000410A464801F04CF8434880ED120A90ED11
:10302000121AF0EE410A90ED111AB0EE410A404832
:1030300001F03EF83C4880ED170A90ED211AF0EEC1
:10304000410A90ED1F1AB0EE410A404801F030F8F5
:10305000354880ED270A90ED271AF0EE410A90EDF1
:10306000261AB0EE410A3A4801F022F82E4880EDC7
:103070002C0A57E051E03CE04DE04DE0FFE72A48E4
:1030800090ED0C1AF0EE410A90ED0A1AB0EE410AEA
:103090002A4801F00DF8244880ED120A90ED121A2A
:1030A000F0EE410A90ED111AB0EE410A244800F00A
:1030B000FFFF1D4880ED170A90ED211AF0EE410A3E
:1030C00090ED1F1AB0EE410A224800F0F1FF1648B9
:1030D00080ED270A90ED271AF0EE410A90ED261AAE
:1030E000B0EE410A1C4800F0E3FF0F4880ED2C0AC7
:1030F00018E00D4890ED0E0ADFED180A30EE200AB8
:1031000080ED0E0A90ED230ADFED140A30EE200A5E
:1031100080ED230A06E000BF00BF0348407C02495F
:10312000887300BF00BF70BD84110220A802002078
:103130006002002018020020D001002008060020B4
:10314000C0050020780500203005002098060020EA
:103150005006002028070020E006002000000000A4
:1031600010B54949B7EE000A484803F079FC4849D0
:10317000B7EE000A4548543003F072FC03F006FE37
:1031800042491839086003F06FFD404918398866D4
:1031900003F066FD3D491839486103F055FD3B4990
:1031A0001839886008464069008981B23748183864
:1031B000A0F84C104069008800EE100AB8EE400AF2
:1031C0003248183880ED150A806E008981B22F4888
:1031D0001838A0F8A010806E008800EE100AB8EE33
:1031E000400A2A48183880ED2A0A014649690888A9
:1031F000264A4C3241F2245102F0F2FF2349183999
:10320000896E0888214AA03241F2F87102F0E8FF85
:103210001E481838806890ED000AB5EEC00AF1EE3D
:1032200010FA05DB01211948183880F8B91004E0BC
:1032300000211648183880F8B910144818388068EA
:1032400090ED010AB5EEC00AF1EE10FA05DB01219E
:103250000E48183880F8651004E000210B48183833
:1032600080F86510002009491839A1F8BC0081F8E0
:10327000BE0003F0D9FC0549183948600520C87321
:1032800000F080F810BD000074A200089C1102201C
:1032900078A200089FED1E0A1E4880ED120A90EDEC
:1032A000150A80ED0B0A80ED0A0A80ED0C0A90EDFC
:1032B000160A80ED0F0A80ED0D0A80ED0E0A9FEDD3
:1032C000140A80ED170A0021A0F862109FED100A81
:1032D00080ED270A90ED2A0A80ED200A80ED1F0A72
:1032E00080ED210A90ED2B0A80ED240A80ED220A60
:1032F00080ED230A9FED060A80ED2C0AA0F8B61097
:103300000020044981F8BE00A1F8BC00704700000D
:10331000000000008411022010B51648B0F8B60075
:10332000154908801348B0F862001449088001204C
:1033300005F0FEFA38B1022005F0FAFA18B10320C0
:1033400005F0F6FAA8B90B48407B30B900231A46BD
:1033500019461846FDF7F2FD0BE000230848B0F9C6
:1033600000200648B0F900100348B0F90000FDF74E
:10337000E5FD10BD84110220380100203A01002033
:103380003C01002070B52DED028B03F061FC04467A
:1033900003F062FC05468B48B0F9BC0047F6FF71AC
:1033A000884205D08748B0F9BC0010F5004F22D103
:1033B000844890ED220AB0F9BC0000EE900AF8EEC5
:1033C000E00A9FED811A00EEC10A7E4880ED220AD4
:1033D00090ED240AB0F9BC0000EE900AF8EEE00A85
:1033E0009FED791A00EEC10A764880ED240A00208C
:1033F0007449A1F8BC00734AB2F84C1052691088A5
:10340000704B643341F2245203F0C4FA6D4880EDEE
:10341000150A0246B2F8A010926E1088694BB833B4
:1034200041F2F87203F0B6FA664880ED2A0A94ED8C
:10343000001AF0EE410A90ED291AB0EE410AB930B7
:1034400003F03EFE5F4880ED2B0A94ED021AF0EE89
:10345000410A90ED141AB0EE410A653003F030FED7
:10346000584880ED160A407B022849D19FED570A43
:10347000B0EE408A534890ED0A0A80ED0B0A90EDB9
:103480001F0A80ED200A90ED150A80ED0A0A90EDE2
:103490002A0AB0F9BC00400000EE900AF8EEE00AFB
:1034A0009FED4B1A00EE810AB0EE408A4548D0ED00
:1034B000200AB0EE600ABC30F0EE480A02F0CAFF03
:1034C000404880ED1F0A4069B0F9020000EE100A82
:1034D000B8EEC00ADFED3F0A20EE200A394880ED41
:1034E000110A806EB0F9020000EE100AB8EEC00AB0
:1034F000DFED380A20EE200A324880ED260A42E04D
:103500003048407B012835D19FED300AB0EE408A2B
:103510002C4890ED0A0A80ED0B0A90ED220A80ED0E
:10352000240A90ED2B0AB0F9BC00400000EE900A8E
:10353000F8EEE00A9FED261A00EE810AB0EE408A0E
:10354000204890ED150A80ED0A0AD0ED240AB0EE6D
:10355000600ABC30F0EE480A02F07CFF194880EDAA
:10356000220A95ED000A80ED260A95ED020A80ED0B
:10357000110A08E0134890ED270A80ED260A90ED25
:10358000120A80ED110A0F48806E01880D48A0F8DC
:10359000A010406901880B48A0F84C1094ED000A77
:1035A00080ED290A94ED020A80ED140AB0F8B610F5
:1035B000A0F8B410B0F86210A0F86010BDEC028B57
:1035C00070BD000084110220DB0FC9400000000024
:1035D000DB0F49402316493A70B5002400254849BD
:1035E0000968C87A05F05DF918B1002044490873EC
:1035F0000CE043490968C87A05F046F918B1002083
:103600003F49087302E000203D4908733C48007BB5
:10361000002837D13A490968887A05F035F908B1A8
:1036200002240EE036490968887A05F03AF908B1B3
:10363000012406E032490968887A05F017F900B1DB
:1036400000242F490968C87A05F02BF920B1072515
:1036500001202B49C8733EE029490968C87A05F062
:1036600013F920B1002505202549C87333E024490A
:103670000968C87A05F0FAF868B3022500202049E5
:10368000C87328E01E48006890F83600C0F3C010E8
:1036900000B102241A48006890F83A00C0F3801084
:1036A00000B1012516480068408FC0F3803000B19A
:1036B00002251348006890F83A00C0F3401050B15A
:1036C0000F480068408FC0F3803020B10C48C07BA9
:1036D000C0430B49C8730A4844738573407B08494B
:1036E000097C884204D0064A517B107C03F0FEFB23
:1036F0000348407B024908740846807B487470BDCB
:103700008411022000BFFEE7F0B50546059C0020AD
:103710007FE093ED050A00EB4006404F07EB86067D
:10372000D6ED000A20EE200AD3ED060A00EB400693
:1037300007EB860696ED011A00EE810AD3ED070A23
:1037400000EB400607EB860696ED021A00EE810AB2
:10375000334E06EB8006D6ED000A30EE200A05EB6C
:10376000800686ED000A93ED010A00EB40062D4F1E
:1037700007EB8606D6ED000A20EE200AD3ED020AFA
:1037800000EB400607EB860696ED011A00EE810A73
:10379000D3ED030A00EB400607EB860696ED021A0E
:1037A00000EE810A204E06EB8006D6ED000A30EED0
:1037B000200A01EB800686ED000A94ED010A00EB79
:1037C00040061A4F07EB8606D6ED000A20EE200AC7
:1037D000D4ED020A00EB400607EB860696ED011ACF
:1037E00000EE810AD4ED030A00EB400607EB8606E3
:1037F00096ED021A00EE810A0D4E06EB8006D6ED1C
:10380000000A30EE200A02EB800686ED000A461C14
:10381000F0B20328FFF67DAFF0BD0000B80800202D
:10382000A4120220DC080020B012022000090020AF
:10383000CC12022010B52DED028BB0EE408A9FED28
:10384000220AF0EE408A21480078F8B1F0EE680ACA
:10385000B0EE480A1E4800F02BFC1D4890ED080A07
:10386000B5EEC00AF1EE10FA03D29FED1A0A80ED10
:10387000080A174890ED080ABCEEC00A10EE100ABC
:1038800084B22146144801F0B4FC1AE0B4EEE88A90
:10389000F1EE10FA10DD11480078401C0F49087055
:1038A00008460078C82807DD0120084908709FED08
:1038B0000C0A074880ED0A0A41F28731064801F0F8
:1038C00098FCBDEC028B10BD00003442240900209E
:1038D0001813022000000000000400402809002006
:1038E00000401C4508B5072005F010FA00BF03F0A2
:1038F000D3FE0028FBD100BF03F0F4FC0028FBD16D
:1039000004F010F8044606F05BF8A5490860FEF7DD
:10391000AFFE1722A349A44800F0DAFF01221146A6
:10392000A24801F05DF801220221A04801F058F8F8
:103930000021102000F07AFF31E100BF4FF0FF318D
:10394000012005F001F80128F8D199499548401C5B
:1039500003F010FF97499348103003F00BFD954892
:10396000934B954A954900909548FFF7CDFE9048B6
:10397000007800F00100002846D092480078E8BBAB
:10398000012141F2883001F079F9DFED8F0A9FEDD6
:103990008F0A8F4A01218F4800F082FC864A8749AE
:1039A0008D48FCF7CFFE8D4B1A1F111F8A4803F07C
:1039B0005FF9824890ED000A894880ED000A894845
:1039C00080ED000A884880ED000A7C4890ED010AED
:1039D000834880ED010A834880ED010A824880ED2A
:1039E000010A764890ED020A7D4880ED020A7D4882
:1039F00080ED020A7C4880ED020A00E005E0714893
:103A00000078401C6F490870BBE0764890ED000AD2
:103A1000754880ED000A724890ED000A714880ED0B
:103A2000000A90ED000A7148D0ED000A20EE200A4D
:103A30006D48D0ED000A6D4890ED011A00EE810A44
:103A40005E48D0ED000A694890ED021A00EE810A46
:103A5000634880ED000A634890ED010A624880EDFA
:103A6000010A5F4890ED010A5E4880ED010A90ED81
:103A7000010A5E48D0ED000A20EE200A5A48D0ED37
:103A8000010A5A4890ED011A00EE810A4B48D0ED28
:103A9000010A564890ED021A00EE810A504880ED66
:103AA000010A504890ED020A4F4880ED020A4C4846
:103AB00090ED020A4B4880ED020A90ED020A4B4855
:103AC000D0ED000A20EE200A4748D0ED020A474810
:103AD00090ED011A00EE810A3848D0ED020A434801
:103AE00090ED021A00EE810A3D4880ED020A324B49
:103AF000024633499FED3E0A3748FCF79BFF374BA0
:103B00001A1F111F344803F0B3F83A480088B8B9B7
:103B1000394890ED000A394880ED000A364890EDAA
:103B2000010A364880ED010A334890ED020A334815
:103B300080ED020A2F480088401C2E49088020E0B2
:103B40002C480088B0F5FA7F0FDA42F210715F203E
:103B500002F072FC2A48007898B115480278254B8B
:103B60001749264803F002FB0BE022480088B0F515
:103B7000FA7F06D102F058FC1E480088401C1D49FF
:103B800008800B48D0ED040AB0EE600AFFF752FE41
:103B900000F03AF8002004F063FF1A490860CCE610
:103BA000B0080020601202207CA2000800500140F2
:103BB00078120220BC120220F0120220E41202202D
:103BC000D8120220250900200080894500A08C45DC
:103BD00094A20008181302200813022004130220E4
:103BE0009C1302209013022084130220A0A200083C
:103BF0006F12833A2609002098120220A412022094
:103C000024090020B40800201B4890ED000A1B483E
:103C100080ED000A184890ED020A184880ED010A6C
:103C2000154890ED010A154880ED020A144890ED00
:103C3000000A124880ED030A114890ED020A0F486D
:103C400080ED040A0E4890ED010A0C4880ED050A4B
:103C50000C4890ED000A094880ED060A094890EDED
:103C6000020A064880ED070A064890ED010A03485B
:103C700080ED080A70470000FC1202206013022049
:103C8000D8120220E412022070B504460D46002628
:103C900005E014F8010B01F05FFB701CC6B2AE42E8
:103CA000F7DB70BD70B50446002067490870002539
:103CB00000262078A52870D10521204601F094FD2A
:103CC00000286AD0607800F109052946204601F0F5
:103CD0006BFD0028F5D06079A17940EA012640F219
:103CE0000221701A8E4265D017DC40F20111A6EB5A
:103CF00001008E423FD006DC062E73D2DFE806F0CC
:103D0000A122282E343A01283BD003283FD0042892
:103D100044D0B0F5807F65D146E0052871D008DC3D
:103D200001284DD0022851D0032855D00428F2D1C3
:103D300059E006286BD0072871D0082875D0FF28D5
:103D40007FD178E06278E11D4048FCF727FB79E0FD
:103D50006278E11D3E48FCF721FB73E06278E11DCB
:103D60003C48FCF71BFB6DE06278E11D3A48FCF72C
:103D700015FB67E066E06278E11D3848FCF70EFB52
:103D800060E06278E11D3648FCF708FB5AE0627893
:103D9000E11D3448FCF702FB54E054E06278E11D79
:103DA0003148FCF7FBFA4DE06278E11D2F48FCF743
:103DB000F5FA47E06278E11D2D48FCF7EFFA41E0A3
:103DC0006278E11D2B48FCF7E9FA3BE06278E11DDF
:103DD0002948FCF7E3FA35E06278E11D2748FCF753
:103DE000DDFA2FE02DE06278E11D2548FCF7D6FAD8
:103DF00023480078000910B901201349087021E018
:103E0000FFE76278E11D1F48FCF7C8FA1AE0627804
:103E1000E11D1D48FCF7C2FA14E000E005E06278FD
:103E2000E11D1A48FCF7BAFA0CE06278E11D184867
:103E3000FCF7B4FA06E06278E11D1648FCF7AEFA2A
:103E400000E000BF00BF70BDF7000020C40E0220DC
:103E5000C8000020CF0E0220C9000020CC000020A6
:103E6000D0000020D4000020D6000020EF0E022059
:103E70000A0F02201A0F0220D7000020D8000020CD
:103E8000D9000020DA000020E1000020E700002037
:103E9000EB000020F100002000B58FB001214805A3
:103EA00000F054FA1748FEF7F5F84FF02060009044
:103EB00000200390144801901448029000200390C1
:103EC00064200490002005904FF48060069000204C
:103ED000079008904FF4807009904FF440300A909A
:103EE00004200B9003200C9000200D900E9069464A
:103EF0000448FEF7EBF901210248FEF7BFF80FB0C6
:103F000000BD0000A0600240047C0040900C022034
:103F100000B587B00121102000F018FA0121C80770
:103F200000F024FA082200212948FEF72DFC08227F
:103F300001212748FEF728FC02208DF80800002008
:103F40008DF80A000320019001208DF80B0003205A
:103F50008DF8090001A91E48FEF7CEFB4FF4E130B1
:103F600003900020ADF81000ADF81200ADF8140079
:103F70000C20ADF816000020ADF8180003A9154874
:103F800001F066FB0121134801F078FA012240F2AA
:103F90002441104801F037FB012240210D4801F077
:103FA00079FA012280210B4801F074FAFFF774FFBF
:103FB00053208DF8000000208DF801008DF80200DC
:103FC00001208DF80300684600F00AF807B000BD34
:103FD00000100240007C004000BFFEE77047000078
:103FE00070B5002100230F22C4781CB3174C24683D
:103FF00004F4E064C4F5E064C4F30721C1F10404EF
:10400000E3B20A4144789C40E1B2847814402143F1
:104010000C07210E0E4C05786155047804F01F053D
:104020000124AC4005786D11AD0005F1E025C5F81F
:10403000004109E0047804F01F050124AC40054D5F
:104040000678761145F8264070BD00000CED00E0C2
:1040500000E400E080E100E002490143024A11600F
:10406000704700000000FA050CED00E01CB50121CE
:10407000302000F06BF90320009001208DF804003F
:1040800000208DF8060002208DF8050001208DF833
:10409000070069460448FEF72FFB30200090694670
:1040A0000248FEF729FB1CBD00140240001002402C
:1040B000B0EE401A10B99FED790A704790ED100AE2
:1040C00080ED110A90ED0F0A80ED100AC0ED060A8E
:1040D00080ED071A30EEC10A80ED0F0A0178002941
:1040E00075D190ED010AD0ED0F1A20EE210A80ED76
:1040F000090A90ED0A0AD0ED021A90ED0F2A01EE9E
:10410000820A80ED0A0A90ED0D0A80ED0E0A90ED0C
:104110000C0A80ED0D0A90ED0F0AD0ED101A30EE6A
:10412000610A80ED0C0A90ED030AD0ED0C1A20EE26
:10413000210A80ED0B0A90ED0A0AD0ED051AB4EEC3
:10414000E10AF1EE10FA04DD90ED050A80ED0A0AAD
:1041500010E090ED0A0AD0ED051AF1EE611AB4EE06
:10416000E10AF1EE10FA05D290ED050AB1EE400A2F
:1041700080ED0A0A90ED090AD0ED0A1A30EE210A04
:10418000D0ED0B1A30EE210A80ED080A90ED080AF6
:10419000D0ED041AB4EEE10AF1EE10FA04DD90ED70
:1041A000040A80ED080A76E090ED080AD0ED041AC2
:1041B000F1EE611AB4EEE10AF1EE10FA6BD290ED75
:1041C000040AB1EE400A80ED080A64E0FFE70178D6
:1041D000012960D190ED0F0AD0ED101A30EE610A7E
:1041E000D0ED011A20EE210A80ED090A90ED020AB5
:1041F000D0ED0F1A20EE210A80ED0A0A90ED0D0A8B
:1042000080ED0E0A90ED0C0A80ED0D0A90ED0F0A7C
:10421000D0ED101AB0EE002A02EE610AD0ED111AAC
:1042200030EE210A80ED0C0A90ED030AD0ED0C1A55
:1042300020EE210A80ED0B0A90ED090AD0ED0A1A52
:1042400030EE210AD0ED0B1A30EE210AD0ED081A1B
:1042500030EE210A80ED080A90ED080AD0ED041A2C
:10426000B4EEE10AF1EE10FA04DD90ED040A80EDFF
:10427000080A10E090ED080AD0ED041AF1EE611A78
:10428000B4EEE10AF1EE10FA05D290ED040AB1EEB7
:10429000400A80ED080A90ED080A0EE700000000D1
:1042A00000B102B97047017092ED001A80ED011A59
:1042B00092ED011A80ED021A92ED021A80ED031AB6
:1042C00080ED040AC0ED050A9FED0C1A80ED0E1A70
:1042D00080ED0D1A80ED0C1A9FED081A80ED081A7A
:1042E00080ED0B1A80ED0A1A80ED091A80ED111A83
:1042F00080ED101A80ED0F1A00BFD3E70000000018
:104300002DE9FF410E461C46BDF80800093087B272
:104310002546A02028709DF808006070E878401CB1
:10432000E87005212046FCF73BFCBDF80000A4F82E
:104330000500BDF808203146E01DFCF72FF839468E
:104340002046FCF715FCBDE8FF81000029B1064AB4
:1043500012680243044B1A6004E0034A1268824365
:10436000014B1A60704700003038024029B1064AFC
:1043700012680243044B1A6004E0034A1268824345
:10438000014B1A60704700004038024029B1064ACC
:1043900012680243044B1A6004E0034A1268824325
:1043A000014B1A60704700002038024029B1064ACC
:1043B00012680243044B1A6004E0034A1268824305
:1043C000014B1A60704700004438024029B1064A88
:1043D00012680243044B1A6004E0034A12688243E5
:1043E000014B1A607047000024380240F0B50021EC
:1043F00000220024022500260223324F3F6807F0E6
:104400000C0121B1042905D0082937D105E02E4F30
:10441000076036E02D4F076033E02A4F3F1F3F68AB
:10442000C7F38056274F3F1F3F6807F03F036EB129
:10443000264FB7FBF3F7DFF88CC0ACF1040CDCF8C7
:1044400000C0CCF3881C07FB0CF40CE01E4FB7FB3C
:10445000F3F7DFF870C0ACF1040CDCF800C0CCF36B
:10446000881C07FB0CF4174F3F1F3F68C7F3014739
:104470007F1C7D00B4FBF5F7076002E0124F076078
:1044800000BF00BF0F4F3F6807F0F0010909104F50
:104490007A5C0768D74047600A4F3F6807F4E051ED
:1044A000890A0B4F7A5C4768D7408760054F3F68A1
:1044B00007F46041490B064F7A5C4768D740C760F4
:1044C000F0BD0000083802400024F400001BB700D3
:1044D0001400002070B590B004460E461546012128
:1044E0004A48FFF733FF01211020FFF75FFF01214A
:1044F0001020FFF76BFF00211020FFF767FF072256
:1045000011464348FEF740F980200E9002208DF8B6
:104510003C0000208DF83E0003208DF83D00002077
:104520008DF83F000EA93A48FEF7E6F8394800F04A
:10453000BBFF39480A900020ADF82C00ADF82E00E2
:104540004FF48060ADF830000420ADF83200002058
:10455000ADF834000AA92F4801F07AF80122402171
:104560002C4800F097FF10212A4800F07EFF01221E
:1045700040F22441274801F046F80121254800F087
:104580007DFF25208DF83C0004208DF83D000020A3
:104590008DF83E0001208DF83F000FA8FFF720FDA9
:1045A0001E48FDF777FD4FF0006001901948001D8F
:1045B0000290039400200490059506904FF48060CB
:1045C00007900020089009904FF480700A904FF4F3
:1045D00040300B9000200C900D900E900F9001A990
:1045E0000E48FDF773FE002231460C48FDF709FE28
:1045F00001210A48FDF7FAFD00210848FDF73EFDBC
:1046000001210648FDF73AFD10B070BD02004000E0
:104610000004024000100140A086010040640240F6
:1046200070B505460C4605B104B970BD28786978A7
:1046300040EA0120C0F30A0020806878C010A97801
:1046400040EA4110C0F30A006080A8788011E97840
:1046500040EA8100297940EA8120C0F30A00A08065
:1046600028794010697940EAC110C0F30A00E0805F
:104670006879C0F30110A072687900118108E172B5
:10468000A879E97940EA012000B2A081287A697A04
:1046900040EA012001B2E181A87AE97A40EA0120EA
:1046A00001B22182297BA174697BE174A87BE97B3B
:1046B00040EA0120A082287C697C40EA012000B207
:1046C00020812088A0F5806000B220806088A0F55D
:1046D000806000B26080A088A0F5806000B2A080F9
:1046E000E088A0F5806000B2E0802089A0F58060BD
:1046F00000B22081B4F900000A2806DCB4F90000F9
:1047000010F10A0F01DB00202080B4F902000A2812
:1047100006DCB4F9020010F10A0F01DB0020608012
:10472000B4F904000A2806DCB4F9040010F10A0FF9
:1047300001DB0020A080B4F906000A2806DCB4F9E9
:10474000060010F10A0F01DB0020E080B4F9080038
:104750000A2806DCB4F9080010F10A0F01DB00207A
:104760002081204602F048FE00BF5EE700B587B01A
:1047700001212020FFF7EAFD01210805FFF716FEC1
:104780004FF46070059002208DF8180000208DF81D
:104790001A0001208DF81B0003208DF8190005A9CF
:1047A0002048FDF7A9FF052207211E48FDF7ECFF71
:1047B000052208211B48FDF7E7FF052209211948BA
:1047C000FDF7E2FF01210805FFF700FE00214FF48D
:1047D0008010FFF7FBFD0020ADF800004FF4827061
:1047E000ADF802000020ADF804000220ADF806008C
:1047F0000120ADF808004002ADF80A003820ADF8FD
:104800000C000020ADF80E000720ADF8100069463E
:10481000054800F0FCF80121034800F0D5F807B086
:1048200000BD000000140240005001400A4A1288F6
:104830004FF2C7731A40084B1A801A461288024377
:104840001A801A4612880A431A801A46128842F0C1
:1048500040021A80704700000050014010B5044625
:1048600000211848FDF70AFC002116481830FDF712
:1048700005FC00BF1348FDF7D0FC0028FAD100BFAB
:1048800010481830FDF7C9FC0028F9D10E490D4831
:104890001830FDF7D9FB0D490A48FDF7D5FB214635
:1048A0000848FDF73FFD214606481830FDF73AFD60
:1048B000012104481830FDF7E1FB01210148FDF713
:1048C000DDFB10BD70640240000C002030000020B1
:1048D00070B590B005460E46144601218805FFF7D5
:1048E00035FD44208DF83C0005208DF83D0000206A
:1048F0008DF83E0001208DF83F000FA8FFF770FBF8
:104900002F48FDF7C7FB00BF2D48FDF786FC0028A8
:10491000FAD14FF0606000902A4801900296002082
:104920000390049405904FF4806006900020079057
:10493000089009904FF440300A9000200B900C90A2
:104940000D900E9069461E48FDF7C0FC0122102113
:104950001B48FDF79DFC00211948FDF78FFB184807
:104960001838FDF797FB00BF15481838FDF755FCC0
:104970000028F9D14FF08060009012480190029514
:10498000402003900494002005904FF4806006902E
:1049900000200790089009904FF480300A90002082
:1049A0000B900C900D900E90694605481838FDF755
:1049B0008DFC002102481838FDF760FB10B070BD77
:1049C000886402400C50014021B1028842F040024C
:1049D000028004E002884FF6BF731A4002807047DD
:1049E0001AB183880B43838002E083888B438380E2
:1049F00070470246002013890B400BB1012000E0F4
:104A0000002070470146888970478181704710B542
:104A10000022028802F441520B884C8823438C8880
:104A20002343CC8823430C8923434C8923438C891B
:104A30002343CC8923431A430280838B4FF2FF74B4
:104A4000234083830B8A038210BD000030B500220F
:104A50008B071C0F0F2303FA04F20B4B8C1053F837
:104A600024309343084C8D1044F8253023468C1095
:104A700053F824308C07240F00FA04F42343024C2B
:104A80008D1044F8253030BD083801400CB50020A9
:104A9000019000904148006840F480303F49086030
:104AA00000BF3E48006800F4003000900198401CB0
:104AB0000190009818B90198B0F5A04FF1D137488E
:104AC000006800F4003010B10120009001E00020E7
:104AD00000900098012860D130484030006840F0D4
:104AE00080502E49403108602D48006840F4404015
:104AF0002B490860294808300068284908310860B7
:104B00000846006840F4004008600846006840F429
:104B1000A05008602348091F0860081F006840F083
:104B20008070091F086000BF1C48006800F000701A
:104B30000028F9D01A48006840F48030184908600D
:104B400000BF1748406800F480300028F9D01448AE
:104B5000006840F400301249086000BF1048406807
:104B600000F400300028F9D040F205700E490860CA
:104B70000A480830006820F003000849083108603E
:104B80000846006840F00200086000BF0348083093
:104B9000006800F00C000828F8D10CBD0038024075
:104BA00000700040062D4008003C0240042808D157
:104BB0004FF0E021096941F004014FF0E02211615A
:104BC00007E04FF0E021096921F004014FF0E022F5
:104BD0001161704710B504F045FF012801D004F0C1
:104BE0009DFB10BD10B51548006840F470001349D6
:104BF00008601348006840F0010011490860002077
:104C00000F49083108600E4800680E4908400C49F9
:104C100008600D48091D0860081F006820F4802006
:104C2000091F0860002006490C310860FFF72EFFBD
:104C30004FF0006001498039086010BD88ED00E048
:104C400000380240FFFFF6FE1030002410B50121AD
:104C5000084800F0C1F960B10121064800F0D6F81B
:104C6000054802684068521C40F1000002490A6091
:104C7000486010BD00040040C000002030B58BB07B
:104C800005460C4601210220FFF770FB012102209E
:104C9000FFF75CFB022205212D48FDF775FD012180
:104CA0000220FFF773FB00210220FFF76FFB1D209E
:104CB0008DF8140005208DF8150000208DF81600E1
:104CC00001208DF8170005A8FFF78AF9681E0990E2
:104CD000601E80B2ADF820000020ADF82200ADF8D3
:104CE0002800012211461B4800F087F908A919483D
:104CF00000F084FA2020069002208DF81C0003208A
:104D00008DF81D0000208DF81E0002208DF81F0078
:104D100006A90F48FDF7F0FC6020ADF80000012067
:104D2000ADF802000020ADF80C006946094800F01B
:104D3000B5F90821074800F003FA0121054800F001
:104D400059F80121034800F064F80BB030BD0000B1
:104D5000000402400004004010B50121064800F0A4
:104D60003BF938B10121044800F050F80021024815
:104D700000F04FF810BD0000001000407FB5054660
:104D80000C4601211020FFF7F1FA01211020FFF756
:104D9000FDFA00211020FFF7F9FA154800F054F849
:104DA000681E0290601E80B2ADF804000020ADF8CD
:104DB0000600ADF80C0001A90D4800F01FFA012211
:104DC00011460B4800F019F936208DF80000042038
:104DD0008DF8010000208DF8020001208DF80300FD
:104DE0006846FFF7FDF80121014800F012F87FBD89
:104DF0000010004021B1028842F08002028004E0ED
:104E000002884FF67F731A4002807047CA430282BD
:104E1000704721B1028842F00102028004E002885A
:104E20004FF6FE731A400280704731B1B0F844204B
:104E300042F40042A0F8442005E0B0F84420C2F358
:104E40000E02A0F84420704710B50446554884422D
:104E500008D101210846FFF7B9FA00210120FFF728
:104E6000B5FA9DE0B4F1804F08D101210846FFF763
:104E70008DFA00210120FFF789FA91E04A48844227
:104E800008D101210220FFF781FA00210220FFF75B
:104E90007DFA85E04548844208D101210420FFF7CE
:104EA00075FA00210420FFF771FA79E04048844246
:104EB00008D101210820FFF769FA00210820FFF737
:104EC00065FA6DE03B48844208D101211020FFF7CC
:104ED0005DFA00211020FFF759FA61E0364884425C
:104EE00008D101212020FFF751FA00212020FFF7EF
:104EF0004DFA55E03148844208D101210220FFF7E4
:104F000065FA00210220FFF761FA49E02C4884424B
:104F100009D101210804FFF759FA00214FF480302C
:104F2000FFF754FA3CE02748844209D101214804A4
:104F3000FFF74CFA00214FF40030FFF747FA2FE05B
:104F40002148844209D101218804FFF73FFA00215A
:104F50004FF48020FFF73AFA22E01C48844208D13F
:104F600001214020FFF712FA00214020FFF70EFA3E
:104F700016E01748844208D101218020FFF706FA85
:104F800000218020FFF702FA0AE01248844207D18C
:104F900001218015FFF7FAF90021A015FFF7F6F9B6
:104FA00010BD000000000140000400400008004067
:104FB000000C0040001000400014004000040140BC
:104FC00000400140004401400048014000180040FA
:104FD000001C00400020004030B5024600200023A5
:104FE0000024158A05EA0103958905EA010413B135
:104FF0000CB1012000E0002030BD1AB183890B43C1
:10500000838102E083898B438381704770B50024DC
:1050100000220023058C4FF6FE7635400584028C75
:105020008388048B4FF68F752C40B51E2C400D885D
:105030002C43751E2A408D892A434D882A43104DE2
:10504000A84202D00F4DA84213D14FF6F7752A405F
:10505000CD892A434FF6FB752A408D882A434FF6A7
:10506000FF652B404FF6FF552B400D8A2B434D8A91
:105070002B43838004838D684563028470BD0000E8
:1050800000000140000401400A460021018B4FF658
:10509000F7731940114301837047000070B5002475
:1050A00000220023058C4FF6EF7635400584028CF4
:1050B0008388048B48F6FF752C404FF6FF452C4043
:1050C0000D884FF6FF7606EA05252C434FF6DF756F
:1050D0002A408D8906EA05152A434D8806EA0515FA
:1050E0002A43154DA84202D0144DA8421DD14FF6B7
:1050F0007F752A40CD894FF6FF7606EA05152A43CB
:105100004FF6BF752A408D8806EA05152A434FF6EB
:10511000FF352B404FF2FF752B400D8A06EA8505BF
:105120002B434D8A06EA85052B43838004838D68D3
:105130008563028470BD000000000140000401404E
:105140000A460021018B4FF2FF7319404FF6FF739F
:1051500003EA0223194301837047000070B500225F
:1051600000230024058C4EF6FF7635400584038C21
:105170008488828B48F6FF752A404FF6FF452A4007
:105180000D884FF6FF7606EA05252A434DF6FF7592
:105190002B408D8906EA05352B434D8806EA0535F7
:1051A0002B430A4DA84202D0094DA84208D14BF624
:1051B000FF752C400D8A4FF6FF7606EA85152C43C5
:1051C000848082838D680564038470BD0000014083
:1051D000000401400A460021818B4FF2FF73194001
:1051E0004FF6FF7303EA022319438183704741633B
:1051F0007047816370470164704700000022028895
:10520000184B98420ED0184B98420BD0B0F1804FFB
:1052100008D0164B984205D0154B984202D0154B3A
:10522000984204D14FF68F731A404B881A43124BA1
:10523000984207D0114B984204D04FF6FF431A40D2
:105240000B891A4302804B68C3620B880385054BA8
:10525000984202D0044B984201D18B7A03860123F5
:1052600083827047000001400004014000040040B8
:1052700000080040000C00400010004000140040F6
:1052800010B540F22441114800F093F9E8B10F48FD
:1052900000880F4908600D48001D00880860002143
:1052A0000C48FCF7EBFE0B48FCF7C1FFC0F16400B3
:1052B00007490860084800F0C5FA64210648FBF772
:1052C00086F801210348FCF7D9FE10BD00780040A4
:1052D000A800002058600240F40C022010B50446DB
:1052E00000BF4021044800F057F90028F9D02146BA
:1052F000014800F01CFA10BD0078004010B540F2E3
:105300002441114800F055F9E8B10F4800880F49D1
:1053100008600D48001D0088086000210C48FCF75B
:10532000ADFE0B48FCF783FFC0F16400074908603D
:105330000848FEF7B7FC64210648FBF748F801214E
:105340000348FCF79BFE10BD007C0040AC00002031
:10535000A0600240900C022010B5044600BF40211E
:10536000044800F019F90028F9D02146014800F05E
:10537000DEF910BD007C004010B540F225513448E4
:1053800000F017F918B1324800F0CCF95FE040F2B4
:1053900024412F4800F00DF9002858D02C4800F087
:1053A000C1F92C48FCF747FF40BB00212948FCF716
:1053B00065FE2848FCF73BFFC0F124002649088021
:1053C00024212448FCF7AEFF2248006840F4002066
:1053D0002049086021491F48FCF736FE01211D487D
:1053E000FCF74CFE1C480088122830D11C491D488F
:1053F000FFF716F90020FDF70FF828E00021154807
:10540000FCF73CFE1348FCF712FFC0F124001249E0
:10541000088024210F48FCF785FF0E48006820F41F
:1054200000200C4908600D490A48FCF70DFE0121D7
:105430000848FCF723FE08480088122807D10849CD
:1054400008482430FFF7ECF80020FCF7E5FF10BD1A
:105450000010014040640240B600002000003010FF
:10546000400E02207C0E0220704701F40072B2F55B
:10547000007F00D100BFCA430280704721B18289FA
:1054800042F40052828104E082894DF6FF731A4093
:10549000828170471AB1838A0B43838202E0838A38
:1054A0008B4383827047000010B504463248844223
:1054B00008D101211020FEF789FF00211020FEF7FE
:1054C00085FF57E02D48844209D101214804FEF7A9
:1054D0005DFF00214FF40030FEF758FF4AE02848F6
:1054E000844209D101218804FEF750FF00214FF4C6
:1054F0008020FEF74BFF3DE02248844209D1012184
:10550000C804FEF743FF00214FF40020FEF73EFFE2
:1055100030E01D48844209D101210805FEF736FF1D
:1055200000214FF48010FEF731FF23E0174884423A
:1055300008D101212020FEF749FF00212020FEF79D
:1055400045FF17E01248844209D101218807FEF780
:105550001DFF00214FF08040FEF718FF0AE00D48C4
:10556000844207D101214005FEF710FF00216005AC
:10557000FEF70CFF10BD0000001001400044004089
:1055800000480040004C0040005000400014014022
:1055900000780040007C004002460020B1F5007F0A
:1055A00000D100BF13880B400BB1012000E00020A8
:1055B000704770B50246002400230025002040F605
:1055C0006A16B14200D100BFC1F3421501F01F03BA
:1055D000012606FA03F3012D02D19689334006E035
:1055E000022D02D1168A334001E0968A33400C1214
:1055F000012606FA04F41688344013B10CB10120D8
:1056000000E0002070BDF0B5034600240026002510
:10561000002040F66A17B94200D100BF1846C1F316
:10562000421401F01F06012707FA06F5012C01D1EB
:105630000C3004E0022C01D1103000E014301AB11B
:1056400007682F43076002E00768AF430760F0BDBB
:105650002DE9FF4705460E460024A14600BFA0469F
:10566000B08900B100BF2C8A24F44054F088044370
:105670002C82AC8941F20C608443B08831890843A4
:10568000718908430443AC81AC8A24F44074B08926
:105690000443AC826846FEF7A9FE2048854202D04A
:1056A0001F48854202D1DDF80C9001E0DDF808903A
:1056B000A88900F4004040B109EBC90000EB0910D3
:1056C00031684900B0FBF1F707E009EBC90000EBD6
:1056D000091031688900B0FBF1F76420B7FBF0F0E6
:1056E00004012009642101FB1078A88900F400401E
:1056F00040B1322000EBC800B0FBF1F000F0070031
:10570000044308E0322000EB08106421B0FBF1F004
:1057100000F00F0004432C81BDE8FF87001001401A
:105720000014014001468888C0F308007047C1F3A7
:10573000080282807047000010B52DED028B01F049
:105740001FFBB0EE408A01F00BFBF0EE408A012017
:10575000114948709FED110A10EE100A486001F0DF
:105760001FFB0D49087000208870C8700C48006845
:1057700090ED020A30EE680A10EE100A88600848C0
:10578000006890ED000A30EE480A10EE100AC8607A
:10579000BDEC028B10BD0000380F0220000000009D
:1057A000FC00002000BFFEE770B505460C46002651
:1057B0000DB1022C01D8002070BDA11E094802883D
:1057C0002846FDF709F80646F1B2A01E285C814282
:1057D00006D1601E285CB0EB162F01D10120EBE74B
:1057E0000020E9E79C00002070B505460C46002625
:1057F0000DB1022C01DC002070BD601E81B2FF22C1
:105800002846FDF703F80646601E285CB04201D129
:105810000120F1E70020EFE770B504460D460026B1
:1058200005E014F8010BFFF759FD701CC6B2AE423B
:10583000F7DB70BD10B501F00BFA0149086010BD2F
:10584000FC0000202DE9F041044600260027002539
:1058500000201849087009E0605DA52800D106E025
:10586000462D01DBBDE8F081681CC5B2F4E700BF3E
:1058700060190521FFF7B8FFD0B1607800F1090683
:1058800060193146FFF790FF90B1681D215CA81D9B
:10589000205C41EA0027A12F09D1E81D01190E2241
:1058A0000548FAF77BFD01200249087000BF00BFE0
:1058B00000BFD7E7000100202A0F022000B58FB0FB
:1058C00001214805FEF742FD1748FCF7E3FB4FF0C6
:1058D000206000900020039014480190144802902A
:1058E0000020039064200490002005904FF4806015
:1058F00006900020079008904FF4807009904FF4B4
:1059000040300A9004200B9003200C9000200D9052
:105910000E9069460448FCF7D9FC01210248FCF7C7
:10592000ADFB0FB000BD000058600240047800409D
:10593000F40C022000B587B001211020FEF706FD0F
:1059400001218807FEF712FD082211462A48FCF7BC
:105950001BFF082207212848FCF716FF02208DF8BC
:10596000080000208DF80A004FF4C070019001205B
:105970008DF80B0003208DF8090001A91E48FCF7E3
:10598000BBFE4FF4E13003900020ADF81000ADF8FD
:105990001200ADF814000C20ADF816000020ADF890
:1059A000180003A91548FFF753FE01211348FFF71C
:1059B00065FD012240F224411048FFF724FE012238
:1059C00040210E48FFF766FD012280210B48FFF7BA
:1059D00061FDFFF773FF52208DF8000000208DF865
:1059E00001008DF8020001208DF803006846FEF7E3
:1059F000F7FA07B000BD0000001002400078004038
:105A0000002001490870704700010020014800781B
:105A100070470000000100204100080218BF042068
:105A20000A0E18BF40F001004FF07F4232EA010138
:105A300008BF40F00200012808BF052070470000A1
:105A400010B54FF00E402DED028BB0EE408A18EEEF
:105A5000104A00EB4400B0F1506F4AD84FF0FC40C0
:105A6000B0EB440F22D2B0EEC80AF7EE000A30EED7
:105A7000C00AF6EE000A60EE208A18EE900A02F0E4
:105A80002FFE01EE100A14F0004F1DBFDFED2D0AAE
:105A90009FED2D0AB1EE411ADFED2C0A08BF9FEDF4
:105AA0002C0AF8EE001A21EE218A05E0DFED290A22
:105AB00068EE088AB0EE600A9FED271ADFED271A1C
:105AC00030EE080A48EE811A9FED251A08EEA11A59
:105AD000DFED241A48EE811A9FED231A08EEA11A71
